{
  "contractName": "Factory",
  "abi": [
    {
      "constant": true,
      "inputs": [],
      "name": "noOfDataRequirements",
      "outputs": [
        {
          "name": "",
          "type": "uint256"
        }
      ],
      "payable": false,
      "stateMutability": "view",
      "type": "function"
    },
    {
      "constant": true,
      "inputs": [],
      "name": "noOfDoctors",
      "outputs": [
        {
          "name": "",
          "type": "uint256"
        }
      ],
      "payable": false,
      "stateMutability": "view",
      "type": "function"
    },
    {
      "constant": true,
      "inputs": [],
      "name": "noOfData",
      "outputs": [
        {
          "name": "",
          "type": "uint256"
        }
      ],
      "payable": false,
      "stateMutability": "view",
      "type": "function"
    },
    {
      "constant": true,
      "inputs": [
        {
          "name": "",
          "type": "uint256"
        }
      ],
      "name": "labs",
      "outputs": [
        {
          "name": "name",
          "type": "string"
        },
        {
          "name": "add",
          "type": "address"
        },
        {
          "name": "email",
          "type": "string"
        },
        {
          "name": "license",
          "type": "string"
        },
        {
          "name": "details",
          "type": "string"
        }
      ],
      "payable": false,
      "stateMutability": "view",
      "type": "function"
    },
    {
      "constant": true,
      "inputs": [
        {
          "name": "",
          "type": "uint256"
        }
      ],
      "name": "doctors",
      "outputs": [
        {
          "name": "name",
          "type": "string"
        },
        {
          "name": "add",
          "type": "address"
        },
        {
          "name": "email",
          "type": "string"
        },
        {
          "name": "license",
          "type": "string"
        },
        {
          "name": "physicalAdd",
          "type": "string"
        },
        {
          "name": "specialization",
          "type": "string"
        }
      ],
      "payable": false,
      "stateMutability": "view",
      "type": "function"
    },
    {
      "constant": false,
      "inputs": [],
      "name": "renounceOwnership",
      "outputs": [],
      "payable": false,
      "stateMutability": "nonpayable",
      "type": "function"
    },
    {
      "constant": true,
      "inputs": [],
      "name": "noOfPatients",
      "outputs": [
        {
          "name": "",
          "type": "uint256"
        }
      ],
      "payable": false,
      "stateMutability": "view",
      "type": "function"
    },
    {
      "constant": true,
      "inputs": [],
      "name": "owner",
      "outputs": [
        {
          "name": "",
          "type": "address"
        }
      ],
      "payable": false,
      "stateMutability": "view",
      "type": "function"
    },
    {
      "constant": true,
      "inputs": [],
      "name": "isOwner",
      "outputs": [
        {
          "name": "",
          "type": "bool"
        }
      ],
      "payable": false,
      "stateMutability": "view",
      "type": "function"
    },
    {
      "constant": true,
      "inputs": [
        {
          "name": "",
          "type": "uint256"
        }
      ],
      "name": "patients",
      "outputs": [
        {
          "name": "name",
          "type": "string"
        },
        {
          "name": "add",
          "type": "address"
        },
        {
          "name": "email",
          "type": "string"
        },
        {
          "name": "driveURL",
          "type": "string"
        },
        {
          "name": "presURL",
          "type": "string"
        },
        {
          "name": "infoURL",
          "type": "string"
        },
        {
          "name": "reportsURL",
          "type": "string"
        },
        {
          "name": "presUsed",
          "type": "bool"
        }
      ],
      "payable": false,
      "stateMutability": "view",
      "type": "function"
    },
    {
      "constant": true,
      "inputs": [],
      "name": "noOfLabs",
      "outputs": [
        {
          "name": "",
          "type": "uint256"
        }
      ],
      "payable": false,
      "stateMutability": "view",
      "type": "function"
    },
    {
      "constant": true,
      "inputs": [],
      "name": "noOfPathologies",
      "outputs": [
        {
          "name": "",
          "type": "uint256"
        }
      ],
      "payable": false,
      "stateMutability": "view",
      "type": "function"
    },
    {
      "constant": true,
      "inputs": [
        {
          "name": "",
          "type": "uint256"
        }
      ],
      "name": "dataRequirements",
      "outputs": [
        {
          "name": "message",
          "type": "string"
        },
        {
          "name": "labId",
          "type": "uint256"
        },
        {
          "name": "bountyForEach",
          "type": "uint256"
        },
        {
          "name": "number",
          "type": "uint256"
        },
        {
          "name": "gotData",
          "type": "uint256"
        }
      ],
      "payable": false,
      "stateMutability": "view",
      "type": "function"
    },
    {
      "constant": true,
      "inputs": [],
      "name": "noOfChemists",
      "outputs": [
        {
          "name": "",
          "type": "uint256"
        }
      ],
      "payable": false,
      "stateMutability": "view",
      "type": "function"
    },
    {
      "constant": true,
      "inputs": [
        {
          "name": "",
          "type": "uint256"
        }
      ],
      "name": "chemists",
      "outputs": [
        {
          "name": "name",
          "type": "string"
        },
        {
          "name": "add",
          "type": "address"
        },
        {
          "name": "email",
          "type": "string"
        },
        {
          "name": "license",
          "type": "string"
        },
        {
          "name": "physicalAdd",
          "type": "string"
        }
      ],
      "payable": false,
      "stateMutability": "view",
      "type": "function"
    },
    {
      "constant": true,
      "inputs": [
        {
          "name": "",
          "type": "uint256"
        }
      ],
      "name": "data",
      "outputs": [
        {
          "name": "requirementId",
          "type": "uint256"
        },
        {
          "name": "patientId",
          "type": "uint256"
        },
        {
          "name": "url",
          "type": "string"
        }
      ],
      "payable": false,
      "stateMutability": "view",
      "type": "function"
    },
    {
      "constant": false,
      "inputs": [
        {
          "name": "newOwner",
          "type": "address"
        }
      ],
      "name": "transferOwnership",
      "outputs": [],
      "payable": false,
      "stateMutability": "nonpayable",
      "type": "function"
    },
    {
      "constant": true,
      "inputs": [
        {
          "name": "",
          "type": "uint256"
        }
      ],
      "name": "pathologies",
      "outputs": [
        {
          "name": "name",
          "type": "string"
        },
        {
          "name": "add",
          "type": "address"
        },
        {
          "name": "email",
          "type": "string"
        },
        {
          "name": "license",
          "type": "string"
        },
        {
          "name": "physicalAdd",
          "type": "string"
        }
      ],
      "payable": false,
      "stateMutability": "view",
      "type": "function"
    },
    {
      "anonymous": false,
      "inputs": [],
      "name": "NewDoctor",
      "type": "event"
    },
    {
      "anonymous": false,
      "inputs": [],
      "name": "NewChemist",
      "type": "event"
    },
    {
      "anonymous": false,
      "inputs": [],
      "name": "NewLab",
      "type": "event"
    },
    {
      "anonymous": false,
      "inputs": [],
      "name": "NewPathology",
      "type": "event"
    },
    {
      "anonymous": false,
      "inputs": [
        {
          "indexed": true,
          "name": "previousOwner",
          "type": "address"
        },
        {
          "indexed": true,
          "name": "newOwner",
          "type": "address"
        }
      ],
      "name": "OwnershipTransferred",
      "type": "event"
    },
    {
      "constant": false,
      "inputs": [
        {
          "name": "_name",
          "type": "string"
        },
        {
          "name": "_email",
          "type": "string"
        },
        {
          "name": "_driveURL",
          "type": "string"
        },
        {
          "name": "_presURL",
          "type": "string"
        },
        {
          "name": "_infoURL",
          "type": "string"
        },
        {
          "name": "_reportsURL",
          "type": "string"
        }
      ],
      "name": "newPatient",
      "outputs": [
        {
          "name": "",
          "type": "uint256"
        }
      ],
      "payable": false,
      "stateMutability": "nonpayable",
      "type": "function"
    },
    {
      "constant": false,
      "inputs": [
        {
          "name": "_name",
          "type": "string"
        },
        {
          "name": "_email",
          "type": "string"
        },
        {
          "name": "_license",
          "type": "string"
        },
        {
          "name": "_physicalAdd",
          "type": "string"
        },
        {
          "name": "_specialization",
          "type": "string"
        }
      ],
      "name": "newDoctor",
      "outputs": [],
      "payable": false,
      "stateMutability": "nonpayable",
      "type": "function"
    },
    {
      "constant": false,
      "inputs": [
        {
          "name": "_name",
          "type": "string"
        },
        {
          "name": "_email",
          "type": "string"
        },
        {
          "name": "_license",
          "type": "string"
        },
        {
          "name": "_physicalAdd",
          "type": "string"
        }
      ],
      "name": "newChemist",
      "outputs": [],
      "payable": false,
      "stateMutability": "nonpayable",
      "type": "function"
    },
    {
      "constant": false,
      "inputs": [
        {
          "name": "_name",
          "type": "string"
        },
        {
          "name": "_email",
          "type": "string"
        },
        {
          "name": "_license",
          "type": "string"
        },
        {
          "name": "_details",
          "type": "string"
        }
      ],
      "name": "newLab",
      "outputs": [],
      "payable": false,
      "stateMutability": "nonpayable",
      "type": "function"
    },
    {
      "constant": false,
      "inputs": [
        {
          "name": "_name",
          "type": "string"
        },
        {
          "name": "_email",
          "type": "string"
        },
        {
          "name": "_license",
          "type": "string"
        },
        {
          "name": "_physicalAdd",
          "type": "string"
        }
      ],
      "name": "newPathology",
      "outputs": [],
      "payable": false,
      "stateMutability": "nonpayable",
      "type": "function"
    },
    {
      "constant": true,
      "inputs": [
        {
          "name": "chemistId",
          "type": "uint256"
        }
      ],
      "name": "getChemistEmail",
      "outputs": [
        {
          "name": "",
          "type": "string"
        }
      ],
      "payable": false,
      "stateMutability": "view",
      "type": "function"
    },
    {
      "constant": true,
      "inputs": [
        {
          "name": "doctorId",
          "type": "uint256"
        }
      ],
      "name": "getDoctorEmail",
      "outputs": [
        {
          "name": "",
          "type": "string"
        }
      ],
      "payable": false,
      "stateMutability": "view",
      "type": "function"
    },
    {
      "constant": true,
      "inputs": [
        {
          "name": "pathologyId",
          "type": "uint256"
        }
      ],
      "name": "getPathologyEmail",
      "outputs": [
        {
          "name": "",
          "type": "string"
        }
      ],
      "payable": false,
      "stateMutability": "view",
      "type": "function"
    },
    {
      "constant": true,
      "inputs": [
        {
          "name": "labId",
          "type": "uint256"
        }
      ],
      "name": "getLabEmail",
      "outputs": [
        {
          "name": "",
          "type": "string"
        }
      ],
      "payable": false,
      "stateMutability": "view",
      "type": "function"
    }
  ],
  "bytecode": "0x60806040526000600155600060025560006003556000600455600060055560006006556000600755336000806101000a81548173ffffffffffffffffffffffffffffffffffffffff021916908373ffffffffffffffffffffffffffffffffffffffff1602179055506000809054906101000a900473ffffffffffffffffffffffffffffffffffffffff1673ffffffffffffffffffffffffffffffffffffffff16600073ffffffffffffffffffffffffffffffffffffffff167f8be0079c531659141344cd1fd0a4f28419497f9722a3daafe3b4186f6b6457e060405160405180910390a3613a54806100f26000396000f30060806040526004361061015f576000357c0100000000000000000000000000000000000000000000000000000000900463ffffffff168063025cccea146101645780630ba513eb1461029f5780632650afc0146102ca57806337dbc670146102f5578063488a216f146103205780634bb7c644146103c65780636efb1b84146105e3578063715018a61461086c57806384b828ba146108835780638771883e146108ae5780638da5cb5b146109545780638f32d59b146109ab57806393119a83146109da5780639be23de614610cda5780639d761aa014610e15578063a1816cc514610ebb578063abc21a0114610ee6578063b0a7a3b614611021578063cf4368471461104c578063dc30b5701461110e578063dfbce0141461128f578063e81dbf93146112ba578063f0ba8440146114d7578063f2907a881461158b578063f2fde38b14611631578063f7b8be9614611674578063fa4afb3914611891575b600080fd5b34801561017057600080fd5b5061029d600480360381019080803590602001908201803590602001908080601f0160208091040260200160405190810160405280939291908181526020018383808284378201915050505050509192919290803590602001908201803590602001908080601f0160208091040260200160405190810160405280939291908181526020018383808284378201915050505050509192919290803590602001908201803590602001908080601f0160208091040260200160405190810160405280939291908181526020018383808284378201915050505050509192919290803590602001908201803590602001908080601f0160208091040260200160405190810160405280939291908181526020018383808284378201915050505050509192919290505050611a6c565b005b3480156102ab57600080fd5b506102b4611bad565b6040518082815260200191505060405180910390f35b3480156102d657600080fd5b506102df611bb3565b6040518082815260200191505060405180910390f35b34801561030157600080fd5b5061030a611bb9565b6040518082815260200191505060405180910390f35b34801561032c57600080fd5b5061034b60048036038101908080359060200190929190505050611bbf565b6040518080602001828103825283818151815260200191508051906020019080838360005b8381101561038b578082015181840152602081019050610370565b50505050905090810190601f1680156103b85780820380516001836020036101000a031916815260200191505b509250505060405180910390f35b3480156103d257600080fd5b506103f160048036038101908080359060200190929190505050611c81565b60405180806020018673ffffffffffffffffffffffffffffffffffffffff1673ffffffffffffffffffffffffffffffffffffffff16815260200180602001806020018060200185810385528a818151815260200191508051906020019080838360005b8381101561046f578082015181840152602081019050610454565b50505050905090810190601f16801561049c5780820380516001836020036101000a031916815260200191505b50858103845288818151815260200191508051906020019080838360005b838110156104d55780820151818401526020810190506104ba565b50505050905090810190601f1680156105025780820380516001836020036101000a031916815260200191505b50858103835287818151815260200191508051906020019080838360005b8381101561053b578082015181840152602081019050610520565b50505050905090810190601f1680156105685780820380516001836020036101000a031916815260200191505b50858103825286818151815260200191508051906020019080838360005b838110156105a1578082015181840152602081019050610586565b50505050905090810190601f1680156105ce5780820380516001836020036101000a031916815260200191505b50995050505050505050505060405180910390f35b3480156105ef57600080fd5b5061060e60048036038101908080359060200190929190505050611f46565b60405180806020018773ffffffffffffffffffffffffffffffffffffffff1673ffffffffffffffffffffffffffffffffffffffff1681526020018060200180602001806020018060200186810386528c818151815260200191508051906020019080838360005b83811015610690578082015181840152602081019050610675565b50505050905090810190601f1680156106bd5780820380516001836020036101000a031916815260200191505b5086810385528a818151815260200191508051906020019080838360005b838110156106f65780820151818401526020810190506106db565b50505050905090810190601f1680156107235780820380516001836020036101000a031916815260200191505b50868103845289818151815260200191508051906020019080838360005b8381101561075c578082015181840152602081019050610741565b50505050905090810190601f1680156107895780820380516001836020036101000a031916815260200191505b50868103835288818151815260200191508051906020019080838360005b838110156107c25780820151818401526020810190506107a7565b50505050905090810190601f1680156107ef5780820380516001836020036101000a031916815260200191505b50868103825287818151815260200191508051906020019080838360005b8381101561082857808201518184015260208101905061080d565b50505050905090810190601f1680156108555780820380516001836020036101000a031916815260200191505b509b50505050505050505050505060405180910390f35b34801561087857600080fd5b506108816122a9565b005b34801561088f57600080fd5b5061089861240a565b6040518082815260200191505060405180910390f35b3480156108ba57600080fd5b506108d960048036038101908080359060200190929190505050612410565b6040518080602001828103825283818151815260200191508051906020019080838360005b838110156109195780820151818401526020810190506108fe565b50505050905090810190601f1680156109465780820380516001836020036101000a031916815260200191505b509250505060405180910390f35b34801561096057600080fd5b506109696124d2565b604051808273ffffffffffffffffffffffffffffffffffffffff1673ffffffffffffffffffffffffffffffffffffffff16815260200191505060405180910390f35b3480156109b757600080fd5b506109c06124fb565b604051808215151515815260200191505060405180910390f35b3480156109e657600080fd5b50610a0560048036038101908080359060200190929190505050612552565b60405180806020018973ffffffffffffffffffffffffffffffffffffffff1673ffffffffffffffffffffffffffffffffffffffff16815260200180602001806020018060200180602001806020018815151515815260200187810387528f818151815260200191508051906020019080838360005b83811015610a95578082015181840152602081019050610a7a565b50505050905090810190601f168015610ac25780820380516001836020036101000a031916815260200191505b5087810386528d818151815260200191508051906020019080838360005b83811015610afb578082015181840152602081019050610ae0565b50505050905090810190601f168015610b285780820380516001836020036101000a031916815260200191505b5087810385528c818151815260200191508051906020019080838360005b83811015610b61578082015181840152602081019050610b46565b50505050905090810190601f168015610b8e5780820380516001836020036101000a031916815260200191505b5087810384528b818151815260200191508051906020019080838360005b83811015610bc7578082015181840152602081019050610bac565b50505050905090810190601f168015610bf45780820380516001836020036101000a031916815260200191505b5087810383528a818151815260200191508051906020019080838360005b83811015610c2d578082015181840152602081019050610c12565b50505050905090810190601f168015610c5a5780820380516001836020036101000a031916815260200191505b50878103825289818151815260200191508051906020019080838360005b83811015610c93578082015181840152602081019050610c78565b50505050905090810190601f168015610cc05780820380516001836020036101000a031916815260200191505b509e50505050505050505050505050505060405180910390f35b348015610ce657600080fd5b50610e13600480360381019080803590602001908201803590602001908080601f0160208091040260200160405190810160405280939291908181526020018383808284378201915050505050509192919290803590602001908201803590602001908080601f0160208091040260200160405190810160405280939291908181526020018383808284378201915050505050509192919290803590602001908201803590602001908080601f0160208091040260200160405190810160405280939291908181526020018383808284378201915050505050509192919290803590602001908201803590602001908080601f0160208091040260200160405190810160405280939291908181526020018383808284378201915050505050509192919290505050612966565b005b348015610e2157600080fd5b50610e4060048036038101908080359060200190929190505050612aa7565b6040518080602001828103825283818151815260200191508051906020019080838360005b83811015610e80578082015181840152602081019050610e65565b50505050905090810190601f168015610ead5780820380516001836020036101000a031916815260200191505b509250505060405180910390f35b348015610ec757600080fd5b50610ed0612b69565b6040518082815260200191505060405180910390f35b348015610ef257600080fd5b5061101f600480360381019080803590602001908201803590602001908080601f0160208091040260200160405190810160405280939291908181526020018383808284378201915050505050509192919290803590602001908201803590602001908080601f0160208091040260200160405190810160405280939291908181526020018383808284378201915050505050509192919290803590602001908201803590602001908080601f0160208091040260200160405190810160405280939291908181526020018383808284378201915050505050509192919290803590602001908201803590602001908080601f0160208091040260200160405190810160405280939291908181526020018383808284378201915050505050509192919290505050612b6f565b005b34801561102d57600080fd5b50611036612cb0565b6040518082815260200191505060405180910390f35b34801561105857600080fd5b5061107760048036038101908080359060200190929190505050612cb6565b6040518080602001868152602001858152602001848152602001838152602001828103825287818151815260200191508051906020019080838360005b838110156110cf5780820151818401526020810190506110b4565b50505050905090810190601f1680156110fc5780820380516001836020036101000a031916815260200191505b50965050505050505060405180910390f35b34801561111a57600080fd5b5061128d600480360381019080803590602001908201803590602001908080601f0160208091040260200160405190810160405280939291908181526020018383808284378201915050505050509192919290803590602001908201803590602001908080601f0160208091040260200160405190810160405280939291908181526020018383808284378201915050505050509192919290803590602001908201803590602001908080601f0160208091040260200160405190810160405280939291908181526020018383808284378201915050505050509192919290803590602001908201803590602001908080601f0160208091040260200160405190810160405280939291908181526020018383808284378201915050505050509192919290803590602001908201803590602001908080601f0160208091040260200160405190810160405280939291908181526020018383808284378201915050505050509192919290505050612d93565b005b34801561129b57600080fd5b506112a4612ef8565b6040518082815260200191505060405180910390f35b3480156112c657600080fd5b506112e560048036038101908080359060200190929190505050612efe565b60405180806020018673ffffffffffffffffffffffffffffffffffffffff1673ffffffffffffffffffffffffffffffffffffffff16815260200180602001806020018060200185810385528a818151815260200191508051906020019080838360005b83811015611363578082015181840152602081019050611348565b50505050905090810190601f1680156113905780820380516001836020036101000a031916815260200191505b50858103845288818151815260200191508051906020019080838360005b838110156113c95780820151818401526020810190506113ae565b50505050905090810190601f1680156113f65780820380516001836020036101000a031916815260200191505b50858103835287818151815260200191508051906020019080838360005b8381101561142f578082015181840152602081019050611414565b50505050905090810190601f16801561145c5780820380516001836020036101000a031916815260200191505b50858103825286818151815260200191508051906020019080838360005b8381101561149557808201518184015260208101905061147a565b50505050905090810190601f1680156114c25780820380516001836020036101000a031916815260200191505b50995050505050505050505060405180910390f35b3480156114e357600080fd5b50611502600480360381019080803590602001909291905050506131c3565b6040518084815260200183815260200180602001828103825283818151815260200191508051906020019080838360005b8381101561154e578082015181840152602081019050611533565b50505050905090810190601f16801561157b5780820380516001836020036101000a031916815260200191505b5094505050505060405180910390f35b34801561159757600080fd5b506115b660048036038101908080359060200190929190505050613294565b6040518080602001828103825283818151815260200191508051906020019080838360005b838110156115f65780820151818401526020810190506115db565b50505050905090810190601f1680156116235780820380516001836020036101000a031916815260200191505b509250505060405180910390f35b34801561163d57600080fd5b50611672600480360381019080803573ffffffffffffffffffffffffffffffffffffffff169060200190929190505050613356565b005b34801561168057600080fd5b5061169f60048036038101908080359060200190929190505050613404565b60405180806020018673ffffffffffffffffffffffffffffffffffffffff1673ffffffffffffffffffffffffffffffffffffffff16815260200180602001806020018060200185810385528a818151815260200191508051906020019080838360005b8381101561171d578082015181840152602081019050611702565b50505050905090810190601f16801561174a5780820380516001836020036101000a031916815260200191505b50858103845288818151815260200191508051906020019080838360005b83811015611783578082015181840152602081019050611768565b50505050905090810190601f1680156117b05780820380516001836020036101000a031916815260200191505b50858103835287818151815260200191508051906020019080838360005b838110156117e95780820151818401526020810190506117ce565b50505050905090810190601f1680156118165780820380516001836020036101000a031916815260200191505b50858103825286818151815260200191508051906020019080838360005b8381101561184f578082015181840152602081019050611834565b50505050905090810190601f16801561187c5780820380516001836020036101000a031916815260200191505b50995050505050505050505060405180910390f35b34801561189d57600080fd5b50611a56600480360381019080803590602001908201803590602001908080601f0160208091040260200160405190810160405280939291908181526020018383808284378201915050505050509192919290803590602001908201803590602001908080601f0160208091040260200160405190810160405280939291908181526020018383808284378201915050505050509192919290803590602001908201803590602001908080601f0160208091040260200160405190810160405280939291908181526020018383808284378201915050505050509192919290803590602001908201803590602001908080601f0160208091040260200160405190810160405280939291908181526020018383808284378201915050505050509192919290803590602001908201803590602001908080601f0160208091040260200160405190810160405280939291908181526020018383808284378201915050505050509192919290803590602001908201803590602001908080601f01602080910402602001604051908101604052809392919081815260200183838082843782019150505050505091929192905050506136c9565b6040518082815260200191505060405180910390f35b600b60a0604051908101604052808681526020013373ffffffffffffffffffffffffffffffffffffffff16815260200185815260200184815260200183815250908060018154018082558091505090600182039060005260206000209060050201600090919290919091506000820151816000019080519060200190611af3929190613983565b5060208201518160010160006101000a81548173ffffffffffffffffffffffffffffffffffffffff021916908373ffffffffffffffffffffffffffffffffffffffff1602179055506040820151816002019080519060200190611b57929190613983565b506060820151816003019080519060200190611b74929190613983565b506080820151816004019080519060200190611b91929190613983565b5050505060046000815480929190600101919050555050505050565b60075481565b60025481565b60065481565b6060600c82815481101515611bd057fe5b90600052602060002090600502016002018054600181600116156101000203166002900480601f016020809104026020016040519081016040528092919081815260200182805460018160011615610100020316600290048015611c755780601f10611c4a57610100808354040283529160200191611c75565b820191906000526020600020905b815481529060010190602001808311611c5857829003601f168201915b50505050509050919050565b600b81815481101515611c9057fe5b9060005260206000209060050201600091509050806000018054600181600116156101000203166002900480601f016020809104026020016040519081016040528092919081815260200182805460018160011615610100020316600290048015611d3c5780601f10611d1157610100808354040283529160200191611d3c565b820191906000526020600020905b815481529060010190602001808311611d1f57829003601f168201915b5050505050908060010160009054906101000a900473ffffffffffffffffffffffffffffffffffffffff1690806002018054600181600116156101000203166002900480601f016020809104026020016040519081016040528092919081815260200182805460018160011615610100020316600290048015611e005780601f10611dd557610100808354040283529160200191611e00565b820191906000526020600020905b815481529060010190602001808311611de357829003601f168201915b505050505090806003018054600181600116156101000203166002900480601f016020809104026020016040519081016040528092919081815260200182805460018160011615610100020316600290048015611e9e5780601f10611e7357610100808354040283529160200191611e9e565b820191906000526020600020905b815481529060010190602001808311611e8157829003601f168201915b505050505090806004018054600181600116156101000203166002900480601f016020809104026020016040519081016040528092919081815260200182805460018160011615610100020316600290048015611f3c5780601f10611f1157610100808354040283529160200191611f3c565b820191906000526020600020905b815481529060010190602001808311611f1f57829003601f168201915b5050505050905085565b600981815481101515611f5557fe5b9060005260206000209060060201600091509050806000018054600181600116156101000203166002900480601f0160208091040260200160405190810160405280929190818152602001828054600181600116156101000203166002900480156120015780601f10611fd657610100808354040283529160200191612001565b820191906000526020600020905b815481529060010190602001808311611fe457829003601f168201915b5050505050908060010160009054906101000a900473ffffffffffffffffffffffffffffffffffffffff1690806002018054600181600116156101000203166002900480601f0160208091040260200160405190810160405280929190818152602001828054600181600116156101000203166002900480156120c55780601f1061209a576101008083540402835291602001916120c5565b820191906000526020600020905b8154815290600101906020018083116120a857829003601f168201915b505050505090806003018054600181600116156101000203166002900480601f0160208091040260200160405190810160405280929190818152602001828054600181600116156101000203166002900480156121635780601f1061213857610100808354040283529160200191612163565b820191906000526020600020905b81548152906001019060200180831161214657829003601f168201915b505050505090806004018054600181600116156101000203166002900480601f0160208091040260200160405190810160405280929190818152602001828054600181600116156101000203166002900480156122015780601f106121d657610100808354040283529160200191612201565b820191906000526020600020905b8154815290600101906020018083116121e457829003601f168201915b505050505090806005018054600181600116156101000203166002900480601f01602080910402602001604051908101604052809291908181526020018280546001816001161561010002031660029004801561229f5780601f106122745761010080835404028352916020019161229f565b820191906000526020600020905b81548152906001019060200180831161228257829003601f168201915b5050505050905086565b6122b16124fb565b151561234b576040517f08c379a000000000000000000000000000000000000000000000000000000000815260040180806020018281038252602a8152602001807f43616e206f6e6c792062652065786563757465642062792074686520676f766581526020017f726e696e6720626f64790000000000000000000000000000000000000000000081525060400191505060405180910390fd5b600073ffffffffffffffffffffffffffffffffffffffff166000809054906101000a900473ffffffffffffffffffffffffffffffffffffffff1673ffffffffffffffffffffffffffffffffffffffff167f8be0079c531659141344cd1fd0a4f28419497f9722a3daafe3b4186f6b6457e060405160405180910390a360008060006101000a81548173ffffffffffffffffffffffffffffffffffffffff021916908373ffffffffffffffffffffffffffffffffffffffff160217905550565b60015481565b606060098281548110151561242157fe5b90600052602060002090600602016002018054600181600116156101000203166002900480601f0160208091040260200160405190810160405280929190818152602001828054600181600116156101000203166002900480156124c65780601f1061249b576101008083540402835291602001916124c6565b820191906000526020600020905b8154815290600101906020018083116124a957829003601f168201915b50505050509050919050565b60008060009054906101000a900473ffffffffffffffffffffffffffffffffffffffff16905090565b60008060009054906101000a900473ffffffffffffffffffffffffffffffffffffffff1673ffffffffffffffffffffffffffffffffffffffff163373ffffffffffffffffffffffffffffffffffffffff1614905090565b60088181548110151561256157fe5b9060005260206000209060080201600091509050806000018054600181600116156101000203166002900480601f01602080910402602001604051908101604052809291908181526020018280546001816001161561010002031660029004801561260d5780601f106125e25761010080835404028352916020019161260d565b820191906000526020600020905b8154815290600101906020018083116125f057829003601f168201915b5050505050908060010160009054906101000a900473ffffffffffffffffffffffffffffffffffffffff1690806002018054600181600116156101000203166002900480601f0160208091040260200160405190810160405280929190818152602001828054600181600116156101000203166002900480156126d15780601f106126a6576101008083540402835291602001916126d1565b820191906000526020600020905b8154815290600101906020018083116126b457829003601f168201915b505050505090806003018054600181600116156101000203166002900480601f01602080910402602001604051908101604052809291908181526020018280546001816001161561010002031660029004801561276f5780601f106127445761010080835404028352916020019161276f565b820191906000526020600020905b81548152906001019060200180831161275257829003601f168201915b505050505090806004018054600181600116156101000203166002900480601f01602080910402602001604051908101604052809291908181526020018280546001816001161561010002031660029004801561280d5780601f106127e25761010080835404028352916020019161280d565b820191906000526020600020905b8154815290600101906020018083116127f057829003601f168201915b505050505090806005018054600181600116156101000203166002900480601f0160208091040260200160405190810160405280929190818152602001828054600181600116156101000203166002900480156128ab5780601f10612880576101008083540402835291602001916128ab565b820191906000526020600020905b81548152906001019060200180831161288e57829003601f168201915b505050505090806006018054600181600116156101000203166002900480601f0160208091040260200160405190810160405280929190818152602001828054600181600116156101000203166002900480156129495780601f1061291e57610100808354040283529160200191612949565b820191906000526020600020905b81548152906001019060200180831161292c57829003601f168201915b5050505050908060070160009054906101000a900460ff16905088565b600a60a0604051908101604052808681526020013373ffffffffffffffffffffffffffffffffffffffff168152602001858152602001848152602001838152509080600181540180825580915050906001820390600052602060002090600502016000909192909190915060008201518160000190805190602001906129ed929190613983565b5060208201518160010160006101000a81548173ffffffffffffffffffffffffffffffffffffffff021916908373ffffffffffffffffffffffffffffffffffffffff1602179055506040820151816002019080519060200190612a51929190613983565b506060820151816003019080519060200190612a6e929190613983565b506080820151816004019080519060200190612a8b929190613983565b5050505060036000815480929190600101919050555050505050565b6060600b82815481101515612ab857fe5b90600052602060002090600502016002018054600181600116156101000203166002900480601f016020809104026020016040519081016040528092919081815260200182805460018160011615610100020316600290048015612b5d5780601f10612b3257610100808354040283529160200191612b5d565b820191906000526020600020905b815481529060010190602001808311612b4057829003601f168201915b50505050509050919050565b60045481565b600c60a0604051908101604052808681526020013373ffffffffffffffffffffffffffffffffffffffff16815260200185815260200184815260200183815250908060018154018082558091505090600182039060005260206000209060050201600090919290919091506000820151816000019080519060200190612bf6929190613983565b5060208201518160010160006101000a81548173ffffffffffffffffffffffffffffffffffffffff021916908373ffffffffffffffffffffffffffffffffffffffff1602179055506040820151816002019080519060200190612c5a929190613983565b506060820151816003019080519060200190612c77929190613983565b506080820151816004019080519060200190612c94929190613983565b5050505060056000815480929190600101919050555050505050565b60055481565b600d81815481101515612cc557fe5b9060005260206000209060050201600091509050806000018054600181600116156101000203166002900480601f016020809104026020016040519081016040528092919081815260200182805460018160011615610100020316600290048015612d715780601f10612d4657610100808354040283529160200191612d71565b820191906000526020600020905b815481529060010190602001808311612d5457829003601f168201915b5050505050908060010154908060020154908060030154908060040154905085565b600960c0604051908101604052808781526020013373ffffffffffffffffffffffffffffffffffffffff16815260200186815260200185815260200184815260200183815250908060018154018082558091505090600182039060005260206000209060060201600090919290919091506000820151816000019080519060200190612e20929190613983565b5060208201518160010160006101000a81548173ffffffffffffffffffffffffffffffffffffffff021916908373ffffffffffffffffffffffffffffffffffffffff1602179055506040820151816002019080519060200190612e84929190613983565b506060820151816003019080519060200190612ea1929190613983565b506080820151816004019080519060200190612ebe929190613983565b5060a0820151816005019080519060200190612edb929190613983565b505050506002600081548092919060010191905055505050505050565b60035481565b600a81815481101515612f0d57fe5b9060005260206000209060050201600091509050806000018054600181600116156101000203166002900480601f016020809104026020016040519081016040528092919081815260200182805460018160011615610100020316600290048015612fb95780601f10612f8e57610100808354040283529160200191612fb9565b820191906000526020600020905b815481529060010190602001808311612f9c57829003601f168201915b5050505050908060010160009054906101000a900473ffffffffffffffffffffffffffffffffffffffff1690806002018054600181600116156101000203166002900480601f01602080910402602001604051908101604052809291908181526020018280546001816001161561010002031660029004801561307d5780601f106130525761010080835404028352916020019161307d565b820191906000526020600020905b81548152906001019060200180831161306057829003601f168201915b505050505090806003018054600181600116156101000203166002900480601f01602080910402602001604051908101604052809291908181526020018280546001816001161561010002031660029004801561311b5780601f106130f05761010080835404028352916020019161311b565b820191906000526020600020905b8154815290600101906020018083116130fe57829003601f168201915b505050505090806004018054600181600116156101000203166002900480601f0160208091040260200160405190810160405280929190818152602001828054600181600116156101000203166002900480156131b95780601f1061318e576101008083540402835291602001916131b9565b820191906000526020600020905b81548152906001019060200180831161319c57829003601f168201915b5050505050905085565b600e818154811015156131d257fe5b9060005260206000209060030201600091509050806000015490806001015490806002018054600181600116156101000203166002900480601f01602080910402602001604051908101604052809291908181526020018280546001816001161561010002031660029004801561328a5780601f1061325f5761010080835404028352916020019161328a565b820191906000526020600020905b81548152906001019060200180831161326d57829003601f168201915b5050505050905083565b6060600a828154811015156132a557fe5b90600052602060002090600502016002018054600181600116156101000203166002900480601f01602080910402602001604051908101604052809291908181526020018280546001816001161561010002031660029004801561334a5780601f1061331f5761010080835404028352916020019161334a565b820191906000526020600020905b81548152906001019060200180831161332d57829003601f168201915b50505050509050919050565b61335e6124fb565b15156133f8576040517f08c379a000000000000000000000000000000000000000000000000000000000815260040180806020018281038252602a8152602001807f43616e206f6e6c792062652065786563757465642062792074686520676f766581526020017f726e696e6720626f64790000000000000000000000000000000000000000000081525060400191505060405180910390fd5b61340181613889565b50565b600c8181548110151561341357fe5b9060005260206000209060050201600091509050806000018054600181600116156101000203166002900480601f0160208091040260200160405190810160405280929190818152602001828054600181600116156101000203166002900480156134bf5780601f10613494576101008083540402835291602001916134bf565b820191906000526020600020905b8154815290600101906020018083116134a257829003601f168201915b5050505050908060010160009054906101000a900473ffffffffffffffffffffffffffffffffffffffff1690806002018054600181600116156101000203166002900480601f0160208091040260200160405190810160405280929190818152602001828054600181600116156101000203166002900480156135835780601f1061355857610100808354040283529160200191613583565b820191906000526020600020905b81548152906001019060200180831161356657829003601f168201915b505050505090806003018054600181600116156101000203166002900480601f0160208091040260200160405190810160405280929190818152602001828054600181600116156101000203166002900480156136215780601f106135f657610100808354040283529160200191613621565b820191906000526020600020905b81548152906001019060200180831161360457829003601f168201915b505050505090806004018054600181600116156101000203166002900480601f0160208091040260200160405190810160405280929190818152602001828054600181600116156101000203166002900480156136bf5780601f10613694576101008083540402835291602001916136bf565b820191906000526020600020905b8154815290600101906020018083116136a257829003601f168201915b5050505050905085565b60008060016008610100604051908101604052808b81526020013373ffffffffffffffffffffffffffffffffffffffff1681526020018a81526020018981526020018881526020018781526020018681526020016001151581525090806001815401808255809150509060018203906000526020600020906008020160009091929091909150600082015181600001908051906020019061376b929190613983565b5060208201518160010160006101000a81548173ffffffffffffffffffffffffffffffffffffffff021916908373ffffffffffffffffffffffffffffffffffffffff16021790555060408201518160020190805190602001906137cf929190613983565b5060608201518160030190805190602001906137ec929190613983565b506080820151816004019080519060200190613809929190613983565b5060a0820151816005019080519060200190613826929190613983565b5060c0820151816006019080519060200190613843929190613983565b5060e08201518160070160006101000a81548160ff0219169083151502179055505050039050600160008154809291906001019190505550809150509695505050505050565b600073ffffffffffffffffffffffffffffffffffffffff168173ffffffffffffffffffffffffffffffffffffffff16141515156138c557600080fd5b8073ffffffffffffffffffffffffffffffffffffffff166000809054906101000a900473ffffffffffffffffffffffffffffffffffffffff1673ffffffffffffffffffffffffffffffffffffffff167f8be0079c531659141344cd1fd0a4f28419497f9722a3daafe3b4186f6b6457e060405160405180910390a3806000806101000a81548173ffffffffffffffffffffffffffffffffffffffff021916908373ffffffffffffffffffffffffffffffffffffffff16021790555050565b828054600181600116156101000203166002900490600052602060002090601f016020900481019282601f106139c457805160ff19168380011785556139f2565b828001600101855582156139f2579182015b828111156139f15782518255916020019190600101906139d6565b5b5090506139ff9190613a03565b5090565b613a2591905b80821115613a21576000816000905550600101613a09565b5090565b905600a165627a7a7230582040c861ca7e288dc190277711d2fbe543e16d9002fd4d8adfe81f50289aecf2e00029",
  "source": "pragma solidity ^0.4.23;\r\n//pragma experimental ABIEncoderV2;\r\n\r\nimport \"./Ownable.sol\";\r\nimport \"./SafeMath.sol\";\r\n\r\ncontract Factory is Ownable {\r\n    using SafeMath for uint256;\r\n    using SafeMath for uint16;\r\n    using SafeMath for uint8;\r\n\r\n    //    TODO\r\n    event NewDoctor();\r\n    event NewChemist();\r\n    event NewLab();\r\n    event NewPathology();\r\n\r\n    struct Patient {\r\n        string name;\r\n        address add;\r\n        string email;\r\n        string driveURL;\r\n        string presURL;\r\n        string infoURL;\r\n        string reportsURL;\r\n        bool presUsed;\r\n    }\r\n\r\n    struct Doctor {\r\n        string name;\r\n        address add;\r\n        string email;\r\n        string license;\r\n        string physicalAdd;\r\n        string specialization;\r\n    }\r\n\r\n    struct Chemist {\r\n        string name;\r\n        address add;\r\n        string email;\r\n        string license;\r\n        string physicalAdd;\r\n    }\r\n\r\n    struct Lab {\r\n        string name;\r\n        address add;\r\n        string email;\r\n        string license;\r\n        string details;\r\n    }\r\n\r\n    struct Pathology {\r\n        string name;\r\n        address add;\r\n        string email;\r\n        string license;\r\n        string physicalAdd;\r\n    }\r\n\r\n    struct DataRequirement {\r\n        string message;\r\n        uint labId;\r\n        uint bountyForEach;\r\n        uint number;\r\n        uint gotData;\r\n    }\r\n\r\n    struct Data {\r\n        uint requirementId;\r\n        uint patientId;\r\n        string url;\r\n    }\r\n\r\n    uint public noOfPatients = 0;\r\n    uint public noOfDoctors = 0;\r\n    uint public noOfChemists = 0;\r\n    uint public noOfLabs = 0;\r\n    uint public noOfPathologies = 0;\r\n    uint public noOfData = 0;\r\n    uint public noOfDataRequirements = 0;\r\n\r\n    Patient[] public patients;\r\n    Doctor[] public doctors;\r\n    Chemist[] public chemists;\r\n    Lab[] public labs;\r\n    Pathology[] public pathologies;\r\n    DataRequirement[] public dataRequirements;\r\n    Data[] public data;\r\n\r\n    function newPatient(string _name, string _email, string _driveURL, string _presURL, string _infoURL, string _reportsURL) public returns(uint)\r\n    {\r\n        //        TODO FW: msg.sender must not already registered\r\n\t\tuint patientId = patients.push(Patient(_name, msg.sender, _email, _driveURL, _presURL, _infoURL, _reportsURL, true)) - 1;\r\n        noOfPatients++;\r\n\t\treturn patientId;\r\n    }\r\n\r\n    function newDoctor(string _name, string _email, string _license, string _physicalAdd, string _specialization) public\r\n    {\r\n        //        TODO FW: msg.sender must not already registered\r\n        doctors.push(Doctor(_name, msg.sender, _email, _license, _physicalAdd, _specialization));\r\n        noOfDoctors++;\r\n    }\r\n\r\n    function newChemist(string _name, string _email, string _license, string _physicalAdd) public\r\n    {\r\n        //        TODO FW: msg.sender must not already registered\r\n        chemists.push(Chemist(_name, msg.sender, _email, _license, _physicalAdd));\r\n        noOfChemists++;\r\n    }\r\n\r\n    function newLab(string _name, string _email, string _license, string _details) public\r\n    {\r\n        //        TODO FW: msg.sender must not already registered\r\n        labs.push(Lab(_name, msg.sender, _email, _license, _details));\r\n        noOfLabs++;\r\n    }\r\n\r\n    function newPathology(string _name, string _email, string _license, string _physicalAdd) public\r\n    {\r\n        //        TODO FW: msg.sender must not already registered\r\n        pathologies.push(Pathology(_name, msg.sender, _email, _license, _physicalAdd));\r\n        noOfPathologies++;\r\n    }\r\n\tfunction getChemistEmail(uint chemistId) public view returns(string)\r\n\t{\r\n\t\treturn chemists[chemistId].email;\r\n\t}\r\n\tfunction getDoctorEmail(uint doctorId) public view returns(string)\r\n\t{\r\n\t\treturn doctors[doctorId].email;\r\n\t}\r\n\tfunction getPathologyEmail(uint pathologyId) public view returns(string)\r\n\t{\r\n\t\treturn pathologies[pathologyId].email;\r\n\t}\r\n\tfunction getLabEmail(uint labId) public view returns(string)\r\n\t{\r\n\t\treturn labs[labId].email;\r\n\t}\r\n}\r\n",
  "sourcePath": "D:\\WellCareChain\\contracts\\Factory.sol",
  "compiler": {
    "name": "solc",
    "version": "0.4.25+commit.59dbf8f1.Emscripten.clang"
  },
  "schemaVersion": "3.0.0",
  "updatedAt": "2019-01-05T15:44:54.137Z",
  "devdoc": {
    "methods": {
      "isOwner()": {
        "return": "true if `msg.sender` is the owner of the contract.\r"
      },
      "owner()": {
        "return": "the address of the owner.\r"
      },
      "renounceOwnership()": {
        "details": "Allows the current owner to relinquish control of the contract.\r"
      },
      "transferOwnership(address)": {
        "details": "Allows the current owner to transfer control of the contract to a newOwner.\r",
        "params": {
          "newOwner": "The address to transfer ownership to.\r"
        }
      }
    }
  },
  "userdoc": {
    "methods": {
      "renounceOwnership()": {
        "notice": "Renouncing to ownership will leave the contract without an owner.\r It will not be possible to call the functions with the `onlyOwner`\r modifier anymore.\r"
      }
    }
  }
}