{
  "contractName": "Factory",
  "abi": [
    {
      "constant": true,
      "inputs": [],
      "name": "noOfDataRequirements",
      "outputs": [
        {
          "name": "",
          "type": "uint256"
        }
      ],
      "payable": false,
      "stateMutability": "view",
      "type": "function"
    },
    {
      "constant": true,
      "inputs": [],
      "name": "noOfDoctors",
      "outputs": [
        {
          "name": "",
          "type": "uint256"
        }
      ],
      "payable": false,
      "stateMutability": "view",
      "type": "function"
    },
    {
      "constant": true,
      "inputs": [],
      "name": "noOfData",
      "outputs": [
        {
          "name": "",
          "type": "uint256"
        }
      ],
      "payable": false,
      "stateMutability": "view",
      "type": "function"
    },
    {
      "constant": true,
      "inputs": [
        {
          "name": "",
          "type": "uint256"
        }
      ],
      "name": "labs",
      "outputs": [
        {
          "name": "name",
          "type": "string"
        },
        {
          "name": "add",
          "type": "address"
        },
        {
          "name": "email",
          "type": "string"
        },
        {
          "name": "license",
          "type": "string"
        },
        {
          "name": "details",
          "type": "string"
        }
      ],
      "payable": false,
      "stateMutability": "view",
      "type": "function"
    },
    {
      "constant": true,
      "inputs": [
        {
          "name": "",
          "type": "uint256"
        }
      ],
      "name": "doctors",
      "outputs": [
        {
          "name": "name",
          "type": "string"
        },
        {
          "name": "add",
          "type": "address"
        },
        {
          "name": "email",
          "type": "string"
        },
        {
          "name": "license",
          "type": "string"
        },
        {
          "name": "physicalAdd",
          "type": "string"
        },
        {
          "name": "specialization",
          "type": "string"
        }
      ],
      "payable": false,
      "stateMutability": "view",
      "type": "function"
    },
    {
      "constant": true,
      "inputs": [],
      "name": "noOfPatients",
      "outputs": [
        {
          "name": "",
          "type": "uint256"
        }
      ],
      "payable": false,
      "stateMutability": "view",
      "type": "function"
    },
    {
      "constant": true,
      "inputs": [
        {
          "name": "",
          "type": "uint256"
        }
      ],
      "name": "patients",
      "outputs": [
        {
          "name": "name",
          "type": "string"
        },
        {
          "name": "add",
          "type": "address"
        },
        {
          "name": "email",
          "type": "string"
        },
        {
          "name": "driveURL",
          "type": "string"
        },
        {
          "name": "presURL",
          "type": "string"
        },
        {
          "name": "infoURL",
          "type": "string"
        },
        {
          "name": "reportsURL",
          "type": "string"
        },
        {
          "name": "presUsed",
          "type": "bool"
        }
      ],
      "payable": false,
      "stateMutability": "view",
      "type": "function"
    },
    {
      "constant": true,
      "inputs": [],
      "name": "noOfLabs",
      "outputs": [
        {
          "name": "",
          "type": "uint256"
        }
      ],
      "payable": false,
      "stateMutability": "view",
      "type": "function"
    },
    {
      "constant": true,
      "inputs": [],
      "name": "noOfPathologies",
      "outputs": [
        {
          "name": "",
          "type": "uint256"
        }
      ],
      "payable": false,
      "stateMutability": "view",
      "type": "function"
    },
    {
      "constant": true,
      "inputs": [
        {
          "name": "",
          "type": "uint256"
        }
      ],
      "name": "dataRequirements",
      "outputs": [
        {
          "name": "message",
          "type": "string"
        },
        {
          "name": "labId",
          "type": "uint256"
        },
        {
          "name": "bountyForEach",
          "type": "uint256"
        },
        {
          "name": "number",
          "type": "uint256"
        },
        {
          "name": "gotData",
          "type": "uint256"
        }
      ],
      "payable": false,
      "stateMutability": "view",
      "type": "function"
    },
    {
      "constant": true,
      "inputs": [],
      "name": "noOfChemists",
      "outputs": [
        {
          "name": "",
          "type": "uint256"
        }
      ],
      "payable": false,
      "stateMutability": "view",
      "type": "function"
    },
    {
      "constant": true,
      "inputs": [
        {
          "name": "",
          "type": "uint256"
        }
      ],
      "name": "chemists",
      "outputs": [
        {
          "name": "name",
          "type": "string"
        },
        {
          "name": "add",
          "type": "address"
        },
        {
          "name": "email",
          "type": "string"
        },
        {
          "name": "license",
          "type": "string"
        },
        {
          "name": "physicalAdd",
          "type": "string"
        }
      ],
      "payable": false,
      "stateMutability": "view",
      "type": "function"
    },
    {
      "constant": true,
      "inputs": [
        {
          "name": "",
          "type": "uint256"
        }
      ],
      "name": "data",
      "outputs": [
        {
          "name": "requirementId",
          "type": "uint256"
        },
        {
          "name": "patientId",
          "type": "uint256"
        },
        {
          "name": "url",
          "type": "string"
        }
      ],
      "payable": false,
      "stateMutability": "view",
      "type": "function"
    },
    {
      "constant": true,
      "inputs": [
        {
          "name": "",
          "type": "uint256"
        }
      ],
      "name": "pathologies",
      "outputs": [
        {
          "name": "name",
          "type": "string"
        },
        {
          "name": "add",
          "type": "address"
        },
        {
          "name": "email",
          "type": "string"
        },
        {
          "name": "license",
          "type": "string"
        },
        {
          "name": "physicalAdd",
          "type": "string"
        }
      ],
      "payable": false,
      "stateMutability": "view",
      "type": "function"
    },
    {
      "anonymous": false,
      "inputs": [],
      "name": "NewDoctor",
      "type": "event"
    },
    {
      "anonymous": false,
      "inputs": [],
      "name": "NewChemist",
      "type": "event"
    },
    {
      "anonymous": false,
      "inputs": [],
      "name": "NewLab",
      "type": "event"
    },
    {
      "anonymous": false,
      "inputs": [],
      "name": "NewPathology",
      "type": "event"
    },
    {
      "constant": false,
      "inputs": [
        {
          "name": "_name",
          "type": "string"
        },
        {
          "name": "_email",
          "type": "string"
        },
        {
          "name": "_driveURL",
          "type": "string"
        },
        {
          "name": "_presURL",
          "type": "string"
        },
        {
          "name": "_infoURL",
          "type": "string"
        },
        {
          "name": "_reportsURL",
          "type": "string"
        }
      ],
      "name": "newPatient",
      "outputs": [
        {
          "name": "",
          "type": "uint256"
        }
      ],
      "payable": false,
      "stateMutability": "nonpayable",
      "type": "function"
    },
    {
      "constant": false,
      "inputs": [
        {
          "name": "_name",
          "type": "string"
        },
        {
          "name": "_email",
          "type": "string"
        },
        {
          "name": "_license",
          "type": "string"
        },
        {
          "name": "_physicalAdd",
          "type": "string"
        },
        {
          "name": "_specialization",
          "type": "string"
        }
      ],
      "name": "newDoctor",
      "outputs": [],
      "payable": false,
      "stateMutability": "nonpayable",
      "type": "function"
    },
    {
      "constant": false,
      "inputs": [
        {
          "name": "_name",
          "type": "string"
        },
        {
          "name": "_email",
          "type": "string"
        },
        {
          "name": "_license",
          "type": "string"
        },
        {
          "name": "_physicalAdd",
          "type": "string"
        }
      ],
      "name": "newChemist",
      "outputs": [],
      "payable": false,
      "stateMutability": "nonpayable",
      "type": "function"
    },
    {
      "constant": false,
      "inputs": [
        {
          "name": "_name",
          "type": "string"
        },
        {
          "name": "_email",
          "type": "string"
        },
        {
          "name": "_license",
          "type": "string"
        },
        {
          "name": "_details",
          "type": "string"
        }
      ],
      "name": "newLab",
      "outputs": [],
      "payable": false,
      "stateMutability": "nonpayable",
      "type": "function"
    },
    {
      "constant": false,
      "inputs": [
        {
          "name": "_name",
          "type": "string"
        },
        {
          "name": "_email",
          "type": "string"
        },
        {
          "name": "_license",
          "type": "string"
        },
        {
          "name": "_physicalAdd",
          "type": "string"
        }
      ],
      "name": "newPathology",
      "outputs": [],
      "payable": false,
      "stateMutability": "nonpayable",
      "type": "function"
    },
    {
      "constant": true,
      "inputs": [
        {
          "name": "chemistId",
          "type": "uint256"
        }
      ],
      "name": "getChemistEmail",
      "outputs": [
        {
          "name": "",
          "type": "string"
        }
      ],
      "payable": false,
      "stateMutability": "view",
      "type": "function"
    },
    {
      "constant": true,
      "inputs": [
        {
          "name": "doctorId",
          "type": "uint256"
        }
      ],
      "name": "getDoctorEmail",
      "outputs": [
        {
          "name": "",
          "type": "string"
        }
      ],
      "payable": false,
      "stateMutability": "view",
      "type": "function"
    },
    {
      "constant": true,
      "inputs": [
        {
          "name": "pathologyId",
          "type": "uint256"
        }
      ],
      "name": "getPathologyEmail",
      "outputs": [
        {
          "name": "",
          "type": "string"
        }
      ],
      "payable": false,
      "stateMutability": "view",
      "type": "function"
    },
    {
      "constant": true,
      "inputs": [
        {
          "name": "labId",
          "type": "uint256"
        }
      ],
      "name": "getLabEmail",
      "outputs": [
        {
          "name": "",
          "type": "string"
        }
      ],
      "payable": false,
      "stateMutability": "view",
      "type": "function"
    }
  ],
  "bytecode": "0x60806040526000805560006001556000600255600060035560006004556000600555600060065534801561003257600080fd5b506135be806100426000396000f300608060405260043610610133576000357c0100000000000000000000000000000000000000000000000000000000900463ffffffff168063025cccea146101385780630ba513eb146102735780632650afc01461029e57806337dbc670146102c9578063488a216f146102f45780634bb7c6441461039a5780636efb1b84146105b757806384b828ba146108405780638771883e1461086b57806393119a83146109115780639be23de614610c115780639d761aa014610d4c578063a1816cc514610df2578063abc21a0114610e1d578063b0a7a3b614610f58578063cf43684714610f83578063dc30b57014611045578063dfbce014146111c6578063e81dbf93146111f1578063f0ba84401461140e578063f2907a88146114c2578063f7b8be9614611568578063fa4afb3914611785575b600080fd5b34801561014457600080fd5b50610271600480360381019080803590602001908201803590602001908080601f0160208091040260200160405190810160405280939291908181526020018383808284378201915050505050509192919290803590602001908201803590602001908080601f0160208091040260200160405190810160405280939291908181526020018383808284378201915050505050509192919290803590602001908201803590602001908080601f0160208091040260200160405190810160405280939291908181526020018383808284378201915050505050509192919290803590602001908201803590602001908080601f0160208091040260200160405190810160405280939291908181526020018383808284378201915050505050509192919290505050611960565b005b34801561027f57600080fd5b50610288611aa1565b6040518082815260200191505060405180910390f35b3480156102aa57600080fd5b506102b3611aa7565b6040518082815260200191505060405180910390f35b3480156102d557600080fd5b506102de611aad565b6040518082815260200191505060405180910390f35b34801561030057600080fd5b5061031f60048036038101908080359060200190929190505050611ab3565b6040518080602001828103825283818151815260200191508051906020019080838360005b8381101561035f578082015181840152602081019050610344565b50505050905090810190601f16801561038c5780820380516001836020036101000a031916815260200191505b509250505060405180910390f35b3480156103a657600080fd5b506103c560048036038101908080359060200190929190505050611b75565b60405180806020018673ffffffffffffffffffffffffffffffffffffffff1673ffffffffffffffffffffffffffffffffffffffff16815260200180602001806020018060200185810385528a818151815260200191508051906020019080838360005b83811015610443578082015181840152602081019050610428565b50505050905090810190601f1680156104705780820380516001836020036101000a031916815260200191505b50858103845288818151815260200191508051906020019080838360005b838110156104a957808201518184015260208101905061048e565b50505050905090810190601f1680156104d65780820380516001836020036101000a031916815260200191505b50858103835287818151815260200191508051906020019080838360005b8381101561050f5780820151818401526020810190506104f4565b50505050905090810190601f16801561053c5780820380516001836020036101000a031916815260200191505b50858103825286818151815260200191508051906020019080838360005b8381101561057557808201518184015260208101905061055a565b50505050905090810190601f1680156105a25780820380516001836020036101000a031916815260200191505b50995050505050505050505060405180910390f35b3480156105c357600080fd5b506105e260048036038101908080359060200190929190505050611e3a565b60405180806020018773ffffffffffffffffffffffffffffffffffffffff1673ffffffffffffffffffffffffffffffffffffffff1681526020018060200180602001806020018060200186810386528c818151815260200191508051906020019080838360005b83811015610664578082015181840152602081019050610649565b50505050905090810190601f1680156106915780820380516001836020036101000a031916815260200191505b5086810385528a818151815260200191508051906020019080838360005b838110156106ca5780820151818401526020810190506106af565b50505050905090810190601f1680156106f75780820380516001836020036101000a031916815260200191505b50868103845289818151815260200191508051906020019080838360005b83811015610730578082015181840152602081019050610715565b50505050905090810190601f16801561075d5780820380516001836020036101000a031916815260200191505b50868103835288818151815260200191508051906020019080838360005b8381101561079657808201518184015260208101905061077b565b50505050905090810190601f1680156107c35780820380516001836020036101000a031916815260200191505b50868103825287818151815260200191508051906020019080838360005b838110156107fc5780820151818401526020810190506107e1565b50505050905090810190601f1680156108295780820380516001836020036101000a031916815260200191505b509b50505050505050505050505060405180910390f35b34801561084c57600080fd5b5061085561219d565b6040518082815260200191505060405180910390f35b34801561087757600080fd5b50610896600480360381019080803590602001909291905050506121a3565b6040518080602001828103825283818151815260200191508051906020019080838360005b838110156108d65780820151818401526020810190506108bb565b50505050905090810190601f1680156109035780820380516001836020036101000a031916815260200191505b509250505060405180910390f35b34801561091d57600080fd5b5061093c60048036038101908080359060200190929190505050612265565b60405180806020018973ffffffffffffffffffffffffffffffffffffffff1673ffffffffffffffffffffffffffffffffffffffff16815260200180602001806020018060200180602001806020018815151515815260200187810387528f818151815260200191508051906020019080838360005b838110156109cc5780820151818401526020810190506109b1565b50505050905090810190601f1680156109f95780820380516001836020036101000a031916815260200191505b5087810386528d818151815260200191508051906020019080838360005b83811015610a32578082015181840152602081019050610a17565b50505050905090810190601f168015610a5f5780820380516001836020036101000a031916815260200191505b5087810385528c818151815260200191508051906020019080838360005b83811015610a98578082015181840152602081019050610a7d565b50505050905090810190601f168015610ac55780820380516001836020036101000a031916815260200191505b5087810384528b818151815260200191508051906020019080838360005b83811015610afe578082015181840152602081019050610ae3565b50505050905090810190601f168015610b2b5780820380516001836020036101000a031916815260200191505b5087810383528a818151815260200191508051906020019080838360005b83811015610b64578082015181840152602081019050610b49565b50505050905090810190601f168015610b915780820380516001836020036101000a031916815260200191505b50878103825289818151815260200191508051906020019080838360005b83811015610bca578082015181840152602081019050610baf565b50505050905090810190601f168015610bf75780820380516001836020036101000a031916815260200191505b509e50505050505050505050505050505060405180910390f35b348015610c1d57600080fd5b50610d4a600480360381019080803590602001908201803590602001908080601f0160208091040260200160405190810160405280939291908181526020018383808284378201915050505050509192919290803590602001908201803590602001908080601f0160208091040260200160405190810160405280939291908181526020018383808284378201915050505050509192919290803590602001908201803590602001908080601f0160208091040260200160405190810160405280939291908181526020018383808284378201915050505050509192919290803590602001908201803590602001908080601f0160208091040260200160405190810160405280939291908181526020018383808284378201915050505050509192919290505050612679565b005b348015610d5857600080fd5b50610d77600480360381019080803590602001909291905050506127ba565b6040518080602001828103825283818151815260200191508051906020019080838360005b83811015610db7578082015181840152602081019050610d9c565b50505050905090810190601f168015610de45780820380516001836020036101000a031916815260200191505b509250505060405180910390f35b348015610dfe57600080fd5b50610e0761287c565b6040518082815260200191505060405180910390f35b348015610e2957600080fd5b50610f56600480360381019080803590602001908201803590602001908080601f0160208091040260200160405190810160405280939291908181526020018383808284378201915050505050509192919290803590602001908201803590602001908080601f0160208091040260200160405190810160405280939291908181526020018383808284378201915050505050509192919290803590602001908201803590602001908080601f0160208091040260200160405190810160405280939291908181526020018383808284378201915050505050509192919290803590602001908201803590602001908080601f0160208091040260200160405190810160405280939291908181526020018383808284378201915050505050509192919290505050612882565b005b348015610f6457600080fd5b50610f6d6129c3565b6040518082815260200191505060405180910390f35b348015610f8f57600080fd5b50610fae600480360381019080803590602001909291905050506129c9565b6040518080602001868152602001858152602001848152602001838152602001828103825287818151815260200191508051906020019080838360005b83811015611006578082015181840152602081019050610feb565b50505050905090810190601f1680156110335780820380516001836020036101000a031916815260200191505b50965050505050505060405180910390f35b34801561105157600080fd5b506111c4600480360381019080803590602001908201803590602001908080601f0160208091040260200160405190810160405280939291908181526020018383808284378201915050505050509192919290803590602001908201803590602001908080601f0160208091040260200160405190810160405280939291908181526020018383808284378201915050505050509192919290803590602001908201803590602001908080601f0160208091040260200160405190810160405280939291908181526020018383808284378201915050505050509192919290803590602001908201803590602001908080601f0160208091040260200160405190810160405280939291908181526020018383808284378201915050505050509192919290803590602001908201803590602001908080601f0160208091040260200160405190810160405280939291908181526020018383808284378201915050505050509192919290505050612aa6565b005b3480156111d257600080fd5b506111db612c0b565b6040518082815260200191505060405180910390f35b3480156111fd57600080fd5b5061121c60048036038101908080359060200190929190505050612c11565b60405180806020018673ffffffffffffffffffffffffffffffffffffffff1673ffffffffffffffffffffffffffffffffffffffff16815260200180602001806020018060200185810385528a818151815260200191508051906020019080838360005b8381101561129a57808201518184015260208101905061127f565b50505050905090810190601f1680156112c75780820380516001836020036101000a031916815260200191505b50858103845288818151815260200191508051906020019080838360005b838110156113005780820151818401526020810190506112e5565b50505050905090810190601f16801561132d5780820380516001836020036101000a031916815260200191505b50858103835287818151815260200191508051906020019080838360005b8381101561136657808201518184015260208101905061134b565b50505050905090810190601f1680156113935780820380516001836020036101000a031916815260200191505b50858103825286818151815260200191508051906020019080838360005b838110156113cc5780820151818401526020810190506113b1565b50505050905090810190601f1680156113f95780820380516001836020036101000a031916815260200191505b50995050505050505050505060405180910390f35b34801561141a57600080fd5b5061143960048036038101908080359060200190929190505050612ed6565b6040518084815260200183815260200180602001828103825283818151815260200191508051906020019080838360005b8381101561148557808201518184015260208101905061146a565b50505050905090810190601f1680156114b25780820380516001836020036101000a031916815260200191505b5094505050505060405180910390f35b3480156114ce57600080fd5b506114ed60048036038101908080359060200190929190505050612fa7565b6040518080602001828103825283818151815260200191508051906020019080838360005b8381101561152d578082015181840152602081019050611512565b50505050905090810190601f16801561155a5780820380516001836020036101000a031916815260200191505b509250505060405180910390f35b34801561157457600080fd5b5061159360048036038101908080359060200190929190505050613069565b60405180806020018673ffffffffffffffffffffffffffffffffffffffff1673ffffffffffffffffffffffffffffffffffffffff16815260200180602001806020018060200185810385528a818151815260200191508051906020019080838360005b838110156116115780820151818401526020810190506115f6565b50505050905090810190601f16801561163e5780820380516001836020036101000a031916815260200191505b50858103845288818151815260200191508051906020019080838360005b8381101561167757808201518184015260208101905061165c565b50505050905090810190601f1680156116a45780820380516001836020036101000a031916815260200191505b50858103835287818151815260200191508051906020019080838360005b838110156116dd5780820151818401526020810190506116c2565b50505050905090810190601f16801561170a5780820380516001836020036101000a031916815260200191505b50858103825286818151815260200191508051906020019080838360005b83811015611743578082015181840152602081019050611728565b50505050905090810190601f1680156117705780820380516001836020036101000a031916815260200191505b50995050505050505050505060405180910390f35b34801561179157600080fd5b5061194a600480360381019080803590602001908201803590602001908080601f0160208091040260200160405190810160405280939291908181526020018383808284378201915050505050509192919290803590602001908201803590602001908080601f0160208091040260200160405190810160405280939291908181526020018383808284378201915050505050509192919290803590602001908201803590602001908080601f0160208091040260200160405190810160405280939291908181526020018383808284378201915050505050509192919290803590602001908201803590602001908080601f0160208091040260200160405190810160405280939291908181526020018383808284378201915050505050509192919290803590602001908201803590602001908080601f0160208091040260200160405190810160405280939291908181526020018383808284378201915050505050509192919290803590602001908201803590602001908080601f016020809104026020016040519081016040528093929190818152602001838380828437820191505050505050919291929050505061332e565b6040518082815260200191505060405180910390f35b600a60a0604051908101604052808681526020013373ffffffffffffffffffffffffffffffffffffffff168152602001858152602001848152602001838152509080600181540180825580915050906001820390600052602060002090600502016000909192909190915060008201518160000190805190602001906119e79291906134ed565b5060208201518160010160006101000a81548173ffffffffffffffffffffffffffffffffffffffff021916908373ffffffffffffffffffffffffffffffffffffffff1602179055506040820151816002019080519060200190611a4b9291906134ed565b506060820151816003019080519060200190611a689291906134ed565b506080820151816004019080519060200190611a859291906134ed565b5050505060036000815480929190600101919050555050505050565b60065481565b60015481565b60055481565b6060600b82815481101515611ac457fe5b90600052602060002090600502016002018054600181600116156101000203166002900480601f016020809104026020016040519081016040528092919081815260200182805460018160011615610100020316600290048015611b695780601f10611b3e57610100808354040283529160200191611b69565b820191906000526020600020905b815481529060010190602001808311611b4c57829003601f168201915b50505050509050919050565b600a81815481101515611b8457fe5b9060005260206000209060050201600091509050806000018054600181600116156101000203166002900480601f016020809104026020016040519081016040528092919081815260200182805460018160011615610100020316600290048015611c305780601f10611c0557610100808354040283529160200191611c30565b820191906000526020600020905b815481529060010190602001808311611c1357829003601f168201915b5050505050908060010160009054906101000a900473ffffffffffffffffffffffffffffffffffffffff1690806002018054600181600116156101000203166002900480601f016020809104026020016040519081016040528092919081815260200182805460018160011615610100020316600290048015611cf45780601f10611cc957610100808354040283529160200191611cf4565b820191906000526020600020905b815481529060010190602001808311611cd757829003601f168201915b505050505090806003018054600181600116156101000203166002900480601f016020809104026020016040519081016040528092919081815260200182805460018160011615610100020316600290048015611d925780601f10611d6757610100808354040283529160200191611d92565b820191906000526020600020905b815481529060010190602001808311611d7557829003601f168201915b505050505090806004018054600181600116156101000203166002900480601f016020809104026020016040519081016040528092919081815260200182805460018160011615610100020316600290048015611e305780601f10611e0557610100808354040283529160200191611e30565b820191906000526020600020905b815481529060010190602001808311611e1357829003601f168201915b5050505050905085565b600881815481101515611e4957fe5b9060005260206000209060060201600091509050806000018054600181600116156101000203166002900480601f016020809104026020016040519081016040528092919081815260200182805460018160011615610100020316600290048015611ef55780601f10611eca57610100808354040283529160200191611ef5565b820191906000526020600020905b815481529060010190602001808311611ed857829003601f168201915b5050505050908060010160009054906101000a900473ffffffffffffffffffffffffffffffffffffffff1690806002018054600181600116156101000203166002900480601f016020809104026020016040519081016040528092919081815260200182805460018160011615610100020316600290048015611fb95780601f10611f8e57610100808354040283529160200191611fb9565b820191906000526020600020905b815481529060010190602001808311611f9c57829003601f168201915b505050505090806003018054600181600116156101000203166002900480601f0160208091040260200160405190810160405280929190818152602001828054600181600116156101000203166002900480156120575780601f1061202c57610100808354040283529160200191612057565b820191906000526020600020905b81548152906001019060200180831161203a57829003601f168201915b505050505090806004018054600181600116156101000203166002900480601f0160208091040260200160405190810160405280929190818152602001828054600181600116156101000203166002900480156120f55780601f106120ca576101008083540402835291602001916120f5565b820191906000526020600020905b8154815290600101906020018083116120d857829003601f168201915b505050505090806005018054600181600116156101000203166002900480601f0160208091040260200160405190810160405280929190818152602001828054600181600116156101000203166002900480156121935780601f1061216857610100808354040283529160200191612193565b820191906000526020600020905b81548152906001019060200180831161217657829003601f168201915b5050505050905086565b60005481565b60606008828154811015156121b457fe5b90600052602060002090600602016002018054600181600116156101000203166002900480601f0160208091040260200160405190810160405280929190818152602001828054600181600116156101000203166002900480156122595780601f1061222e57610100808354040283529160200191612259565b820191906000526020600020905b81548152906001019060200180831161223c57829003601f168201915b50505050509050919050565b60078181548110151561227457fe5b9060005260206000209060080201600091509050806000018054600181600116156101000203166002900480601f0160208091040260200160405190810160405280929190818152602001828054600181600116156101000203166002900480156123205780601f106122f557610100808354040283529160200191612320565b820191906000526020600020905b81548152906001019060200180831161230357829003601f168201915b5050505050908060010160009054906101000a900473ffffffffffffffffffffffffffffffffffffffff1690806002018054600181600116156101000203166002900480601f0160208091040260200160405190810160405280929190818152602001828054600181600116156101000203166002900480156123e45780601f106123b9576101008083540402835291602001916123e4565b820191906000526020600020905b8154815290600101906020018083116123c757829003601f168201915b505050505090806003018054600181600116156101000203166002900480601f0160208091040260200160405190810160405280929190818152602001828054600181600116156101000203166002900480156124825780601f1061245757610100808354040283529160200191612482565b820191906000526020600020905b81548152906001019060200180831161246557829003601f168201915b505050505090806004018054600181600116156101000203166002900480601f0160208091040260200160405190810160405280929190818152602001828054600181600116156101000203166002900480156125205780601f106124f557610100808354040283529160200191612520565b820191906000526020600020905b81548152906001019060200180831161250357829003601f168201915b505050505090806005018054600181600116156101000203166002900480601f0160208091040260200160405190810160405280929190818152602001828054600181600116156101000203166002900480156125be5780601f10612593576101008083540402835291602001916125be565b820191906000526020600020905b8154815290600101906020018083116125a157829003601f168201915b505050505090806006018054600181600116156101000203166002900480601f01602080910402602001604051908101604052809291908181526020018280546001816001161561010002031660029004801561265c5780601f106126315761010080835404028352916020019161265c565b820191906000526020600020905b81548152906001019060200180831161263f57829003601f168201915b5050505050908060070160009054906101000a900460ff16905088565b600960a0604051908101604052808681526020013373ffffffffffffffffffffffffffffffffffffffff168152602001858152602001848152602001838152509080600181540180825580915050906001820390600052602060002090600502016000909192909190915060008201518160000190805190602001906127009291906134ed565b5060208201518160010160006101000a81548173ffffffffffffffffffffffffffffffffffffffff021916908373ffffffffffffffffffffffffffffffffffffffff16021790555060408201518160020190805190602001906127649291906134ed565b5060608201518160030190805190602001906127819291906134ed565b50608082015181600401908051906020019061279e9291906134ed565b5050505060026000815480929190600101919050555050505050565b6060600a828154811015156127cb57fe5b90600052602060002090600502016002018054600181600116156101000203166002900480601f0160208091040260200160405190810160405280929190818152602001828054600181600116156101000203166002900480156128705780601f1061284557610100808354040283529160200191612870565b820191906000526020600020905b81548152906001019060200180831161285357829003601f168201915b50505050509050919050565b60035481565b600b60a0604051908101604052808681526020013373ffffffffffffffffffffffffffffffffffffffff168152602001858152602001848152602001838152509080600181540180825580915050906001820390600052602060002090600502016000909192909190915060008201518160000190805190602001906129099291906134ed565b5060208201518160010160006101000a81548173ffffffffffffffffffffffffffffffffffffffff021916908373ffffffffffffffffffffffffffffffffffffffff160217905550604082015181600201908051906020019061296d9291906134ed565b50606082015181600301908051906020019061298a9291906134ed565b5060808201518160040190805190602001906129a79291906134ed565b5050505060046000815480929190600101919050555050505050565b60045481565b600c818154811015156129d857fe5b9060005260206000209060050201600091509050806000018054600181600116156101000203166002900480601f016020809104026020016040519081016040528092919081815260200182805460018160011615610100020316600290048015612a845780601f10612a5957610100808354040283529160200191612a84565b820191906000526020600020905b815481529060010190602001808311612a6757829003601f168201915b5050505050908060010154908060020154908060030154908060040154905085565b600860c0604051908101604052808781526020013373ffffffffffffffffffffffffffffffffffffffff16815260200186815260200185815260200184815260200183815250908060018154018082558091505090600182039060005260206000209060060201600090919290919091506000820151816000019080519060200190612b339291906134ed565b5060208201518160010160006101000a81548173ffffffffffffffffffffffffffffffffffffffff021916908373ffffffffffffffffffffffffffffffffffffffff1602179055506040820151816002019080519060200190612b979291906134ed565b506060820151816003019080519060200190612bb49291906134ed565b506080820151816004019080519060200190612bd19291906134ed565b5060a0820151816005019080519060200190612bee9291906134ed565b505050506001600081548092919060010191905055505050505050565b60025481565b600981815481101515612c2057fe5b9060005260206000209060050201600091509050806000018054600181600116156101000203166002900480601f016020809104026020016040519081016040528092919081815260200182805460018160011615610100020316600290048015612ccc5780601f10612ca157610100808354040283529160200191612ccc565b820191906000526020600020905b815481529060010190602001808311612caf57829003601f168201915b5050505050908060010160009054906101000a900473ffffffffffffffffffffffffffffffffffffffff1690806002018054600181600116156101000203166002900480601f016020809104026020016040519081016040528092919081815260200182805460018160011615610100020316600290048015612d905780601f10612d6557610100808354040283529160200191612d90565b820191906000526020600020905b815481529060010190602001808311612d7357829003601f168201915b505050505090806003018054600181600116156101000203166002900480601f016020809104026020016040519081016040528092919081815260200182805460018160011615610100020316600290048015612e2e5780601f10612e0357610100808354040283529160200191612e2e565b820191906000526020600020905b815481529060010190602001808311612e1157829003601f168201915b505050505090806004018054600181600116156101000203166002900480601f016020809104026020016040519081016040528092919081815260200182805460018160011615610100020316600290048015612ecc5780601f10612ea157610100808354040283529160200191612ecc565b820191906000526020600020905b815481529060010190602001808311612eaf57829003601f168201915b5050505050905085565b600d81815481101515612ee557fe5b9060005260206000209060030201600091509050806000015490806001015490806002018054600181600116156101000203166002900480601f016020809104026020016040519081016040528092919081815260200182805460018160011615610100020316600290048015612f9d5780601f10612f7257610100808354040283529160200191612f9d565b820191906000526020600020905b815481529060010190602001808311612f8057829003601f168201915b5050505050905083565b6060600982815481101515612fb857fe5b90600052602060002090600502016002018054600181600116156101000203166002900480601f01602080910402602001604051908101604052809291908181526020018280546001816001161561010002031660029004801561305d5780601f106130325761010080835404028352916020019161305d565b820191906000526020600020905b81548152906001019060200180831161304057829003601f168201915b50505050509050919050565b600b8181548110151561307857fe5b9060005260206000209060050201600091509050806000018054600181600116156101000203166002900480601f0160208091040260200160405190810160405280929190818152602001828054600181600116156101000203166002900480156131245780601f106130f957610100808354040283529160200191613124565b820191906000526020600020905b81548152906001019060200180831161310757829003601f168201915b5050505050908060010160009054906101000a900473ffffffffffffffffffffffffffffffffffffffff1690806002018054600181600116156101000203166002900480601f0160208091040260200160405190810160405280929190818152602001828054600181600116156101000203166002900480156131e85780601f106131bd576101008083540402835291602001916131e8565b820191906000526020600020905b8154815290600101906020018083116131cb57829003601f168201915b505050505090806003018054600181600116156101000203166002900480601f0160208091040260200160405190810160405280929190818152602001828054600181600116156101000203166002900480156132865780601f1061325b57610100808354040283529160200191613286565b820191906000526020600020905b81548152906001019060200180831161326957829003601f168201915b505050505090806004018054600181600116156101000203166002900480601f0160208091040260200160405190810160405280929190818152602001828054600181600116156101000203166002900480156133245780601f106132f957610100808354040283529160200191613324565b820191906000526020600020905b81548152906001019060200180831161330757829003601f168201915b5050505050905085565b60008060016007610100604051908101604052808b81526020013373ffffffffffffffffffffffffffffffffffffffff1681526020018a8152602001898152602001888152602001878152602001868152602001600115158152509080600181540180825580915050906001820390600052602060002090600802016000909192909190915060008201518160000190805190602001906133d09291906134ed565b5060208201518160010160006101000a81548173ffffffffffffffffffffffffffffffffffffffff021916908373ffffffffffffffffffffffffffffffffffffffff16021790555060408201518160020190805190602001906134349291906134ed565b5060608201518160030190805190602001906134519291906134ed565b50608082015181600401908051906020019061346e9291906134ed565b5060a082015181600501908051906020019061348b9291906134ed565b5060c08201518160060190805190602001906134a89291906134ed565b5060e08201518160070160006101000a81548160ff02191690831515021790555050500390506000808154809291906001019190505550809150509695505050505050565b828054600181600116156101000203166002900490600052602060002090601f016020900481019282601f1061352e57805160ff191683800117855561355c565b8280016001018555821561355c579182015b8281111561355b578251825591602001919060010190613540565b5b509050613569919061356d565b5090565b61358f91905b8082111561358b576000816000905550600101613573565b5090565b905600a165627a7a72305820f1a4d64b7453e28834df061d4c51b25c576ef4a69ba032dfbd32eb475ad613120029",
  "source": "pragma solidity ^0.4.23;\r\n//pragma experimental ABIEncoderV2;\r\n\r\n// import \"./SafeMath.sol\";\r\n\r\ncontract Factory{\r\n    // using SafeMath for uint256;\r\n    // using SafeMath for uint16;\r\n    // using SafeMath for uint8;\r\n\r\n    //    TODO\r\n    event NewDoctor();\r\n    event NewChemist();\r\n    event NewLab();\r\n    event NewPathology();\r\n\r\n    struct Patient {\r\n        string name;\r\n        address add;\r\n        string email;\r\n        string driveURL;\r\n        string presURL;\r\n        string infoURL;\r\n        string reportsURL;\r\n        bool presUsed;\r\n    }\r\n\r\n    struct Doctor {\r\n        string name;\r\n        address add;\r\n        string email;\r\n        string license;\r\n        string physicalAdd;\r\n        string specialization;\r\n    }\r\n\r\n    struct Chemist {\r\n        string name;\r\n        address add;\r\n        string email;\r\n        string license;\r\n        string physicalAdd;\r\n    }\r\n\r\n    struct Lab {\r\n        string name;\r\n        address add;\r\n        string email;\r\n        string license;\r\n        string details;\r\n    }\r\n\r\n    struct Pathology {\r\n        string name;\r\n        address add;\r\n        string email;\r\n        string license;\r\n        string physicalAdd;\r\n    }\r\n\r\n    struct DataRequirement {\r\n        string message;\r\n        uint labId;\r\n        uint bountyForEach;\r\n        uint number;\r\n        uint gotData;\r\n    }\r\n\r\n    struct Data {\r\n        uint requirementId;\r\n        uint patientId;\r\n        string url;\r\n    }\r\n\r\n    uint public noOfPatients = 0;\r\n    uint public noOfDoctors = 0;\r\n    uint public noOfChemists = 0;\r\n    uint public noOfLabs = 0;\r\n    uint public noOfPathologies = 0;\r\n    uint public noOfData = 0;\r\n    uint public noOfDataRequirements = 0;\r\n\r\n    Patient[] public patients;\r\n    Doctor[] public doctors;\r\n    Chemist[] public chemists;\r\n    Lab[] public labs;\r\n    Pathology[] public pathologies;\r\n    DataRequirement[] public dataRequirements;\r\n    Data[] public data;\r\n\r\n    function newPatient(string _name, string _email, string _driveURL, string _presURL, string _infoURL, string _reportsURL) public returns(uint)\r\n    {\r\n        //        TODO FW: msg.sender must not already registered\r\n\t\tuint patientId = patients.push(Patient(_name, msg.sender, _email, _driveURL, _presURL, _infoURL, _reportsURL, true)) - 1;\r\n        noOfPatients++;\r\n\t\treturn patientId;\r\n    }\r\n\r\n    function newDoctor(string _name, string _email, string _license, string _physicalAdd, string _specialization) public\r\n    {\r\n        //        TODO FW: msg.sender must not already registered\r\n        doctors.push(Doctor(_name, msg.sender, _email, _license, _physicalAdd, _specialization));\r\n        noOfDoctors++;\r\n    }\r\n\r\n    function newChemist(string _name, string _email, string _license, string _physicalAdd) public\r\n    {\r\n        //        TODO FW: msg.sender must not already registered\r\n        chemists.push(Chemist(_name, msg.sender, _email, _license, _physicalAdd));\r\n        noOfChemists++;\r\n    }\r\n\r\n    function newLab(string _name, string _email, string _license, string _details) public\r\n    {\r\n        //        TODO FW: msg.sender must not already registered\r\n        labs.push(Lab(_name, msg.sender, _email, _license, _details));\r\n        noOfLabs++;\r\n    }\r\n\r\n    function newPathology(string _name, string _email, string _license, string _physicalAdd) public\r\n    {\r\n        //        TODO FW: msg.sender must not already registered\r\n        pathologies.push(Pathology(_name, msg.sender, _email, _license, _physicalAdd));\r\n        noOfPathologies++;\r\n    }\r\n\tfunction getChemistEmail(uint chemistId) public view returns(string)\r\n\t{\r\n\t\treturn chemists[chemistId].email;\r\n\t}\r\n\tfunction getDoctorEmail(uint doctorId) public view returns(string)\r\n\t{\r\n\t\treturn doctors[doctorId].email;\r\n\t}\r\n\tfunction getPathologyEmail(uint pathologyId) public view returns(string)\r\n\t{\r\n\t\treturn pathologies[pathologyId].email;\r\n\t}\r\n\tfunction getLabEmail(uint labId) public view returns(string)\r\n\t{\r\n\t\treturn labs[labId].email;\r\n\t}\r\n}\r\n",
  "sourcePath": "E:\\projects_workspaces\\competitions\\SPITHackathon\\WellCareChain\\contracts\\Factory.sol",
  "compiler": {
    "name": "solc",
    "version": "0.4.23+commit.124ca40d.Emscripten.clang"
  },
  "schemaVersion": "2.0.0",
  "updatedAt": "2019-01-05T17:40:50.392Z"
}