{
  "contractName": "Interactions",
  "abi": [
    {
      "constant": false,
      "inputs": [
        {
          "name": "_name",
          "type": "string"
        },
        {
          "name": "_email",
          "type": "string"
        },
        {
          "name": "_license",
          "type": "string"
        },
        {
          "name": "_details",
          "type": "string"
        }
      ],
      "name": "newLab",
      "outputs": [],
      "payable": false,
      "stateMutability": "nonpayable",
      "type": "function"
    },
    {
      "constant": true,
      "inputs": [],
      "name": "noOfDataRequirements",
      "outputs": [
        {
          "name": "",
          "type": "uint256"
        }
      ],
      "payable": false,
      "stateMutability": "view",
      "type": "function"
    },
    {
      "constant": true,
      "inputs": [],
      "name": "noOfDoctors",
      "outputs": [
        {
          "name": "",
          "type": "uint256"
        }
      ],
      "payable": false,
      "stateMutability": "view",
      "type": "function"
    },
    {
      "constant": true,
      "inputs": [],
      "name": "noOfData",
      "outputs": [
        {
          "name": "",
          "type": "uint256"
        }
      ],
      "payable": false,
      "stateMutability": "view",
      "type": "function"
    },
    {
      "constant": true,
      "inputs": [
        {
          "name": "",
          "type": "uint256"
        }
      ],
      "name": "labs",
      "outputs": [
        {
          "name": "name",
          "type": "string"
        },
        {
          "name": "add",
          "type": "address"
        },
        {
          "name": "email",
          "type": "string"
        },
        {
          "name": "license",
          "type": "string"
        },
        {
          "name": "details",
          "type": "string"
        }
      ],
      "payable": false,
      "stateMutability": "view",
      "type": "function"
    },
    {
      "constant": true,
      "inputs": [
        {
          "name": "",
          "type": "uint256"
        }
      ],
      "name": "doctors",
      "outputs": [
        {
          "name": "name",
          "type": "string"
        },
        {
          "name": "add",
          "type": "address"
        },
        {
          "name": "email",
          "type": "string"
        },
        {
          "name": "license",
          "type": "string"
        },
        {
          "name": "physicalAdd",
          "type": "string"
        },
        {
          "name": "specialization",
          "type": "string"
        }
      ],
      "payable": false,
      "stateMutability": "view",
      "type": "function"
    },
    {
      "constant": false,
      "inputs": [],
      "name": "renounceOwnership",
      "outputs": [],
      "payable": false,
      "stateMutability": "nonpayable",
      "type": "function"
    },
    {
      "constant": true,
      "inputs": [],
      "name": "noOfPatients",
      "outputs": [
        {
          "name": "",
          "type": "uint256"
        }
      ],
      "payable": false,
      "stateMutability": "view",
      "type": "function"
    },
    {
      "constant": true,
      "inputs": [],
      "name": "owner",
      "outputs": [
        {
          "name": "",
          "type": "address"
        }
      ],
      "payable": false,
      "stateMutability": "view",
      "type": "function"
    },
    {
      "constant": true,
      "inputs": [],
      "name": "isOwner",
      "outputs": [
        {
          "name": "",
          "type": "bool"
        }
      ],
      "payable": false,
      "stateMutability": "view",
      "type": "function"
    },
    {
      "constant": true,
      "inputs": [
        {
          "name": "",
          "type": "uint256"
        }
      ],
      "name": "patients",
      "outputs": [
        {
          "name": "name",
          "type": "string"
        },
        {
          "name": "add",
          "type": "address"
        },
        {
          "name": "email",
          "type": "string"
        },
        {
          "name": "driveURL",
          "type": "string"
        },
        {
          "name": "presURL",
          "type": "string"
        },
        {
          "name": "infoURL",
          "type": "string"
        },
        {
          "name": "reportsURL",
          "type": "string"
        },
        {
          "name": "presUsed",
          "type": "bool"
        }
      ],
      "payable": false,
      "stateMutability": "view",
      "type": "function"
    },
    {
      "constant": false,
      "inputs": [
        {
          "name": "_name",
          "type": "string"
        },
        {
          "name": "_email",
          "type": "string"
        },
        {
          "name": "_license",
          "type": "string"
        },
        {
          "name": "_physicalAdd",
          "type": "string"
        }
      ],
      "name": "newChemist",
      "outputs": [],
      "payable": false,
      "stateMutability": "nonpayable",
      "type": "function"
    },
    {
      "constant": true,
      "inputs": [],
      "name": "noOfLabs",
      "outputs": [
        {
          "name": "",
          "type": "uint256"
        }
      ],
      "payable": false,
      "stateMutability": "view",
      "type": "function"
    },
    {
      "constant": false,
      "inputs": [
        {
          "name": "_name",
          "type": "string"
        },
        {
          "name": "_email",
          "type": "string"
        },
        {
          "name": "_license",
          "type": "string"
        },
        {
          "name": "_physicalAdd",
          "type": "string"
        }
      ],
      "name": "newPathology",
      "outputs": [],
      "payable": false,
      "stateMutability": "nonpayable",
      "type": "function"
    },
    {
      "constant": true,
      "inputs": [],
      "name": "noOfPathologies",
      "outputs": [
        {
          "name": "",
          "type": "uint256"
        }
      ],
      "payable": false,
      "stateMutability": "view",
      "type": "function"
    },
    {
      "constant": true,
      "inputs": [
        {
          "name": "",
          "type": "uint256"
        }
      ],
      "name": "dataRequirements",
      "outputs": [
        {
          "name": "message",
          "type": "string"
        },
        {
          "name": "labId",
          "type": "uint256"
        },
        {
          "name": "bountyForEach",
          "type": "uint256"
        },
        {
          "name": "number",
          "type": "uint256"
        },
        {
          "name": "gotData",
          "type": "uint256"
        }
      ],
      "payable": false,
      "stateMutability": "view",
      "type": "function"
    },
    {
      "constant": false,
      "inputs": [
        {
          "name": "_name",
          "type": "string"
        },
        {
          "name": "_email",
          "type": "string"
        },
        {
          "name": "_license",
          "type": "string"
        },
        {
          "name": "_physicalAdd",
          "type": "string"
        },
        {
          "name": "_specialization",
          "type": "string"
        }
      ],
      "name": "newDoctor",
      "outputs": [],
      "payable": false,
      "stateMutability": "nonpayable",
      "type": "function"
    },
    {
      "constant": true,
      "inputs": [],
      "name": "noOfChemists",
      "outputs": [
        {
          "name": "",
          "type": "uint256"
        }
      ],
      "payable": false,
      "stateMutability": "view",
      "type": "function"
    },
    {
      "constant": true,
      "inputs": [
        {
          "name": "",
          "type": "uint256"
        }
      ],
      "name": "chemists",
      "outputs": [
        {
          "name": "name",
          "type": "string"
        },
        {
          "name": "add",
          "type": "address"
        },
        {
          "name": "email",
          "type": "string"
        },
        {
          "name": "license",
          "type": "string"
        },
        {
          "name": "physicalAdd",
          "type": "string"
        }
      ],
      "payable": false,
      "stateMutability": "view",
      "type": "function"
    },
    {
      "constant": true,
      "inputs": [
        {
          "name": "",
          "type": "uint256"
        }
      ],
      "name": "data",
      "outputs": [
        {
          "name": "requirementId",
          "type": "uint256"
        },
        {
          "name": "patientId",
          "type": "uint256"
        },
        {
          "name": "url",
          "type": "string"
        }
      ],
      "payable": false,
      "stateMutability": "view",
      "type": "function"
    },
    {
      "constant": false,
      "inputs": [
        {
          "name": "newOwner",
          "type": "address"
        }
      ],
      "name": "transferOwnership",
      "outputs": [],
      "payable": false,
      "stateMutability": "nonpayable",
      "type": "function"
    },
    {
      "constant": true,
      "inputs": [
        {
          "name": "",
          "type": "uint256"
        }
      ],
      "name": "pathologies",
      "outputs": [
        {
          "name": "name",
          "type": "string"
        },
        {
          "name": "add",
          "type": "address"
        },
        {
          "name": "email",
          "type": "string"
        },
        {
          "name": "license",
          "type": "string"
        },
        {
          "name": "physicalAdd",
          "type": "string"
        }
      ],
      "payable": false,
      "stateMutability": "view",
      "type": "function"
    },
    {
      "constant": false,
      "inputs": [
        {
          "name": "_name",
          "type": "string"
        },
        {
          "name": "_email",
          "type": "string"
        },
        {
          "name": "_driveURL",
          "type": "string"
        },
        {
          "name": "_presURL",
          "type": "string"
        },
        {
          "name": "_infoURL",
          "type": "string"
        },
        {
          "name": "_reportsURL",
          "type": "string"
        }
      ],
      "name": "newPatient",
      "outputs": [],
      "payable": false,
      "stateMutability": "nonpayable",
      "type": "function"
    },
    {
      "anonymous": false,
      "inputs": [
        {
          "indexed": false,
          "name": "message",
          "type": "string"
        },
        {
          "indexed": false,
          "name": "labId",
          "type": "uint256"
        },
        {
          "indexed": false,
          "name": "bountyForEach",
          "type": "uint256"
        }
      ],
      "name": "newDataRequirement",
      "type": "event"
    },
    {
      "anonymous": false,
      "inputs": [],
      "name": "NewDoctor",
      "type": "event"
    },
    {
      "anonymous": false,
      "inputs": [],
      "name": "NewChemist",
      "type": "event"
    },
    {
      "anonymous": false,
      "inputs": [],
      "name": "NewLab",
      "type": "event"
    },
    {
      "anonymous": false,
      "inputs": [],
      "name": "NewPathology",
      "type": "event"
    },
    {
      "anonymous": false,
      "inputs": [
        {
          "indexed": true,
          "name": "previousOwner",
          "type": "address"
        },
        {
          "indexed": true,
          "name": "newOwner",
          "type": "address"
        }
      ],
      "name": "OwnershipTransferred",
      "type": "event"
    },
    {
      "constant": true,
      "inputs": [
        {
          "name": "addr",
          "type": "address"
        }
      ],
      "name": "getPatientId",
      "outputs": [
        {
          "name": "",
          "type": "int256"
        }
      ],
      "payable": false,
      "stateMutability": "view",
      "type": "function"
    },
    {
      "constant": true,
      "inputs": [
        {
          "name": "addr",
          "type": "address"
        }
      ],
      "name": "getDoctorId",
      "outputs": [
        {
          "name": "",
          "type": "int256"
        }
      ],
      "payable": false,
      "stateMutability": "view",
      "type": "function"
    },
    {
      "constant": true,
      "inputs": [
        {
          "name": "addr",
          "type": "address"
        }
      ],
      "name": "getLabId",
      "outputs": [
        {
          "name": "",
          "type": "int256"
        }
      ],
      "payable": false,
      "stateMutability": "view",
      "type": "function"
    },
    {
      "constant": true,
      "inputs": [
        {
          "name": "addr",
          "type": "address"
        }
      ],
      "name": "getPathologyId",
      "outputs": [
        {
          "name": "",
          "type": "int256"
        }
      ],
      "payable": false,
      "stateMutability": "view",
      "type": "function"
    },
    {
      "constant": true,
      "inputs": [
        {
          "name": "addr",
          "type": "address"
        }
      ],
      "name": "getChemistId",
      "outputs": [
        {
          "name": "",
          "type": "int256"
        }
      ],
      "payable": false,
      "stateMutability": "view",
      "type": "function"
    },
    {
      "constant": false,
      "inputs": [
        {
          "name": "_patientId",
          "type": "uint256"
        },
        {
          "name": "_doctorId",
          "type": "uint256"
        },
        {
          "name": "_fees",
          "type": "uint256"
        }
      ],
      "name": "payToDoctor",
      "outputs": [],
      "payable": true,
      "stateMutability": "payable",
      "type": "function"
    },
    {
      "constant": false,
      "inputs": [
        {
          "name": "_patientId",
          "type": "uint256"
        },
        {
          "name": "_pathologyId",
          "type": "uint256"
        },
        {
          "name": "_fees",
          "type": "uint256"
        },
        {
          "name": "info",
          "type": "string"
        }
      ],
      "name": "payToPathology",
      "outputs": [],
      "payable": true,
      "stateMutability": "payable",
      "type": "function"
    },
    {
      "constant": false,
      "inputs": [
        {
          "name": "_patientId",
          "type": "uint256"
        },
        {
          "name": "_chemistId",
          "type": "uint256"
        },
        {
          "name": "_fees",
          "type": "uint256"
        }
      ],
      "name": "payToChemist",
      "outputs": [],
      "payable": true,
      "stateMutability": "payable",
      "type": "function"
    },
    {
      "constant": false,
      "inputs": [
        {
          "name": "_message",
          "type": "string"
        },
        {
          "name": "_number",
          "type": "uint256"
        }
      ],
      "name": "alertDataRequirement",
      "outputs": [],
      "payable": true,
      "stateMutability": "payable",
      "type": "function"
    },
    {
      "constant": false,
      "inputs": [
        {
          "name": "_requirementId",
          "type": "uint256"
        },
        {
          "name": "_url",
          "type": "string"
        }
      ],
      "name": "getBounty",
      "outputs": [],
      "payable": false,
      "stateMutability": "nonpayable",
      "type": "function"
    },
    {
      "constant": true,
      "inputs": [
        {
          "name": "_requirementId",
          "type": "uint256"
        }
      ],
      "name": "accessData",
      "outputs": [
        {
          "components": [
            {
              "name": "requirementId",
              "type": "uint256"
            },
            {
              "name": "patientId",
              "type": "uint256"
            },
            {
              "name": "url",
              "type": "string"
            }
          ],
          "name": "ans",
          "type": "tuple[]"
        }
      ],
      "payable": false,
      "stateMutability": "view",
      "type": "function"
    }
  ],
  "bytecode": "0x60806040526000600155600060025560006003556000600455600060055560006006556000600755336000806101000a81548173ffffffffffffffffffffffffffffffffffffffff021916908373ffffffffffffffffffffffffffffffffffffffff1602179055506000809054906101000a900473ffffffffffffffffffffffffffffffffffffffff1673ffffffffffffffffffffffffffffffffffffffff16600073ffffffffffffffffffffffffffffffffffffffff167f8be0079c531659141344cd1fd0a4f28419497f9722a3daafe3b4186f6b6457e060405160405180910390a36142c3806100f26000396000f3006080604052600436106101ac576000357c0100000000000000000000000000000000000000000000000000000000900463ffffffff168063025cccea146101b15780630ba513eb146101da5780632604fa7b146102055780632650afc0146102425780632839abdd1461026d57806337dbc670146102aa57806349e97e6b146102d55780634bb7c644146102f157806353177c9f146103325780636208b8f61461036f5780636efb1b8414610398578063715018a6146103da5780637a0a5950146103f157806384b828ba1461040d5780638da5cb5b146104385780638f32d59b1461046357806393119a831461048e5780639be23de6146104d2578063a1816cc5146104fb578063abc21a0114610526578063b0a7a3b61461054f578063b9ee69201461057a578063bca71f46146105b7578063c48189dd146105f4578063cf43684714610610578063d5c5e92714610651578063dc30b5701461068e578063dfbce014146106b7578063e00fb058146106e2578063e81dbf93146106fe578063f0ba84401461073f578063f2fde38b1461077e578063f7b8be96146107a7578063fa4afb39146107e8575b600080fd5b3480156101bd57600080fd5b506101d860048036036101d391908101906133cc565b610811565b005b3480156101e657600080fd5b506101ef610955565b6040516101fc91906140df565b60405180910390f35b34801561021157600080fd5b5061022c600480360361022791908101906133a3565b61095b565b6040516102399190613d31565b60405180910390f35b34801561024e57600080fd5b50610257610a20565b60405161026491906140df565b60405180910390f35b34801561027957600080fd5b50610294600480360361028f91908101906133a3565b610a26565b6040516102a19190613d31565b60405180910390f35b3480156102b657600080fd5b506102bf610aeb565b6040516102cc91906140df565b60405180910390f35b6102ef60048036036102ea9190810190613697565b610af1565b005b3480156102fd57600080fd5b50610318600480360361031391908101906136eb565b610c79565b604051610329959493929190613d8a565b60405180910390f35b34801561033e57600080fd5b50610359600480360361035491908101906136eb565b610f3e565b6040516103669190613cf4565b60405180910390f35b34801561037b57600080fd5b5061039660048036036103919190810190613714565b6111b1565b005b3480156103a457600080fd5b506103bf60048036036103ba91908101906136eb565b611443565b6040516103d196959493929190613df9565b60405180910390f35b3480156103e657600080fd5b506103ef6117a6565b005b61040b60048036036104069190810190613768565b6118ae565b005b34801561041957600080fd5b50610422611a80565b60405161042f91906140df565b60405180910390f35b34801561044457600080fd5b5061044d611a86565b60405161045a9190613cd9565b60405180910390f35b34801561046f57600080fd5b50610478611aaf565b6040516104859190613d16565b60405180910390f35b34801561049a57600080fd5b506104b560048036036104b091908101906136eb565b611b06565b6040516104c9989796959493929190613e7d565b60405180910390f35b3480156104de57600080fd5b506104f960048036036104f491908101906133cc565b611f1a565b005b34801561050757600080fd5b5061051061205e565b60405161051d91906140df565b60405180910390f35b34801561053257600080fd5b5061054d600480360361054891908101906133cc565b612064565b005b34801561055b57600080fd5b506105646121a8565b60405161057191906140df565b60405180910390f35b34801561058657600080fd5b506105a1600480360361059c91908101906133a3565b6121ae565b6040516105ae9190613d31565b60405180910390f35b3480156105c357600080fd5b506105de60048036036105d991908101906133a3565b612273565b6040516105eb9190613d31565b60405180910390f35b61060e60048036036106099190810190613768565b612338565b005b34801561061c57600080fd5b50610637600480360361063291908101906136eb565b61249a565b604051610648959493929190613f25565b60405180910390f35b34801561065d57600080fd5b50610678600480360361067391908101906133a3565b612577565b6040516106859190613d31565b60405180910390f35b34801561069a57600080fd5b506106b560048036036106b0919081019061348f565b61263c565b005b3480156106c357600080fd5b506106cc6127a4565b6040516106d991906140df565b60405180910390f35b6106fc60048036036106f791908101906137b7565b6127aa565b005b34801561070a57600080fd5b50610725600480360361072091908101906136eb565b6128d4565b604051610736959493929190613d8a565b60405180910390f35b34801561074b57600080fd5b50610766600480360361076191908101906136eb565b612b99565b604051610775939291906140fa565b60405180910390f35b34801561078a57600080fd5b506107a560048036036107a091908101906133a3565b612c6a565b005b3480156107b357600080fd5b506107ce60048036036107c991908101906136eb565b612cbf565b6040516107df959493929190613d8a565b60405180910390f35b3480156107f457600080fd5b5061080f600480360361080a919081019061357e565b612f84565b005b6001600b60a0604051908101604052808781526020013373ffffffffffffffffffffffffffffffffffffffff1681526020018681526020018581526020018481525090806001815401808255809150509060018203906000526020600020906005020160009091929091909150600082015181600001908051906020019061089a92919061325e565b5060208201518160010160006101000a81548173ffffffffffffffffffffffffffffffffffffffff021916908373ffffffffffffffffffffffffffffffffffffffff16021790555060408201518160020190805190602001906108fe92919061325e565b50606082015181600301908051906020019061091b92919061325e565b50608082015181600401908051906020019061093892919061325e565b505050505060046000815480929190600101919050555050505050565b60075481565b600080600090505b6001548110156109f65760088181548110151561097c57fe5b906000526020600020906008020160010160009054906101000a900473ffffffffffffffffffffffffffffffffffffffff1673ffffffffffffffffffffffffffffffffffffffff168373ffffffffffffffffffffffffffffffffffffffff1614156109e957809150610a1a565b8080600101915050610963565b7fffffffffffffffffffffffffffffffffffffffffffffffffffffffffffffffff91505b50919050565b60025481565b600080600090505b600554811015610ac157600c81815481101515610a4757fe5b906000526020600020906005020160010160009054906101000a900473ffffffffffffffffffffffffffffffffffffffff1673ffffffffffffffffffffffffffffffffffffffff168373ffffffffffffffffffffffffffffffffffffffff161415610ab457809150610ae5565b8080600101915050610a2e565b7fffffffffffffffffffffffffffffffffffffffffffffffffffffffffffffffff91505b50919050565b60065481565b600080610afd33612273565b905060008112151515610b45576040517f08c379a0000000000000000000000000000000000000000000000000000000008152600401610b3c9061409f565b60405180910390fd5b6064830234111515610b5657600080fd5b610b5f33612273565b91506001600d60a060405190810160405280878152602001858152602001610b90873461313a90919063ffffffff16565b81526020018681526020016000815250908060018154018082558091505090600182039060005260206000209060050201600090919290919091506000820151816000019080519060200190610be792919061325e565b5060208201518160010155604082015181600201556060820151816003015560808201518160040155505050506007600081548092919060010191905055507f25b369cbb30c42eaf0e0d5bbcf823a21a3aa3fb3398e53a04dd832a8753259758483610c5c863461313a90919063ffffffff16565b604051610c6b93929190613d4c565b60405180910390a150505050565b600b81815481101515610c8857fe5b9060005260206000209060050201600091509050806000018054600181600116156101000203166002900480601f016020809104026020016040519081016040528092919081815260200182805460018160011615610100020316600290048015610d345780601f10610d0957610100808354040283529160200191610d34565b820191906000526020600020905b815481529060010190602001808311610d1757829003601f168201915b5050505050908060010160009054906101000a900473ffffffffffffffffffffffffffffffffffffffff1690806002018054600181600116156101000203166002900480601f016020809104026020016040519081016040528092919081815260200182805460018160011615610100020316600290048015610df85780601f10610dcd57610100808354040283529160200191610df8565b820191906000526020600020905b815481529060010190602001808311610ddb57829003601f168201915b505050505090806003018054600181600116156101000203166002900480601f016020809104026020016040519081016040528092919081815260200182805460018160011615610100020316600290048015610e965780601f10610e6b57610100808354040283529160200191610e96565b820191906000526020600020905b815481529060010190602001808311610e7957829003601f168201915b505050505090806004018054600181600116156101000203166002900480601f016020809104026020016040519081016040528092919081815260200182805460018160011615610100020316600290048015610f345780601f10610f0957610100808354040283529160200191610f34565b820191906000526020600020905b815481529060010190602001808311610f1757829003601f168201915b5050505050905085565b6060600080600080610f4f33612273565b905060008112151515610f97576040517f08c379a0000000000000000000000000000000000000000000000000000000008152600401610f8e9061409f565b60405180910390fd5b610fa033612273565b935083600d87815481101515610fb257fe5b906000526020600020906005020160010154141515611006576040517f08c379a0000000000000000000000000000000000000000000000000000000008152600401610ffd906140bf565b60405180910390fd5b600d8681548110151561101557fe5b90600052602060002090600502016004015492508260405190808252806020026020018201604052801561106357816020015b6110506132de565b8152602001906001900390816110485790505b509450600091505b6006548210156111a55785600e8381548110151561108557fe5b906000526020600020906003020160000154141561119857600e828154811015156110ac57fe5b9060005260206000209060030201606060405190810160405290816000820154815260200160018201548152602001600282018054600181600116156101000203166002900480601f0160208091040260200160405190810160405280929190818152602001828054600181600116156101000203166002900480156111735780601f1061114857610100808354040283529160200191611173565b820191906000526020600020905b81548152906001019060200180831161115657829003601f168201915b505050505081525050858381518110151561118a57fe5b906020019060200201819052505b818060010192505061106b565b84945050505050919050565b60008060006111bf3361095b565b905060008112151515611207576040517f08c379a00000000000000000000000000000000000000000000000000000000081526004016111fe90613fbf565b60405180910390fd5b6112103361095b565b9250600d8581548110151561122157fe5b906000526020600020906005020160030154600d8681548110151561124257fe5b906000526020600020906005020160040154101515611296576040517f08c379a000000000000000000000000000000000000000000000000000000000815260040161128d9061401f565b60405180910390fd5b600091505b6006548210156113475784600e838154811015156112b557fe5b906000526020600020906003020160000154141561133a5782600e838154811015156112dd57fe5b90600052602060002090600302016001015414156113395760001515611338576040517f08c379a000000000000000000000000000000000000000000000000000000000815260040161132f9061405f565b60405180910390fd5b5b5b818060010192505061129b565b600e6060604051908101604052808781526020018581526020018681525090806001815401808255809150509060018203906000526020600020906003020160009091929091909150600082015181600001556020820151816001015560408201518160020190805190602001906113c092919061325e565b5050505060016006600082825401925050819055503373ffffffffffffffffffffffffffffffffffffffff166108fc600d878154811015156113fe57fe5b9060005260206000209060050201600201549081150290604051600060405180830381858888f1935050505015801561143b573d6000803e3d6000fd5b505050505050565b60098181548110151561145257fe5b9060005260206000209060060201600091509050806000018054600181600116156101000203166002900480601f0160208091040260200160405190810160405280929190818152602001828054600181600116156101000203166002900480156114fe5780601f106114d3576101008083540402835291602001916114fe565b820191906000526020600020905b8154815290600101906020018083116114e157829003601f168201915b5050505050908060010160009054906101000a900473ffffffffffffffffffffffffffffffffffffffff1690806002018054600181600116156101000203166002900480601f0160208091040260200160405190810160405280929190818152602001828054600181600116156101000203166002900480156115c25780601f10611597576101008083540402835291602001916115c2565b820191906000526020600020905b8154815290600101906020018083116115a557829003601f168201915b505050505090806003018054600181600116156101000203166002900480601f0160208091040260200160405190810160405280929190818152602001828054600181600116156101000203166002900480156116605780601f1061163557610100808354040283529160200191611660565b820191906000526020600020905b81548152906001019060200180831161164357829003601f168201915b505050505090806004018054600181600116156101000203166002900480601f0160208091040260200160405190810160405280929190818152602001828054600181600116156101000203166002900480156116fe5780601f106116d3576101008083540402835291602001916116fe565b820191906000526020600020905b8154815290600101906020018083116116e157829003601f168201915b505050505090806005018054600181600116156101000203166002900480601f01602080910402602001604051908101604052809291908181526020018280546001816001161561010002031660029004801561179c5780601f106117715761010080835404028352916020019161179c565b820191906000526020600020905b81548152906001019060200180831161177f57829003601f168201915b5050505050905086565b6117ae611aaf565b15156117ef576040517f08c379a00000000000000000000000000000000000000000000000000000000081526004016117e69061407f565b60405180910390fd5b600073ffffffffffffffffffffffffffffffffffffffff166000809054906101000a900473ffffffffffffffffffffffffffffffffffffffff1673ffffffffffffffffffffffffffffffffffffffff167f8be0079c531659141344cd1fd0a4f28419497f9722a3daafe3b4186f6b6457e060405160405180910390a360008060006101000a81548173ffffffffffffffffffffffffffffffffffffffff021916908373ffffffffffffffffffffffffffffffffffffffff160217905550565b6000826000111580156118c2575060035483105b1515611903576040517f08c379a00000000000000000000000000000000000000000000000000000000081526004016118fa90613f7f565b60405180910390fd5b60088481548110151561191257fe5b906000526020600020906008020160070160009054906101000a900460ff16151515611973576040517f08c379a000000000000000000000000000000000000000000000000000000000815260040161196a90613fdf565b60405180910390fd5b81341415156119b7576040517f08c379a00000000000000000000000000000000000000000000000000000000081526004016119ae90613fff565b60405180910390fd5b60016008858154811015156119c857fe5b906000526020600020906008020160070160006101000a81548160ff021916908315150217905550600a838154811015156119ff57fe5b906000526020600020906005020160010160009054906101000a900473ffffffffffffffffffffffffffffffffffffffff1690508073ffffffffffffffffffffffffffffffffffffffff166108fc839081150290604051600060405180830381858888f19350505050158015611a79573d6000803e3d6000fd5b5050505050565b60015481565b60008060009054906101000a900473ffffffffffffffffffffffffffffffffffffffff16905090565b60008060009054906101000a900473ffffffffffffffffffffffffffffffffffffffff1673ffffffffffffffffffffffffffffffffffffffff163373ffffffffffffffffffffffffffffffffffffffff1614905090565b600881815481101515611b1557fe5b9060005260206000209060080201600091509050806000018054600181600116156101000203166002900480601f016020809104026020016040519081016040528092919081815260200182805460018160011615610100020316600290048015611bc15780601f10611b9657610100808354040283529160200191611bc1565b820191906000526020600020905b815481529060010190602001808311611ba457829003601f168201915b5050505050908060010160009054906101000a900473ffffffffffffffffffffffffffffffffffffffff1690806002018054600181600116156101000203166002900480601f016020809104026020016040519081016040528092919081815260200182805460018160011615610100020316600290048015611c855780601f10611c5a57610100808354040283529160200191611c85565b820191906000526020600020905b815481529060010190602001808311611c6857829003601f168201915b505050505090806003018054600181600116156101000203166002900480601f016020809104026020016040519081016040528092919081815260200182805460018160011615610100020316600290048015611d235780601f10611cf857610100808354040283529160200191611d23565b820191906000526020600020905b815481529060010190602001808311611d0657829003601f168201915b505050505090806004018054600181600116156101000203166002900480601f016020809104026020016040519081016040528092919081815260200182805460018160011615610100020316600290048015611dc15780601f10611d9657610100808354040283529160200191611dc1565b820191906000526020600020905b815481529060010190602001808311611da457829003601f168201915b505050505090806005018054600181600116156101000203166002900480601f016020809104026020016040519081016040528092919081815260200182805460018160011615610100020316600290048015611e5f5780601f10611e3457610100808354040283529160200191611e5f565b820191906000526020600020905b815481529060010190602001808311611e4257829003601f168201915b505050505090806006018054600181600116156101000203166002900480601f016020809104026020016040519081016040528092919081815260200182805460018160011615610100020316600290048015611efd5780601f10611ed257610100808354040283529160200191611efd565b820191906000526020600020905b815481529060010190602001808311611ee057829003601f168201915b5050505050908060070160009054906101000a900460ff16905088565b6001600a60a0604051908101604052808781526020013373ffffffffffffffffffffffffffffffffffffffff16815260200186815260200185815260200184815250908060018154018082558091505090600182039060005260206000209060050201600090919290919091506000820151816000019080519060200190611fa392919061325e565b5060208201518160010160006101000a81548173ffffffffffffffffffffffffffffffffffffffff021916908373ffffffffffffffffffffffffffffffffffffffff160217905550604082015181600201908051906020019061200792919061325e565b50606082015181600301908051906020019061202492919061325e565b50608082015181600401908051906020019061204192919061325e565b505050505060036000815480929190600101919050555050505050565b60045481565b6001600c60a0604051908101604052808781526020013373ffffffffffffffffffffffffffffffffffffffff168152602001868152602001858152602001848152509080600181540180825580915050906001820390600052602060002090600502016000909192909190915060008201518160000190805190602001906120ed92919061325e565b5060208201518160010160006101000a81548173ffffffffffffffffffffffffffffffffffffffff021916908373ffffffffffffffffffffffffffffffffffffffff160217905550604082015181600201908051906020019061215192919061325e565b50606082015181600301908051906020019061216e92919061325e565b50608082015181600401908051906020019061218b92919061325e565b505050505060056000815480929190600101919050555050505050565b60055481565b600080600090505b600254811015612249576009818154811015156121cf57fe5b906000526020600020906006020160010160009054906101000a900473ffffffffffffffffffffffffffffffffffffffff1673ffffffffffffffffffffffffffffffffffffffff168373ffffffffffffffffffffffffffffffffffffffff16141561223c5780915061226d565b80806001019150506121b6565b7fffffffffffffffffffffffffffffffffffffffffffffffffffffffffffffffff91505b50919050565b600080600090505b60045481101561230e57600b8181548110151561229457fe5b906000526020600020906005020160010160009054906101000a900473ffffffffffffffffffffffffffffffffffffffff1673ffffffffffffffffffffffffffffffffffffffff168373ffffffffffffffffffffffffffffffffffffffff16141561230157809150612332565b808060010191505061227b565b7fffffffffffffffffffffffffffffffffffffffffffffffffffffffffffffffff91505b50919050565b60008260001115801561234c575060025483105b151561238d576040517f08c379a00000000000000000000000000000000000000000000000000000000081526004016123849061403f565b60405180910390fd5b81341415156123d1576040517f08c379a00000000000000000000000000000000000000000000000000000000081526004016123c890613fff565b60405180910390fd5b6009838154811015156123e057fe5b906000526020600020906006020160010160009054906101000a900473ffffffffffffffffffffffffffffffffffffffff169050600060088581548110151561242557fe5b906000526020600020906008020160070160006101000a81548160ff0219169083151502179055508073ffffffffffffffffffffffffffffffffffffffff166108fc839081150290604051600060405180830381858888f19350505050158015612493573d6000803e3d6000fd5b5050505050565b600d818154811015156124a957fe5b9060005260206000209060050201600091509050806000018054600181600116156101000203166002900480601f0160208091040260200160405190810160405280929190818152602001828054600181600116156101000203166002900480156125555780601f1061252a57610100808354040283529160200191612555565b820191906000526020600020905b81548152906001019060200180831161253857829003601f168201915b5050505050908060010154908060020154908060030154908060040154905085565b600080600090505b60035481101561261257600a8181548110151561259857fe5b906000526020600020906005020160010160009054906101000a900473ffffffffffffffffffffffffffffffffffffffff1673ffffffffffffffffffffffffffffffffffffffff168373ffffffffffffffffffffffffffffffffffffffff16141561260557809150612636565b808060010191505061257f565b7fffffffffffffffffffffffffffffffffffffffffffffffffffffffffffffffff91505b50919050565b6001600960c0604051908101604052808881526020013373ffffffffffffffffffffffffffffffffffffffff168152602001878152602001868152602001858152602001848152509080600181540180825580915050906001820390600052602060002090600602016000909192909190915060008201518160000190805190602001906126cb92919061325e565b5060208201518160010160006101000a81548173ffffffffffffffffffffffffffffffffffffffff021916908373ffffffffffffffffffffffffffffffffffffffff160217905550604082015181600201908051906020019061272f92919061325e565b50606082015181600301908051906020019061274c92919061325e565b50608082015181600401908051906020019061276992919061325e565b5060a082015181600501908051906020019061278692919061325e565b50505050506002600081548092919060010191905055505050505050565b60035481565b6000836000111580156127be575060055484105b15156127ff576040517f08c379a00000000000000000000000000000000000000000000000000000000081526004016127f690613f9f565b60405180910390fd5b8234141515612843576040517f08c379a000000000000000000000000000000000000000000000000000000000815260040161283a90613fff565b60405180910390fd5b600c8481548110151561285257fe5b906000526020600020906005020160010160009054906101000a900473ffffffffffffffffffffffffffffffffffffffff1690508073ffffffffffffffffffffffffffffffffffffffff166108fc849081150290604051600060405180830381858888f193505050501580156128cc573d6000803e3d6000fd5b505050505050565b600a818154811015156128e357fe5b9060005260206000209060050201600091509050806000018054600181600116156101000203166002900480601f01602080910402602001604051908101604052809291908181526020018280546001816001161561010002031660029004801561298f5780601f106129645761010080835404028352916020019161298f565b820191906000526020600020905b81548152906001019060200180831161297257829003601f168201915b5050505050908060010160009054906101000a900473ffffffffffffffffffffffffffffffffffffffff1690806002018054600181600116156101000203166002900480601f016020809104026020016040519081016040528092919081815260200182805460018160011615610100020316600290048015612a535780601f10612a2857610100808354040283529160200191612a53565b820191906000526020600020905b815481529060010190602001808311612a3657829003601f168201915b505050505090806003018054600181600116156101000203166002900480601f016020809104026020016040519081016040528092919081815260200182805460018160011615610100020316600290048015612af15780601f10612ac657610100808354040283529160200191612af1565b820191906000526020600020905b815481529060010190602001808311612ad457829003601f168201915b505050505090806004018054600181600116156101000203166002900480601f016020809104026020016040519081016040528092919081815260200182805460018160011615610100020316600290048015612b8f5780601f10612b6457610100808354040283529160200191612b8f565b820191906000526020600020905b815481529060010190602001808311612b7257829003601f168201915b5050505050905085565b600e81815481101515612ba857fe5b9060005260206000209060030201600091509050806000015490806001015490806002018054600181600116156101000203166002900480601f016020809104026020016040519081016040528092919081815260200182805460018160011615610100020316600290048015612c605780601f10612c3557610100808354040283529160200191612c60565b820191906000526020600020905b815481529060010190602001808311612c4357829003601f168201915b5050505050905083565b612c72611aaf565b1515612cb3576040517f08c379a0000000000000000000000000000000000000000000000000000000008152600401612caa9061407f565b60405180910390fd5b612cbc81613164565b50565b600c81815481101515612cce57fe5b9060005260206000209060050201600091509050806000018054600181600116156101000203166002900480601f016020809104026020016040519081016040528092919081815260200182805460018160011615610100020316600290048015612d7a5780601f10612d4f57610100808354040283529160200191612d7a565b820191906000526020600020905b815481529060010190602001808311612d5d57829003601f168201915b5050505050908060010160009054906101000a900473ffffffffffffffffffffffffffffffffffffffff1690806002018054600181600116156101000203166002900480601f016020809104026020016040519081016040528092919081815260200182805460018160011615610100020316600290048015612e3e5780601f10612e1357610100808354040283529160200191612e3e565b820191906000526020600020905b815481529060010190602001808311612e2157829003601f168201915b505050505090806003018054600181600116156101000203166002900480601f016020809104026020016040519081016040528092919081815260200182805460018160011615610100020316600290048015612edc5780601f10612eb157610100808354040283529160200191612edc565b820191906000526020600020905b815481529060010190602001808311612ebf57829003601f168201915b505050505090806004018054600181600116156101000203166002900480601f016020809104026020016040519081016040528092919081815260200182805460018160011615610100020316600290048015612f7a5780601f10612f4f57610100808354040283529160200191612f7a565b820191906000526020600020905b815481529060010190602001808311612f5d57829003601f168201915b5050505050905085565b60016008610100604051908101604052808981526020013373ffffffffffffffffffffffffffffffffffffffff1681526020018881526020018781526020018681526020018581526020018481526020016001151581525090806001815401808255809150509060018203906000526020600020906008020160009091929091909150600082015181600001908051906020019061302392919061325e565b5060208201518160010160006101000a81548173ffffffffffffffffffffffffffffffffffffffff021916908373ffffffffffffffffffffffffffffffffffffffff160217905550604082015181600201908051906020019061308792919061325e565b5060608201518160030190805190602001906130a492919061325e565b5060808201518160040190805190602001906130c192919061325e565b5060a08201518160050190805190602001906130de92919061325e565b5060c08201518160060190805190602001906130fb92919061325e565b5060e08201518160070160006101000a81548160ff02191690831515021790555050505050600160008154809291906001019190505550505050505050565b60008060008311151561314c57600080fd5b828481151561315757fe5b0490508091505092915050565b600073ffffffffffffffffffffffffffffffffffffffff168173ffffffffffffffffffffffffffffffffffffffff16141515156131a057600080fd5b8073ffffffffffffffffffffffffffffffffffffffff166000809054906101000a900473ffffffffffffffffffffffffffffffffffffffff1673ffffffffffffffffffffffffffffffffffffffff167f8be0079c531659141344cd1fd0a4f28419497f9722a3daafe3b4186f6b6457e060405160405180910390a3806000806101000a81548173ffffffffffffffffffffffffffffffffffffffff021916908373ffffffffffffffffffffffffffffffffffffffff16021790555050565b828054600181600116156101000203166002900490600052602060002090601f016020900481019282601f1061329f57805160ff19168380011785556132cd565b828001600101855582156132cd579182015b828111156132cc5782518255916020019190600101906132b1565b5b5090506132da9190613300565b5090565b6060604051908101604052806000815260200160008152602001606081525090565b61332291905b8082111561331e576000816000905550600101613306565b5090565b90565b6000613331823561420c565b905092915050565b600082601f830112151561334c57600080fd5b813561335f61335a82614165565b614138565b9150808252602083016020830185838301111561337b57600080fd5b613386838284614236565b50505092915050565b600061339b823561422c565b905092915050565b6000602082840312156133b557600080fd5b60006133c384828501613325565b91505092915050565b600080600080608085870312156133e257600080fd5b600085013567ffffffffffffffff8111156133fc57600080fd5b61340887828801613339565b945050602085013567ffffffffffffffff81111561342557600080fd5b61343187828801613339565b935050604085013567ffffffffffffffff81111561344e57600080fd5b61345a87828801613339565b925050606085013567ffffffffffffffff81111561347757600080fd5b61348387828801613339565b91505092959194509250565b600080600080600060a086880312156134a757600080fd5b600086013567ffffffffffffffff8111156134c157600080fd5b6134cd88828901613339565b955050602086013567ffffffffffffffff8111156134ea57600080fd5b6134f688828901613339565b945050604086013567ffffffffffffffff81111561351357600080fd5b61351f88828901613339565b935050606086013567ffffffffffffffff81111561353c57600080fd5b61354888828901613339565b925050608086013567ffffffffffffffff81111561356557600080fd5b61357188828901613339565b9150509295509295909350565b60008060008060008060c0878903121561359757600080fd5b600087013567ffffffffffffffff8111156135b157600080fd5b6135bd89828a01613339565b965050602087013567ffffffffffffffff8111156135da57600080fd5b6135e689828a01613339565b955050604087013567ffffffffffffffff81111561360357600080fd5b61360f89828a01613339565b945050606087013567ffffffffffffffff81111561362c57600080fd5b61363889828a01613339565b935050608087013567ffffffffffffffff81111561365557600080fd5b61366189828a01613339565b92505060a087013567ffffffffffffffff81111561367e57600080fd5b61368a89828a01613339565b9150509295509295509295565b600080604083850312156136aa57600080fd5b600083013567ffffffffffffffff8111156136c457600080fd5b6136d085828601613339565b92505060206136e18582860161338f565b9150509250929050565b6000602082840312156136fd57600080fd5b600061370b8482850161338f565b91505092915050565b6000806040838503121561372757600080fd5b60006137358582860161338f565b925050602083013567ffffffffffffffff81111561375257600080fd5b61375e85828601613339565b9150509250929050565b60008060006060848603121561377d57600080fd5b600061378b8682870161338f565b935050602061379c8682870161338f565b92505060406137ad8682870161338f565b9150509250925092565b600080600080608085870312156137cd57600080fd5b60006137db8782880161338f565b94505060206137ec8782880161338f565b93505060406137fd8782880161338f565b925050606085013567ffffffffffffffff81111561381a57600080fd5b61382687828801613339565b91505092959194509250565b61383b816141cc565b82525050565b600061384c8261419e565b8084526020840193508360208202850161386585614191565b60005b8481101561389e578383038852613880838351613c7a565b925061388b826141bf565b9150602088019750600181019050613868565b508196508694505050505092915050565b6138b8816141ec565b82525050565b6138c7816141f8565b82525050565b60006138d8826141b4565b8084526138ec816020860160208601614245565b6138f581614278565b602085010191505092915050565b600061390e826141a9565b808452613922816020860160208601614245565b61392b81614278565b602085010191505092915050565b6000601682527f4368656d69737420646f6573206e6f74206578697374000000000000000000006020830152604082019050919050565b6000601882527f506174686f6c6f677920646f6573206e6f7420657869737400000000000000006020830152604082019050919050565b6000602882527f46756e6374696f6e2063616e2062652063616c6c65642062792061207061746960208301527f656e74206f6e6c790000000000000000000000000000000000000000000000006040830152606082019050919050565b6000602282527f4d65646963696e6573206861766520616c7265616479206265656e2074616b6560208301527f6e210000000000000000000000000000000000000000000000000000000000006040830152606082019050919050565b6000601182527f46656573206e6f74206d61746368696e670000000000000000000000000000006020830152604082019050919050565b6000602682527f526571756972656d656e742068617320616c7265616479206265656e2066756c60208301527f66696c6c656400000000000000000000000000000000000000000000000000006040830152606082019050919050565b6000601582527f446f63746f7220646f6573206e6f7420657869737400000000000000000000006020830152604082019050919050565b6000603482527f596f75206861766520616c7265616479207375626d697474656420646174612060208301527f666f72207468697320726571756972656d656e740000000000000000000000006040830152606082019050919050565b6000602a82527f43616e206f6e6c792062652065786563757465642062792074686520676f766560208301527f726e696e6720626f6479000000000000000000000000000000000000000000006040830152606082019050919050565b6000602482527f46756e6374696f6e2063616e2062652063616c6c65642062792061206c61622060208301527f6f6e6c79000000000000000000000000000000000000000000000000000000006040830152606082019050919050565b6000601b82527f596f752063616e6e6f74206163636573732074686973206461746100000000006020830152604082019050919050565b6000606083016000830151613c926000860182613cca565b506020830151613ca56020860182613cca565b5060408301518482036040860152613cbd8282613903565b9150508091505092915050565b613cd381614202565b82525050565b6000602082019050613cee6000830184613832565b92915050565b60006020820190508181036000830152613d0e8184613841565b905092915050565b6000602082019050613d2b60008301846138af565b92915050565b6000602082019050613d4660008301846138be565b92915050565b60006060820190508181036000830152613d6681866138cd565b9050613d756020830185613cca565b613d826040830184613cca565b949350505050565b600060a0820190508181036000830152613da48188613903565b9050613db36020830187613832565b8181036040830152613dc58186613903565b90508181036060830152613dd98185613903565b90508181036080830152613ded8184613903565b90509695505050505050565b600060c0820190508181036000830152613e138189613903565b9050613e226020830188613832565b8181036040830152613e348187613903565b90508181036060830152613e488186613903565b90508181036080830152613e5c8185613903565b905081810360a0830152613e708184613903565b9050979650505050505050565b6000610100820190508181036000830152613e98818b613903565b9050613ea7602083018a613832565b8181036040830152613eb98189613903565b90508181036060830152613ecd8188613903565b90508181036080830152613ee18187613903565b905081810360a0830152613ef58186613903565b905081810360c0830152613f098185613903565b9050613f1860e08301846138af565b9998505050505050505050565b600060a0820190508181036000830152613f3f8188613903565b9050613f4e6020830187613cca565b613f5b6040830186613cca565b613f686060830185613cca565b613f756080830184613cca565b9695505050505050565b60006020820190508181036000830152613f9881613939565b9050919050565b60006020820190508181036000830152613fb881613970565b9050919050565b60006020820190508181036000830152613fd8816139a7565b9050919050565b60006020820190508181036000830152613ff881613a04565b9050919050565b6000602082019050818103600083015261401881613a61565b9050919050565b6000602082019050818103600083015261403881613a98565b9050919050565b6000602082019050818103600083015261405881613af5565b9050919050565b6000602082019050818103600083015261407881613b2c565b9050919050565b6000602082019050818103600083015261409881613b89565b9050919050565b600060208201905081810360008301526140b881613be6565b9050919050565b600060208201905081810360008301526140d881613c43565b9050919050565b60006020820190506140f46000830184613cca565b92915050565b600060608201905061410f6000830186613cca565b61411c6020830185613cca565b818103604083015261412e8184613903565b9050949350505050565b6000604051905081810181811067ffffffffffffffff8211171561415b57600080fd5b8060405250919050565b600067ffffffffffffffff82111561417c57600080fd5b601f19601f8301169050602081019050919050565b6000602082019050919050565b600081519050919050565b600081519050919050565b600081519050919050565b6000602082019050919050565b600073ffffffffffffffffffffffffffffffffffffffff82169050919050565b60008115159050919050565b6000819050919050565b6000819050919050565b600073ffffffffffffffffffffffffffffffffffffffff82169050919050565b6000819050919050565b82818337600083830152505050565b60005b83811015614263578082015181840152602081019050614248565b83811115614272576000848401525b50505050565b6000601f19601f83011690509190505600a265627a7a723058207b7a74c1fe3cb240037f7f184e81fdf89910f1baf4966aae3f60e77859ee798d6c6578706572696d656e74616cf50037",
  "source": "pragma solidity ^0.4.23;\r\npragma experimental ABIEncoderV2;\r\n\r\nimport \"./Factory.sol\";\r\nimport \"./SafeMath.sol\";\r\n\r\ncontract Interactions is Factory {\r\n    using SafeMath for uint256;\r\n\r\n    event newDataRequirement(string message, uint labId, uint bountyForEach);\r\n\r\n    function getPatientId(address addr) public view returns(int){\r\n        for (uint i = 0; i < noOfPatients; i++)\r\n            if (addr == patients[i].add)\r\n                return int(i);\r\n        return - 1;\r\n    }\r\n\r\n    function getDoctorId(address addr) public view returns(int){\r\n        for (uint i = 0; i < noOfDoctors; i++)\r\n            if (addr == doctors[i].add)\r\n                return int(i);\r\n        return - 1;\r\n    }\r\n\r\n    function getLabId(address addr) public view returns(int){\r\n        for (uint i = 0; i < noOfLabs; i++)\r\n            if (addr == labs[i].add)\r\n                return int(i);\r\n        return - 1;\r\n    }\r\n\r\n    function getPathologyId(address addr) public view returns(int){\r\n        for (uint i = 0; i < noOfPathologies; i++)\r\n            if (addr == pathologies[i].add)\r\n                return int(i);\r\n        return - 1;\r\n    }\r\n\r\n    function getChemistId(address addr) public view returns(int){\r\n        for (uint i = 0; i < noOfChemists; i++)\r\n            if (addr == chemists[i].add)\r\n                return int(i);\r\n        return - 1;\r\n    }\r\n\r\n    modifier senderIsLab() {\r\n        int id = getLabId(msg.sender);\r\n        require(id >= 0, \"Function can be called by a lab only\");\r\n        _;\r\n    }\r\n    modifier senderIsPatient() {\r\n        int id = getPatientId(msg.sender);\r\n        require(id >= 0, \"Function can be called by a patient only\");\r\n        _;\r\n    }\r\n\r\n    function payToDoctor(uint _patientId, uint _doctorId, uint _fees) public payable\r\n    {\r\n        require(0 <= _doctorId && _doctorId < noOfDoctors, \"Doctor does not exist\");\r\n        require(msg.value == _fees, \"Fees not matching\");\r\n        address docAddress = doctors[_doctorId].add;\r\n        patients[_patientId].presUsed = false;\r\n        docAddress.transfer(_fees);\r\n    }\r\n\r\n    function payToPathology(uint _patientId, uint _pathologyId, uint _fees, string info) public payable\r\n    {\r\n        require(0 <= _pathologyId && _pathologyId < noOfPathologies, \"Pathology does not exist\");\r\n        require(msg.value == _fees, \"Fees not matching\");\r\n        address pathologyAddress = pathologies[_pathologyId].add;\r\n        pathologyAddress.transfer(_fees);\r\n    }\r\n\r\n    function payToChemist(uint _patientId, uint _chemistId, uint _fees) public payable\r\n    {\r\n        require(0 <= _chemistId && _chemistId < noOfChemists, \"Chemist does not exist\");\r\n        require(!patients[_patientId].presUsed, \"Medicines have already been taken!\");\r\n        require(msg.value == _fees, \"Fees not matching\");\r\n        patients[_patientId].presUsed = true;\r\n        address chemistAddress = chemists[_chemistId].add;\r\n        chemistAddress.transfer(_fees);\r\n    }\r\n\r\n    function alertDataRequirement(string _message, uint _number) public payable senderIsLab {\r\n        require(msg.value > _number * 100);\r\n        uint _labId = uint(getLabId(msg.sender));\r\n        dataRequirements.push(DataRequirement(_message, _labId, uint(msg.value.div(_number)), _number, 0)) - 1;\r\n        noOfDataRequirements++;\r\n        emit newDataRequirement(_message, _labId, uint(msg.value.div(_number)));\r\n    }\r\n\r\n    function getBounty(uint _requirementId, string _url) public senderIsPatient {\r\n        uint _patientId = uint(getPatientId(msg.sender));\r\n        require(dataRequirements[_requirementId].gotData < dataRequirements[_requirementId].number, \"Requirement has already been fulfilled\");\r\n        for (uint i = 0; i < noOfData; i++) {\r\n            if (data[i].requirementId == _requirementId) {\r\n                if (data[i].patientId == _patientId) {\r\n                    require(false, \"You have already submitted data for this requirement\");\r\n                }\r\n            }\r\n        }\r\n        data.push(Data(_requirementId, _patientId, _url));\r\n        noOfData += 1;\r\n        msg.sender.transfer(dataRequirements[_requirementId].bountyForEach);\r\n    }\r\n\r\n    function accessData(uint _requirementId) public view senderIsLab returns(Data[] memory ans){\r\n        uint _labId = uint(getLabId(msg.sender));\r\n        require(dataRequirements[_requirementId].labId == _labId, \"You cannot access this data\");\r\n        uint no = dataRequirements[_requirementId].gotData;\r\n        ans = new Data[](no);\r\n        for (uint i = 0; i < noOfData; i++) {\r\n            if (data[i].requirementId == _requirementId) {\r\n                ans[i] = data[i];\r\n            }\r\n        }\r\n        return ans;\r\n    }\r\n//  TODO Supply chain\r\n}\r\n",
  "sourcePath": "E:\\projects_workspaces\\competitions\\SPITHackathon\\WellCareChain\\contracts\\Interactions.sol",
  "compiler": {
    "name": "solc",
    "version": "0.4.23+commit.124ca40d.Emscripten.clang"
  },
  "schemaVersion": "2.0.0",
  "updatedAt": "2019-01-05T12:31:48.234Z"
}