{
  "contractName": "Interactions",
  "abi": [
    {
      "constant": false,
      "inputs": [
        {
          "name": "_name",
          "type": "string"
        },
        {
          "name": "_email",
          "type": "string"
        },
        {
          "name": "_license",
          "type": "string"
        },
        {
          "name": "_details",
          "type": "string"
        }
      ],
      "name": "newLab",
      "outputs": [],
      "payable": false,
      "stateMutability": "nonpayable",
      "type": "function",
      "signature": "0x025cccea"
    },
    {
      "constant": true,
      "inputs": [],
      "name": "noOfDataRequirements",
      "outputs": [
        {
          "name": "",
          "type": "uint256"
        }
      ],
      "payable": false,
      "stateMutability": "view",
      "type": "function",
      "signature": "0x0ba513eb"
    },
    {
      "constant": true,
      "inputs": [],
      "name": "noOfDoctors",
      "outputs": [
        {
          "name": "",
          "type": "uint256"
        }
      ],
      "payable": false,
      "stateMutability": "view",
      "type": "function",
      "signature": "0x2650afc0"
    },
    {
      "constant": true,
      "inputs": [],
      "name": "noOfData",
      "outputs": [
        {
          "name": "",
          "type": "uint256"
        }
      ],
      "payable": false,
      "stateMutability": "view",
      "type": "function",
      "signature": "0x37dbc670"
    },
    {
      "constant": true,
      "inputs": [
        {
          "name": "pathologyId",
          "type": "uint256"
        }
      ],
      "name": "getPathologyEmail",
      "outputs": [
        {
          "name": "",
          "type": "string"
        }
      ],
      "payable": false,
      "stateMutability": "view",
      "type": "function",
      "signature": "0x488a216f"
    },
    {
      "constant": true,
      "inputs": [
        {
          "name": "",
          "type": "uint256"
        }
      ],
      "name": "labs",
      "outputs": [
        {
          "name": "name",
          "type": "string"
        },
        {
          "name": "add",
          "type": "address"
        },
        {
          "name": "email",
          "type": "string"
        },
        {
          "name": "license",
          "type": "string"
        },
        {
          "name": "details",
          "type": "string"
        }
      ],
      "payable": false,
      "stateMutability": "view",
      "type": "function",
      "signature": "0x4bb7c644"
    },
    {
      "constant": true,
      "inputs": [
        {
          "name": "",
          "type": "uint256"
        }
      ],
      "name": "doctors",
      "outputs": [
        {
          "name": "name",
          "type": "string"
        },
        {
          "name": "add",
          "type": "address"
        },
        {
          "name": "email",
          "type": "string"
        },
        {
          "name": "license",
          "type": "string"
        },
        {
          "name": "physicalAdd",
          "type": "string"
        },
        {
          "name": "specialization",
          "type": "string"
        }
      ],
      "payable": false,
      "stateMutability": "view",
      "type": "function",
      "signature": "0x6efb1b84"
    },
    {
      "constant": false,
      "inputs": [],
      "name": "renounceOwnership",
      "outputs": [],
      "payable": false,
      "stateMutability": "nonpayable",
      "type": "function",
      "signature": "0x715018a6"
    },
    {
      "constant": true,
      "inputs": [],
      "name": "noOfPatients",
      "outputs": [
        {
          "name": "",
          "type": "uint256"
        }
      ],
      "payable": false,
      "stateMutability": "view",
      "type": "function",
      "signature": "0x84b828ba"
    },
    {
      "constant": true,
      "inputs": [
        {
          "name": "doctorId",
          "type": "uint256"
        }
      ],
      "name": "getDoctorEmail",
      "outputs": [
        {
          "name": "",
          "type": "string"
        }
      ],
      "payable": false,
      "stateMutability": "view",
      "type": "function",
      "signature": "0x8771883e"
    },
    {
      "constant": true,
      "inputs": [],
      "name": "owner",
      "outputs": [
        {
          "name": "",
          "type": "address"
        }
      ],
      "payable": false,
      "stateMutability": "view",
      "type": "function",
      "signature": "0x8da5cb5b"
    },
    {
      "constant": true,
      "inputs": [],
      "name": "isOwner",
      "outputs": [
        {
          "name": "",
          "type": "bool"
        }
      ],
      "payable": false,
      "stateMutability": "view",
      "type": "function",
      "signature": "0x8f32d59b"
    },
    {
      "constant": true,
      "inputs": [
        {
          "name": "",
          "type": "uint256"
        }
      ],
      "name": "patients",
      "outputs": [
        {
          "name": "name",
          "type": "string"
        },
        {
          "name": "add",
          "type": "address"
        },
        {
          "name": "email",
          "type": "string"
        },
        {
          "name": "driveURL",
          "type": "string"
        },
        {
          "name": "presURL",
          "type": "string"
        },
        {
          "name": "infoURL",
          "type": "string"
        },
        {
          "name": "reportsURL",
          "type": "string"
        },
        {
          "name": "presUsed",
          "type": "bool"
        }
      ],
      "payable": false,
      "stateMutability": "view",
      "type": "function",
      "signature": "0x93119a83"
    },
    {
      "constant": false,
      "inputs": [
        {
          "name": "_name",
          "type": "string"
        },
        {
          "name": "_email",
          "type": "string"
        },
        {
          "name": "_license",
          "type": "string"
        },
        {
          "name": "_physicalAdd",
          "type": "string"
        }
      ],
      "name": "newChemist",
      "outputs": [],
      "payable": false,
      "stateMutability": "nonpayable",
      "type": "function",
      "signature": "0x9be23de6"
    },
    {
      "constant": true,
      "inputs": [
        {
          "name": "labId",
          "type": "uint256"
        }
      ],
      "name": "getLabEmail",
      "outputs": [
        {
          "name": "",
          "type": "string"
        }
      ],
      "payable": false,
      "stateMutability": "view",
      "type": "function",
      "signature": "0x9d761aa0"
    },
    {
      "constant": true,
      "inputs": [],
      "name": "noOfLabs",
      "outputs": [
        {
          "name": "",
          "type": "uint256"
        }
      ],
      "payable": false,
      "stateMutability": "view",
      "type": "function",
      "signature": "0xa1816cc5"
    },
    {
      "constant": false,
      "inputs": [
        {
          "name": "_name",
          "type": "string"
        },
        {
          "name": "_email",
          "type": "string"
        },
        {
          "name": "_license",
          "type": "string"
        },
        {
          "name": "_physicalAdd",
          "type": "string"
        }
      ],
      "name": "newPathology",
      "outputs": [],
      "payable": false,
      "stateMutability": "nonpayable",
      "type": "function",
      "signature": "0xabc21a01"
    },
    {
      "constant": true,
      "inputs": [],
      "name": "noOfPathologies",
      "outputs": [
        {
          "name": "",
          "type": "uint256"
        }
      ],
      "payable": false,
      "stateMutability": "view",
      "type": "function",
      "signature": "0xb0a7a3b6"
    },
    {
      "constant": true,
      "inputs": [
        {
          "name": "",
          "type": "uint256"
        }
      ],
      "name": "dataRequirements",
      "outputs": [
        {
          "name": "message",
          "type": "string"
        },
        {
          "name": "labId",
          "type": "uint256"
        },
        {
          "name": "bountyForEach",
          "type": "uint256"
        },
        {
          "name": "number",
          "type": "uint256"
        },
        {
          "name": "gotData",
          "type": "uint256"
        }
      ],
      "payable": false,
      "stateMutability": "view",
      "type": "function",
      "signature": "0xcf436847"
    },
    {
      "constant": false,
      "inputs": [
        {
          "name": "_name",
          "type": "string"
        },
        {
          "name": "_email",
          "type": "string"
        },
        {
          "name": "_license",
          "type": "string"
        },
        {
          "name": "_physicalAdd",
          "type": "string"
        },
        {
          "name": "_specialization",
          "type": "string"
        }
      ],
      "name": "newDoctor",
      "outputs": [],
      "payable": false,
      "stateMutability": "nonpayable",
      "type": "function",
      "signature": "0xdc30b570"
    },
    {
      "constant": true,
      "inputs": [],
      "name": "noOfChemists",
      "outputs": [
        {
          "name": "",
          "type": "uint256"
        }
      ],
      "payable": false,
      "stateMutability": "view",
      "type": "function",
      "signature": "0xdfbce014"
    },
    {
      "constant": true,
      "inputs": [
        {
          "name": "",
          "type": "uint256"
        }
      ],
      "name": "chemists",
      "outputs": [
        {
          "name": "name",
          "type": "string"
        },
        {
          "name": "add",
          "type": "address"
        },
        {
          "name": "email",
          "type": "string"
        },
        {
          "name": "license",
          "type": "string"
        },
        {
          "name": "physicalAdd",
          "type": "string"
        }
      ],
      "payable": false,
      "stateMutability": "view",
      "type": "function",
      "signature": "0xe81dbf93"
    },
    {
      "constant": true,
      "inputs": [
        {
          "name": "",
          "type": "uint256"
        }
      ],
      "name": "data",
      "outputs": [
        {
          "name": "requirementId",
          "type": "uint256"
        },
        {
          "name": "patientId",
          "type": "uint256"
        },
        {
          "name": "url",
          "type": "string"
        }
      ],
      "payable": false,
      "stateMutability": "view",
      "type": "function",
      "signature": "0xf0ba8440"
    },
    {
      "constant": true,
      "inputs": [
        {
          "name": "chemistId",
          "type": "uint256"
        }
      ],
      "name": "getChemistEmail",
      "outputs": [
        {
          "name": "",
          "type": "string"
        }
      ],
      "payable": false,
      "stateMutability": "view",
      "type": "function",
      "signature": "0xf2907a88"
    },
    {
      "constant": false,
      "inputs": [
        {
          "name": "newOwner",
          "type": "address"
        }
      ],
      "name": "transferOwnership",
      "outputs": [],
      "payable": false,
      "stateMutability": "nonpayable",
      "type": "function",
      "signature": "0xf2fde38b"
    },
    {
      "constant": true,
      "inputs": [
        {
          "name": "",
          "type": "uint256"
        }
      ],
      "name": "pathologies",
      "outputs": [
        {
          "name": "name",
          "type": "string"
        },
        {
          "name": "add",
          "type": "address"
        },
        {
          "name": "email",
          "type": "string"
        },
        {
          "name": "license",
          "type": "string"
        },
        {
          "name": "physicalAdd",
          "type": "string"
        }
      ],
      "payable": false,
      "stateMutability": "view",
      "type": "function",
      "signature": "0xf7b8be96"
    },
    {
      "constant": false,
      "inputs": [
        {
          "name": "_name",
          "type": "string"
        },
        {
          "name": "_email",
          "type": "string"
        },
        {
          "name": "_driveURL",
          "type": "string"
        },
        {
          "name": "_presURL",
          "type": "string"
        },
        {
          "name": "_infoURL",
          "type": "string"
        },
        {
          "name": "_reportsURL",
          "type": "string"
        }
      ],
      "name": "newPatient",
      "outputs": [
        {
          "name": "",
          "type": "uint256"
        }
      ],
      "payable": false,
      "stateMutability": "nonpayable",
      "type": "function",
      "signature": "0xfa4afb39"
    },
    {
      "anonymous": false,
      "inputs": [
        {
          "indexed": false,
          "name": "message",
          "type": "string"
        },
        {
          "indexed": false,
          "name": "labId",
          "type": "uint256"
        },
        {
          "indexed": false,
          "name": "bountyForEach",
          "type": "uint256"
        }
      ],
      "name": "newDataRequirement",
      "type": "event",
      "signature": "0x25b369cbb30c42eaf0e0d5bbcf823a21a3aa3fb3398e53a04dd832a875325975"
    },
    {
      "anonymous": false,
      "inputs": [],
      "name": "NewDoctor",
      "type": "event",
      "signature": "0x8b3e4247c3ba182094ecb07b96b13b2700361dc87b0c572d355ff3332769be27"
    },
    {
      "anonymous": false,
      "inputs": [],
      "name": "NewChemist",
      "type": "event",
      "signature": "0x887d3dd26700d758ca8ed130eecc36ea0a826d9a83b614046d268b1dd9e45e61"
    },
    {
      "anonymous": false,
      "inputs": [],
      "name": "NewLab",
      "type": "event",
      "signature": "0xb8488399d50ea808802c76c56297b8bb7cbc1500c5634e2f95c8abb612c4cb5b"
    },
    {
      "anonymous": false,
      "inputs": [],
      "name": "NewPathology",
      "type": "event",
      "signature": "0xef9f1deae1b53015a27f2f6e18b1306a2c14d69d5e9d42f08298a7c58fc35ecd"
    },
    {
      "anonymous": false,
      "inputs": [
        {
          "indexed": true,
          "name": "previousOwner",
          "type": "address"
        },
        {
          "indexed": true,
          "name": "newOwner",
          "type": "address"
        }
      ],
      "name": "OwnershipTransferred",
      "type": "event",
      "signature": "0x8be0079c531659141344cd1fd0a4f28419497f9722a3daafe3b4186f6b6457e0"
    },
    {
      "constant": true,
      "inputs": [
        {
          "name": "addr",
          "type": "address"
        }
      ],
      "name": "getPatientId",
      "outputs": [
        {
          "name": "",
          "type": "int256"
        }
      ],
      "payable": false,
      "stateMutability": "view",
      "type": "function",
      "signature": "0x2604fa7b"
    },
    {
      "constant": true,
      "inputs": [
        {
          "name": "addr",
          "type": "address"
        }
      ],
      "name": "getDoctorId",
      "outputs": [
        {
          "name": "",
          "type": "int256"
        }
      ],
      "payable": false,
      "stateMutability": "view",
      "type": "function",
      "signature": "0xb9ee6920"
    },
    {
      "constant": true,
      "inputs": [
        {
          "name": "addr",
          "type": "address"
        }
      ],
      "name": "getLabId",
      "outputs": [
        {
          "name": "",
          "type": "int256"
        }
      ],
      "payable": false,
      "stateMutability": "view",
      "type": "function",
      "signature": "0xbca71f46"
    },
    {
      "constant": true,
      "inputs": [
        {
          "name": "addr",
          "type": "address"
        }
      ],
      "name": "getPathologyId",
      "outputs": [
        {
          "name": "",
          "type": "int256"
        }
      ],
      "payable": false,
      "stateMutability": "view",
      "type": "function",
      "signature": "0x2839abdd"
    },
    {
      "constant": true,
      "inputs": [
        {
          "name": "addr",
          "type": "address"
        }
      ],
      "name": "getChemistId",
      "outputs": [
        {
          "name": "",
          "type": "int256"
        }
      ],
      "payable": false,
      "stateMutability": "view",
      "type": "function",
      "signature": "0xd5c5e927"
    },
    {
      "constant": false,
      "inputs": [
        {
          "name": "_patientId",
          "type": "uint256"
        },
        {
          "name": "_doctorId",
          "type": "uint256"
        },
        {
          "name": "_fees",
          "type": "uint256"
        }
      ],
      "name": "payToDoctor",
      "outputs": [],
      "payable": true,
      "stateMutability": "payable",
      "type": "function",
      "signature": "0xc48189dd"
    },
    {
      "constant": false,
      "inputs": [
        {
          "name": "_patientId",
          "type": "uint256"
        },
        {
          "name": "_pathologyId",
          "type": "uint256"
        },
        {
          "name": "_fees",
          "type": "uint256"
        },
        {
          "name": "info",
          "type": "string"
        }
      ],
      "name": "payToPathology",
      "outputs": [],
      "payable": true,
      "stateMutability": "payable",
      "type": "function",
      "signature": "0xe00fb058"
    },
    {
      "constant": false,
      "inputs": [
        {
          "name": "_patientId",
          "type": "uint256"
        },
        {
          "name": "_chemistId",
          "type": "uint256"
        },
        {
          "name": "_fees",
          "type": "uint256"
        }
      ],
      "name": "payToChemist",
      "outputs": [],
      "payable": true,
      "stateMutability": "payable",
      "type": "function",
      "signature": "0x7a0a5950"
    },
    {
      "constant": false,
      "inputs": [
        {
          "name": "_message",
          "type": "string"
        },
        {
          "name": "_number",
          "type": "uint256"
        }
      ],
      "name": "alertDataRequirement",
      "outputs": [],
      "payable": true,
      "stateMutability": "payable",
      "type": "function",
      "signature": "0x49e97e6b"
    },
    {
      "constant": false,
      "inputs": [
        {
          "name": "_requirementId",
          "type": "uint256"
        },
        {
          "name": "_url",
          "type": "string"
        }
      ],
      "name": "getBounty",
      "outputs": [],
      "payable": false,
      "stateMutability": "nonpayable",
      "type": "function",
      "signature": "0x6208b8f6"
    },
    {
      "constant": true,
      "inputs": [
        {
          "name": "_requirementId",
          "type": "uint256"
        }
      ],
      "name": "accessData",
      "outputs": [
        {
          "components": [
            {
              "name": "requirementId",
              "type": "uint256"
            },
            {
              "name": "patientId",
              "type": "uint256"
            },
            {
              "name": "url",
              "type": "string"
            }
          ],
          "name": "ans",
          "type": "tuple[]"
        }
      ],
      "payable": false,
      "stateMutability": "view",
      "type": "function",
      "signature": "0x53177c9f"
    }
  ],
  "bytecode": "0x60806040526000600155600060025560006003556000600455600060055560006006556000600755336000806101000a81548173ffffffffffffffffffffffffffffffffffffffff021916908373ffffffffffffffffffffffffffffffffffffffff1602179055506000809054906101000a900473ffffffffffffffffffffffffffffffffffffffff1673ffffffffffffffffffffffffffffffffffffffff16600073ffffffffffffffffffffffffffffffffffffffff167f8be0079c531659141344cd1fd0a4f28419497f9722a3daafe3b4186f6b6457e060405160405180910390a361471f806100f26000396000f3006080604052600436106101d8576000357c0100000000000000000000000000000000000000000000000000000000900463ffffffff168063025cccea146101dd5780630ba513eb146102065780632604fa7b146102315780632650afc01461026e5780632839abdd1461029957806337dbc670146102d6578063488a216f1461030157806349e97e6b1461033e5780634bb7c6441461035a57806353177c9f1461039b5780636208b8f6146103d85780636efb1b8414610401578063715018a6146104435780637a0a59501461045a57806384b828ba146104765780638771883e146104a15780638da5cb5b146104de5780638f32d59b1461050957806393119a83146105345780639be23de6146105785780639d761aa0146105a1578063a1816cc5146105de578063abc21a0114610609578063b0a7a3b614610632578063b9ee69201461065d578063bca71f461461069a578063c48189dd146106d7578063cf436847146106f3578063d5c5e92714610734578063dc30b57014610771578063dfbce0141461079a578063e00fb058146107c5578063e81dbf93146107e1578063f0ba844014610822578063f2907a8814610861578063f2fde38b1461089e578063f7b8be96146108c7578063fa4afb3914610908575b600080fd5b3480156101e957600080fd5b5061020460048036036101ff9190810190613806565b610945565b005b34801561021257600080fd5b5061021b610a86565b604051610228919061453b565b60405180910390f35b34801561023d57600080fd5b50610258600480360361025391908101906137dd565b610a8c565b604051610265919061416b565b60405180910390f35b34801561027a57600080fd5b50610283610b51565b604051610290919061453b565b60405180910390f35b3480156102a557600080fd5b506102c060048036036102bb91908101906137dd565b610b57565b6040516102cd919061416b565b60405180910390f35b3480156102e257600080fd5b506102eb610c1c565b6040516102f8919061453b565b60405180910390f35b34801561030d57600080fd5b5061032860048036036103239190810190613b25565b610c22565b6040516103359190614186565b60405180910390f35b61035860048036036103539190810190613ad1565b610ce4565b005b34801561036657600080fd5b50610381600480360361037c9190810190613b25565b610e6c565b6040516103929594939291906141e6565b60405180910390f35b3480156103a757600080fd5b506103c260048036036103bd9190810190613b25565b611131565b6040516103cf919061412e565b60405180910390f35b3480156103e457600080fd5b506103ff60048036036103fa9190810190613b4e565b6113a4565b005b34801561040d57600080fd5b5061042860048036036104239190810190613b25565b611636565b60405161043a96959493929190614255565b60405180910390f35b34801561044f57600080fd5b50610458611999565b005b610474600480360361046f9190810190613ba2565b611aa1565b005b34801561048257600080fd5b5061048b611c73565b604051610498919061453b565b60405180910390f35b3480156104ad57600080fd5b506104c860048036036104c39190810190613b25565b611c79565b6040516104d59190614186565b60405180910390f35b3480156104ea57600080fd5b506104f3611d3b565b6040516105009190614113565b60405180910390f35b34801561051557600080fd5b5061051e611d64565b60405161052b9190614150565b60405180910390f35b34801561054057600080fd5b5061055b60048036036105569190810190613b25565b611dbb565b60405161056f9897969594939291906142d9565b60405180910390f35b34801561058457600080fd5b5061059f600480360361059a9190810190613806565b6121cf565b005b3480156105ad57600080fd5b506105c860048036036105c39190810190613b25565b612310565b6040516105d59190614186565b60405180910390f35b3480156105ea57600080fd5b506105f36123d2565b604051610600919061453b565b60405180910390f35b34801561061557600080fd5b50610630600480360361062b9190810190613806565b6123d8565b005b34801561063e57600080fd5b50610647612519565b604051610654919061453b565b60405180910390f35b34801561066957600080fd5b50610684600480360361067f91908101906137dd565b61251f565b604051610691919061416b565b60405180910390f35b3480156106a657600080fd5b506106c160048036036106bc91908101906137dd565b6125e4565b6040516106ce919061416b565b60405180910390f35b6106f160048036036106ec9190810190613ba2565b6126a9565b005b3480156106ff57600080fd5b5061071a60048036036107159190810190613b25565b61280b565b60405161072b959493929190614381565b60405180910390f35b34801561074057600080fd5b5061075b600480360361075691908101906137dd565b6128e8565b604051610768919061416b565b60405180910390f35b34801561077d57600080fd5b50610798600480360361079391908101906138c9565b6129ad565b005b3480156107a657600080fd5b506107af612b12565b6040516107bc919061453b565b60405180910390f35b6107df60048036036107da9190810190613bf1565b612b18565b005b3480156107ed57600080fd5b5061080860048036036108039190810190613b25565b612c42565b6040516108199594939291906141e6565b60405180910390f35b34801561082e57600080fd5b5061084960048036036108449190810190613b25565b612f07565b60405161085893929190614556565b60405180910390f35b34801561086d57600080fd5b5061088860048036036108839190810190613b25565b612fd8565b6040516108959190614186565b60405180910390f35b3480156108aa57600080fd5b506108c560048036036108c091908101906137dd565b61309a565b005b3480156108d357600080fd5b506108ee60048036036108e99190810190613b25565b6130ef565b6040516108ff9594939291906141e6565b60405180910390f35b34801561091457600080fd5b5061092f600480360361092a91908101906139b8565b6133b4565b60405161093c919061453b565b60405180910390f35b600b60a0604051908101604052808681526020013373ffffffffffffffffffffffffffffffffffffffff168152602001858152602001848152602001838152509080600181540180825580915050906001820390600052602060002090600502016000909192909190915060008201518160000190805190602001906109cc929190613698565b5060208201518160010160006101000a81548173ffffffffffffffffffffffffffffffffffffffff021916908373ffffffffffffffffffffffffffffffffffffffff1602179055506040820151816002019080519060200190610a30929190613698565b506060820151816003019080519060200190610a4d929190613698565b506080820151816004019080519060200190610a6a929190613698565b5050505060046000815480929190600101919050555050505050565b60075481565b600080600090505b600154811015610b2757600881815481101515610aad57fe5b906000526020600020906008020160010160009054906101000a900473ffffffffffffffffffffffffffffffffffffffff1673ffffffffffffffffffffffffffffffffffffffff168373ffffffffffffffffffffffffffffffffffffffff161415610b1a57809150610b4b565b8080600101915050610a94565b7fffffffffffffffffffffffffffffffffffffffffffffffffffffffffffffffff91505b50919050565b60025481565b600080600090505b600554811015610bf257600c81815481101515610b7857fe5b906000526020600020906005020160010160009054906101000a900473ffffffffffffffffffffffffffffffffffffffff1673ffffffffffffffffffffffffffffffffffffffff168373ffffffffffffffffffffffffffffffffffffffff161415610be557809150610c16565b8080600101915050610b5f565b7fffffffffffffffffffffffffffffffffffffffffffffffffffffffffffffffff91505b50919050565b60065481565b6060600c82815481101515610c3357fe5b90600052602060002090600502016002018054600181600116156101000203166002900480601f016020809104026020016040519081016040528092919081815260200182805460018160011615610100020316600290048015610cd85780601f10610cad57610100808354040283529160200191610cd8565b820191906000526020600020905b815481529060010190602001808311610cbb57829003601f168201915b50505050509050919050565b600080610cf0336125e4565b905060008112151515610d38576040517f08c379a0000000000000000000000000000000000000000000000000000000008152600401610d2f906144fb565b60405180910390fd5b6064830234111515610d4957600080fd5b610d52336125e4565b91506001600d60a060405190810160405280878152602001858152602001610d83873461357490919063ffffffff16565b81526020018681526020016000815250908060018154018082558091505090600182039060005260206000209060050201600090919290919091506000820151816000019080519060200190610dda929190613698565b5060208201518160010155604082015181600201556060820151816003015560808201518160040155505050506007600081548092919060010191905055507f25b369cbb30c42eaf0e0d5bbcf823a21a3aa3fb3398e53a04dd832a8753259758483610e4f863461357490919063ffffffff16565b604051610e5e939291906141a8565b60405180910390a150505050565b600b81815481101515610e7b57fe5b9060005260206000209060050201600091509050806000018054600181600116156101000203166002900480601f016020809104026020016040519081016040528092919081815260200182805460018160011615610100020316600290048015610f275780601f10610efc57610100808354040283529160200191610f27565b820191906000526020600020905b815481529060010190602001808311610f0a57829003601f168201915b5050505050908060010160009054906101000a900473ffffffffffffffffffffffffffffffffffffffff1690806002018054600181600116156101000203166002900480601f016020809104026020016040519081016040528092919081815260200182805460018160011615610100020316600290048015610feb5780601f10610fc057610100808354040283529160200191610feb565b820191906000526020600020905b815481529060010190602001808311610fce57829003601f168201915b505050505090806003018054600181600116156101000203166002900480601f0160208091040260200160405190810160405280929190818152602001828054600181600116156101000203166002900480156110895780601f1061105e57610100808354040283529160200191611089565b820191906000526020600020905b81548152906001019060200180831161106c57829003601f168201915b505050505090806004018054600181600116156101000203166002900480601f0160208091040260200160405190810160405280929190818152602001828054600181600116156101000203166002900480156111275780601f106110fc57610100808354040283529160200191611127565b820191906000526020600020905b81548152906001019060200180831161110a57829003601f168201915b5050505050905085565b6060600080600080611142336125e4565b90506000811215151561118a576040517f08c379a0000000000000000000000000000000000000000000000000000000008152600401611181906144fb565b60405180910390fd5b611193336125e4565b935083600d878154811015156111a557fe5b9060005260206000209060050201600101541415156111f9576040517f08c379a00000000000000000000000000000000000000000000000000000000081526004016111f09061451b565b60405180910390fd5b600d8681548110151561120857fe5b90600052602060002090600502016004015492508260405190808252806020026020018201604052801561125657816020015b611243613718565b81526020019060019003908161123b5790505b509450600091505b6006548210156113985785600e8381548110151561127857fe5b906000526020600020906003020160000154141561138b57600e8281548110151561129f57fe5b9060005260206000209060030201606060405190810160405290816000820154815260200160018201548152602001600282018054600181600116156101000203166002900480601f0160208091040260200160405190810160405280929190818152602001828054600181600116156101000203166002900480156113665780601f1061133b57610100808354040283529160200191611366565b820191906000526020600020905b81548152906001019060200180831161134957829003601f168201915b505050505081525050858381518110151561137d57fe5b906020019060200201819052505b818060010192505061125e565b84945050505050919050565b60008060006113b233610a8c565b9050600081121515156113fa576040517f08c379a00000000000000000000000000000000000000000000000000000000081526004016113f19061441b565b60405180910390fd5b61140333610a8c565b9250600d8581548110151561141457fe5b906000526020600020906005020160030154600d8681548110151561143557fe5b906000526020600020906005020160040154101515611489576040517f08c379a00000000000000000000000000000000000000000000000000000000081526004016114809061447b565b60405180910390fd5b600091505b60065482101561153a5784600e838154811015156114a857fe5b906000526020600020906003020160000154141561152d5782600e838154811015156114d057fe5b906000526020600020906003020160010154141561152c576000151561152b576040517f08c379a0000000000000000000000000000000000000000000000000000000008152600401611522906144bb565b60405180910390fd5b5b5b818060010192505061148e565b600e6060604051908101604052808781526020018581526020018681525090806001815401808255809150509060018203906000526020600020906003020160009091929091909150600082015181600001556020820151816001015560408201518160020190805190602001906115b3929190613698565b5050505060016006600082825401925050819055503373ffffffffffffffffffffffffffffffffffffffff166108fc600d878154811015156115f157fe5b9060005260206000209060050201600201549081150290604051600060405180830381858888f1935050505015801561162e573d6000803e3d6000fd5b505050505050565b60098181548110151561164557fe5b9060005260206000209060060201600091509050806000018054600181600116156101000203166002900480601f0160208091040260200160405190810160405280929190818152602001828054600181600116156101000203166002900480156116f15780601f106116c6576101008083540402835291602001916116f1565b820191906000526020600020905b8154815290600101906020018083116116d457829003601f168201915b5050505050908060010160009054906101000a900473ffffffffffffffffffffffffffffffffffffffff1690806002018054600181600116156101000203166002900480601f0160208091040260200160405190810160405280929190818152602001828054600181600116156101000203166002900480156117b55780601f1061178a576101008083540402835291602001916117b5565b820191906000526020600020905b81548152906001019060200180831161179857829003601f168201915b505050505090806003018054600181600116156101000203166002900480601f0160208091040260200160405190810160405280929190818152602001828054600181600116156101000203166002900480156118535780601f1061182857610100808354040283529160200191611853565b820191906000526020600020905b81548152906001019060200180831161183657829003601f168201915b505050505090806004018054600181600116156101000203166002900480601f0160208091040260200160405190810160405280929190818152602001828054600181600116156101000203166002900480156118f15780601f106118c6576101008083540402835291602001916118f1565b820191906000526020600020905b8154815290600101906020018083116118d457829003601f168201915b505050505090806005018054600181600116156101000203166002900480601f01602080910402602001604051908101604052809291908181526020018280546001816001161561010002031660029004801561198f5780601f106119645761010080835404028352916020019161198f565b820191906000526020600020905b81548152906001019060200180831161197257829003601f168201915b5050505050905086565b6119a1611d64565b15156119e2576040517f08c379a00000000000000000000000000000000000000000000000000000000081526004016119d9906144db565b60405180910390fd5b600073ffffffffffffffffffffffffffffffffffffffff166000809054906101000a900473ffffffffffffffffffffffffffffffffffffffff1673ffffffffffffffffffffffffffffffffffffffff167f8be0079c531659141344cd1fd0a4f28419497f9722a3daafe3b4186f6b6457e060405160405180910390a360008060006101000a81548173ffffffffffffffffffffffffffffffffffffffff021916908373ffffffffffffffffffffffffffffffffffffffff160217905550565b600082600011158015611ab5575060035483105b1515611af6576040517f08c379a0000000000000000000000000000000000000000000000000000000008152600401611aed906143db565b60405180910390fd5b600884815481101515611b0557fe5b906000526020600020906008020160070160009054906101000a900460ff16151515611b66576040517f08c379a0000000000000000000000000000000000000000000000000000000008152600401611b5d9061443b565b60405180910390fd5b8134141515611baa576040517f08c379a0000000000000000000000000000000000000000000000000000000008152600401611ba19061445b565b60405180910390fd5b6001600885815481101515611bbb57fe5b906000526020600020906008020160070160006101000a81548160ff021916908315150217905550600a83815481101515611bf257fe5b906000526020600020906005020160010160009054906101000a900473ffffffffffffffffffffffffffffffffffffffff1690508073ffffffffffffffffffffffffffffffffffffffff166108fc839081150290604051600060405180830381858888f19350505050158015611c6c573d6000803e3d6000fd5b5050505050565b60015481565b6060600982815481101515611c8a57fe5b90600052602060002090600602016002018054600181600116156101000203166002900480601f016020809104026020016040519081016040528092919081815260200182805460018160011615610100020316600290048015611d2f5780601f10611d0457610100808354040283529160200191611d2f565b820191906000526020600020905b815481529060010190602001808311611d1257829003601f168201915b50505050509050919050565b60008060009054906101000a900473ffffffffffffffffffffffffffffffffffffffff16905090565b60008060009054906101000a900473ffffffffffffffffffffffffffffffffffffffff1673ffffffffffffffffffffffffffffffffffffffff163373ffffffffffffffffffffffffffffffffffffffff1614905090565b600881815481101515611dca57fe5b9060005260206000209060080201600091509050806000018054600181600116156101000203166002900480601f016020809104026020016040519081016040528092919081815260200182805460018160011615610100020316600290048015611e765780601f10611e4b57610100808354040283529160200191611e76565b820191906000526020600020905b815481529060010190602001808311611e5957829003601f168201915b5050505050908060010160009054906101000a900473ffffffffffffffffffffffffffffffffffffffff1690806002018054600181600116156101000203166002900480601f016020809104026020016040519081016040528092919081815260200182805460018160011615610100020316600290048015611f3a5780601f10611f0f57610100808354040283529160200191611f3a565b820191906000526020600020905b815481529060010190602001808311611f1d57829003601f168201915b505050505090806003018054600181600116156101000203166002900480601f016020809104026020016040519081016040528092919081815260200182805460018160011615610100020316600290048015611fd85780601f10611fad57610100808354040283529160200191611fd8565b820191906000526020600020905b815481529060010190602001808311611fbb57829003601f168201915b505050505090806004018054600181600116156101000203166002900480601f0160208091040260200160405190810160405280929190818152602001828054600181600116156101000203166002900480156120765780601f1061204b57610100808354040283529160200191612076565b820191906000526020600020905b81548152906001019060200180831161205957829003601f168201915b505050505090806005018054600181600116156101000203166002900480601f0160208091040260200160405190810160405280929190818152602001828054600181600116156101000203166002900480156121145780601f106120e957610100808354040283529160200191612114565b820191906000526020600020905b8154815290600101906020018083116120f757829003601f168201915b505050505090806006018054600181600116156101000203166002900480601f0160208091040260200160405190810160405280929190818152602001828054600181600116156101000203166002900480156121b25780601f10612187576101008083540402835291602001916121b2565b820191906000526020600020905b81548152906001019060200180831161219557829003601f168201915b5050505050908060070160009054906101000a900460ff16905088565b600a60a0604051908101604052808681526020013373ffffffffffffffffffffffffffffffffffffffff16815260200185815260200184815260200183815250908060018154018082558091505090600182039060005260206000209060050201600090919290919091506000820151816000019080519060200190612256929190613698565b5060208201518160010160006101000a81548173ffffffffffffffffffffffffffffffffffffffff021916908373ffffffffffffffffffffffffffffffffffffffff16021790555060408201518160020190805190602001906122ba929190613698565b5060608201518160030190805190602001906122d7929190613698565b5060808201518160040190805190602001906122f4929190613698565b5050505060036000815480929190600101919050555050505050565b6060600b8281548110151561232157fe5b90600052602060002090600502016002018054600181600116156101000203166002900480601f0160208091040260200160405190810160405280929190818152602001828054600181600116156101000203166002900480156123c65780601f1061239b576101008083540402835291602001916123c6565b820191906000526020600020905b8154815290600101906020018083116123a957829003601f168201915b50505050509050919050565b60045481565b600c60a0604051908101604052808681526020013373ffffffffffffffffffffffffffffffffffffffff1681526020018581526020018481526020018381525090806001815401808255809150509060018203906000526020600020906005020160009091929091909150600082015181600001908051906020019061245f929190613698565b5060208201518160010160006101000a81548173ffffffffffffffffffffffffffffffffffffffff021916908373ffffffffffffffffffffffffffffffffffffffff16021790555060408201518160020190805190602001906124c3929190613698565b5060608201518160030190805190602001906124e0929190613698565b5060808201518160040190805190602001906124fd929190613698565b5050505060056000815480929190600101919050555050505050565b60055481565b600080600090505b6002548110156125ba5760098181548110151561254057fe5b906000526020600020906006020160010160009054906101000a900473ffffffffffffffffffffffffffffffffffffffff1673ffffffffffffffffffffffffffffffffffffffff168373ffffffffffffffffffffffffffffffffffffffff1614156125ad578091506125de565b8080600101915050612527565b7fffffffffffffffffffffffffffffffffffffffffffffffffffffffffffffffff91505b50919050565b600080600090505b60045481101561267f57600b8181548110151561260557fe5b906000526020600020906005020160010160009054906101000a900473ffffffffffffffffffffffffffffffffffffffff1673ffffffffffffffffffffffffffffffffffffffff168373ffffffffffffffffffffffffffffffffffffffff161415612672578091506126a3565b80806001019150506125ec565b7fffffffffffffffffffffffffffffffffffffffffffffffffffffffffffffffff91505b50919050565b6000826000111580156126bd575060025483105b15156126fe576040517f08c379a00000000000000000000000000000000000000000000000000000000081526004016126f59061449b565b60405180910390fd5b8134141515612742576040517f08c379a00000000000000000000000000000000000000000000000000000000081526004016127399061445b565b60405180910390fd5b60098381548110151561275157fe5b906000526020600020906006020160010160009054906101000a900473ffffffffffffffffffffffffffffffffffffffff169050600060088581548110151561279657fe5b906000526020600020906008020160070160006101000a81548160ff0219169083151502179055508073ffffffffffffffffffffffffffffffffffffffff166108fc839081150290604051600060405180830381858888f19350505050158015612804573d6000803e3d6000fd5b5050505050565b600d8181548110151561281a57fe5b9060005260206000209060050201600091509050806000018054600181600116156101000203166002900480601f0160208091040260200160405190810160405280929190818152602001828054600181600116156101000203166002900480156128c65780601f1061289b576101008083540402835291602001916128c6565b820191906000526020600020905b8154815290600101906020018083116128a957829003601f168201915b5050505050908060010154908060020154908060030154908060040154905085565b600080600090505b60035481101561298357600a8181548110151561290957fe5b906000526020600020906005020160010160009054906101000a900473ffffffffffffffffffffffffffffffffffffffff1673ffffffffffffffffffffffffffffffffffffffff168373ffffffffffffffffffffffffffffffffffffffff161415612976578091506129a7565b80806001019150506128f0565b7fffffffffffffffffffffffffffffffffffffffffffffffffffffffffffffffff91505b50919050565b600960c0604051908101604052808781526020013373ffffffffffffffffffffffffffffffffffffffff16815260200186815260200185815260200184815260200183815250908060018154018082558091505090600182039060005260206000209060060201600090919290919091506000820151816000019080519060200190612a3a929190613698565b5060208201518160010160006101000a81548173ffffffffffffffffffffffffffffffffffffffff021916908373ffffffffffffffffffffffffffffffffffffffff1602179055506040820151816002019080519060200190612a9e929190613698565b506060820151816003019080519060200190612abb929190613698565b506080820151816004019080519060200190612ad8929190613698565b5060a0820151816005019080519060200190612af5929190613698565b505050506002600081548092919060010191905055505050505050565b60035481565b600083600011158015612b2c575060055484105b1515612b6d576040517f08c379a0000000000000000000000000000000000000000000000000000000008152600401612b64906143fb565b60405180910390fd5b8234141515612bb1576040517f08c379a0000000000000000000000000000000000000000000000000000000008152600401612ba89061445b565b60405180910390fd5b600c84815481101515612bc057fe5b906000526020600020906005020160010160009054906101000a900473ffffffffffffffffffffffffffffffffffffffff1690508073ffffffffffffffffffffffffffffffffffffffff166108fc849081150290604051600060405180830381858888f19350505050158015612c3a573d6000803e3d6000fd5b505050505050565b600a81815481101515612c5157fe5b9060005260206000209060050201600091509050806000018054600181600116156101000203166002900480601f016020809104026020016040519081016040528092919081815260200182805460018160011615610100020316600290048015612cfd5780601f10612cd257610100808354040283529160200191612cfd565b820191906000526020600020905b815481529060010190602001808311612ce057829003601f168201915b5050505050908060010160009054906101000a900473ffffffffffffffffffffffffffffffffffffffff1690806002018054600181600116156101000203166002900480601f016020809104026020016040519081016040528092919081815260200182805460018160011615610100020316600290048015612dc15780601f10612d9657610100808354040283529160200191612dc1565b820191906000526020600020905b815481529060010190602001808311612da457829003601f168201915b505050505090806003018054600181600116156101000203166002900480601f016020809104026020016040519081016040528092919081815260200182805460018160011615610100020316600290048015612e5f5780601f10612e3457610100808354040283529160200191612e5f565b820191906000526020600020905b815481529060010190602001808311612e4257829003601f168201915b505050505090806004018054600181600116156101000203166002900480601f016020809104026020016040519081016040528092919081815260200182805460018160011615610100020316600290048015612efd5780601f10612ed257610100808354040283529160200191612efd565b820191906000526020600020905b815481529060010190602001808311612ee057829003601f168201915b5050505050905085565b600e81815481101515612f1657fe5b9060005260206000209060030201600091509050806000015490806001015490806002018054600181600116156101000203166002900480601f016020809104026020016040519081016040528092919081815260200182805460018160011615610100020316600290048015612fce5780601f10612fa357610100808354040283529160200191612fce565b820191906000526020600020905b815481529060010190602001808311612fb157829003601f168201915b5050505050905083565b6060600a82815481101515612fe957fe5b90600052602060002090600502016002018054600181600116156101000203166002900480601f01602080910402602001604051908101604052809291908181526020018280546001816001161561010002031660029004801561308e5780601f106130635761010080835404028352916020019161308e565b820191906000526020600020905b81548152906001019060200180831161307157829003601f168201915b50505050509050919050565b6130a2611d64565b15156130e3576040517f08c379a00000000000000000000000000000000000000000000000000000000081526004016130da906144db565b60405180910390fd5b6130ec8161359e565b50565b600c818154811015156130fe57fe5b9060005260206000209060050201600091509050806000018054600181600116156101000203166002900480601f0160208091040260200160405190810160405280929190818152602001828054600181600116156101000203166002900480156131aa5780601f1061317f576101008083540402835291602001916131aa565b820191906000526020600020905b81548152906001019060200180831161318d57829003601f168201915b5050505050908060010160009054906101000a900473ffffffffffffffffffffffffffffffffffffffff1690806002018054600181600116156101000203166002900480601f01602080910402602001604051908101604052809291908181526020018280546001816001161561010002031660029004801561326e5780601f106132435761010080835404028352916020019161326e565b820191906000526020600020905b81548152906001019060200180831161325157829003601f168201915b505050505090806003018054600181600116156101000203166002900480601f01602080910402602001604051908101604052809291908181526020018280546001816001161561010002031660029004801561330c5780601f106132e15761010080835404028352916020019161330c565b820191906000526020600020905b8154815290600101906020018083116132ef57829003601f168201915b505050505090806004018054600181600116156101000203166002900480601f0160208091040260200160405190810160405280929190818152602001828054600181600116156101000203166002900480156133aa5780601f1061337f576101008083540402835291602001916133aa565b820191906000526020600020905b81548152906001019060200180831161338d57829003601f168201915b5050505050905085565b60008060016008610100604051908101604052808b81526020013373ffffffffffffffffffffffffffffffffffffffff1681526020018a815260200189815260200188815260200187815260200186815260200160011515815250908060018154018082558091505090600182039060005260206000209060080201600090919290919091506000820151816000019080519060200190613456929190613698565b5060208201518160010160006101000a81548173ffffffffffffffffffffffffffffffffffffffff021916908373ffffffffffffffffffffffffffffffffffffffff16021790555060408201518160020190805190602001906134ba929190613698565b5060608201518160030190805190602001906134d7929190613698565b5060808201518160040190805190602001906134f4929190613698565b5060a0820151816005019080519060200190613511929190613698565b5060c082015181600601908051906020019061352e929190613698565b5060e08201518160070160006101000a81548160ff0219169083151502179055505050039050600160008154809291906001019190505550809150509695505050505050565b60008060008311151561358657600080fd5b828481151561359157fe5b0490508091505092915050565b600073ffffffffffffffffffffffffffffffffffffffff168173ffffffffffffffffffffffffffffffffffffffff16141515156135da57600080fd5b8073ffffffffffffffffffffffffffffffffffffffff166000809054906101000a900473ffffffffffffffffffffffffffffffffffffffff1673ffffffffffffffffffffffffffffffffffffffff167f8be0079c531659141344cd1fd0a4f28419497f9722a3daafe3b4186f6b6457e060405160405180910390a3806000806101000a81548173ffffffffffffffffffffffffffffffffffffffff021916908373ffffffffffffffffffffffffffffffffffffffff16021790555050565b828054600181600116156101000203166002900490600052602060002090601f016020900481019282601f106136d957805160ff1916838001178555613707565b82800160010185558215613707579182015b828111156137065782518255916020019190600101906136eb565b5b509050613714919061373a565b5090565b6060604051908101604052806000815260200160008152602001606081525090565b61375c91905b80821115613758576000816000905550600101613740565b5090565b90565b600061376b8235614668565b905092915050565b600082601f830112151561378657600080fd5b8135613799613794826145c1565b614594565b915080825260208301602083018583830111156137b557600080fd5b6137c0838284614692565b50505092915050565b60006137d58235614688565b905092915050565b6000602082840312156137ef57600080fd5b60006137fd8482850161375f565b91505092915050565b6000806000806080858703121561381c57600080fd5b600085013567ffffffffffffffff81111561383657600080fd5b61384287828801613773565b945050602085013567ffffffffffffffff81111561385f57600080fd5b61386b87828801613773565b935050604085013567ffffffffffffffff81111561388857600080fd5b61389487828801613773565b925050606085013567ffffffffffffffff8111156138b157600080fd5b6138bd87828801613773565b91505092959194509250565b600080600080600060a086880312156138e157600080fd5b600086013567ffffffffffffffff8111156138fb57600080fd5b61390788828901613773565b955050602086013567ffffffffffffffff81111561392457600080fd5b61393088828901613773565b945050604086013567ffffffffffffffff81111561394d57600080fd5b61395988828901613773565b935050606086013567ffffffffffffffff81111561397657600080fd5b61398288828901613773565b925050608086013567ffffffffffffffff81111561399f57600080fd5b6139ab88828901613773565b9150509295509295909350565b60008060008060008060c087890312156139d157600080fd5b600087013567ffffffffffffffff8111156139eb57600080fd5b6139f789828a01613773565b965050602087013567ffffffffffffffff811115613a1457600080fd5b613a2089828a01613773565b955050604087013567ffffffffffffffff811115613a3d57600080fd5b613a4989828a01613773565b945050606087013567ffffffffffffffff811115613a6657600080fd5b613a7289828a01613773565b935050608087013567ffffffffffffffff811115613a8f57600080fd5b613a9b89828a01613773565b92505060a087013567ffffffffffffffff811115613ab857600080fd5b613ac489828a01613773565b9150509295509295509295565b60008060408385031215613ae457600080fd5b600083013567ffffffffffffffff811115613afe57600080fd5b613b0a85828601613773565b9250506020613b1b858286016137c9565b9150509250929050565b600060208284031215613b3757600080fd5b6000613b45848285016137c9565b91505092915050565b60008060408385031215613b6157600080fd5b6000613b6f858286016137c9565b925050602083013567ffffffffffffffff811115613b8c57600080fd5b613b9885828601613773565b9150509250929050565b600080600060608486031215613bb757600080fd5b6000613bc5868287016137c9565b9350506020613bd6868287016137c9565b9250506040613be7868287016137c9565b9150509250925092565b60008060008060808587031215613c0757600080fd5b6000613c15878288016137c9565b9450506020613c26878288016137c9565b9350506040613c37878288016137c9565b925050606085013567ffffffffffffffff811115613c5457600080fd5b613c6087828801613773565b91505092959194509250565b613c7581614628565b82525050565b6000613c86826145fa565b80845260208401935083602082028501613c9f856145ed565b60005b84811015613cd8578383038852613cba8383516140b4565b9250613cc58261461b565b9150602088019750600181019050613ca2565b508196508694505050505092915050565b613cf281614648565b82525050565b613d0181614654565b82525050565b6000613d1282614610565b808452613d268160208601602086016146a1565b613d2f816146d4565b602085010191505092915050565b6000613d4882614605565b808452613d5c8160208601602086016146a1565b613d65816146d4565b602085010191505092915050565b6000601682527f4368656d69737420646f6573206e6f74206578697374000000000000000000006020830152604082019050919050565b6000601882527f506174686f6c6f677920646f6573206e6f7420657869737400000000000000006020830152604082019050919050565b6000602882527f46756e6374696f6e2063616e2062652063616c6c65642062792061207061746960208301527f656e74206f6e6c790000000000000000000000000000000000000000000000006040830152606082019050919050565b6000602282527f4d65646963696e6573206861766520616c7265616479206265656e2074616b6560208301527f6e210000000000000000000000000000000000000000000000000000000000006040830152606082019050919050565b6000601182527f46656573206e6f74206d61746368696e670000000000000000000000000000006020830152604082019050919050565b6000602682527f526571756972656d656e742068617320616c7265616479206265656e2066756c60208301527f66696c6c656400000000000000000000000000000000000000000000000000006040830152606082019050919050565b6000601582527f446f63746f7220646f6573206e6f7420657869737400000000000000000000006020830152604082019050919050565b6000603482527f596f75206861766520616c7265616479207375626d697474656420646174612060208301527f666f72207468697320726571756972656d656e740000000000000000000000006040830152606082019050919050565b6000602a82527f43616e206f6e6c792062652065786563757465642062792074686520676f766560208301527f726e696e6720626f6479000000000000000000000000000000000000000000006040830152606082019050919050565b6000602482527f46756e6374696f6e2063616e2062652063616c6c65642062792061206c61622060208301527f6f6e6c79000000000000000000000000000000000000000000000000000000006040830152606082019050919050565b6000601b82527f596f752063616e6e6f74206163636573732074686973206461746100000000006020830152604082019050919050565b60006060830160008301516140cc6000860182614104565b5060208301516140df6020860182614104565b50604083015184820360408601526140f78282613d3d565b9150508091505092915050565b61410d8161465e565b82525050565b60006020820190506141286000830184613c6c565b92915050565b600060208201905081810360008301526141488184613c7b565b905092915050565b60006020820190506141656000830184613ce9565b92915050565b60006020820190506141806000830184613cf8565b92915050565b600060208201905081810360008301526141a08184613d07565b905092915050565b600060608201905081810360008301526141c28186613d07565b90506141d16020830185614104565b6141de6040830184614104565b949350505050565b600060a08201905081810360008301526142008188613d3d565b905061420f6020830187613c6c565b81810360408301526142218186613d3d565b905081810360608301526142358185613d3d565b905081810360808301526142498184613d3d565b90509695505050505050565b600060c082019050818103600083015261426f8189613d3d565b905061427e6020830188613c6c565b81810360408301526142908187613d3d565b905081810360608301526142a48186613d3d565b905081810360808301526142b88185613d3d565b905081810360a08301526142cc8184613d3d565b9050979650505050505050565b60006101008201905081810360008301526142f4818b613d3d565b9050614303602083018a613c6c565b81810360408301526143158189613d3d565b905081810360608301526143298188613d3d565b9050818103608083015261433d8187613d3d565b905081810360a08301526143518186613d3d565b905081810360c08301526143658185613d3d565b905061437460e0830184613ce9565b9998505050505050505050565b600060a082019050818103600083015261439b8188613d3d565b90506143aa6020830187614104565b6143b76040830186614104565b6143c46060830185614104565b6143d16080830184614104565b9695505050505050565b600060208201905081810360008301526143f481613d73565b9050919050565b6000602082019050818103600083015261441481613daa565b9050919050565b6000602082019050818103600083015261443481613de1565b9050919050565b6000602082019050818103600083015261445481613e3e565b9050919050565b6000602082019050818103600083015261447481613e9b565b9050919050565b6000602082019050818103600083015261449481613ed2565b9050919050565b600060208201905081810360008301526144b481613f2f565b9050919050565b600060208201905081810360008301526144d481613f66565b9050919050565b600060208201905081810360008301526144f481613fc3565b9050919050565b6000602082019050818103600083015261451481614020565b9050919050565b600060208201905081810360008301526145348161407d565b9050919050565b60006020820190506145506000830184614104565b92915050565b600060608201905061456b6000830186614104565b6145786020830185614104565b818103604083015261458a8184613d3d565b9050949350505050565b6000604051905081810181811067ffffffffffffffff821117156145b757600080fd5b8060405250919050565b600067ffffffffffffffff8211156145d857600080fd5b601f19601f8301169050602081019050919050565b6000602082019050919050565b600081519050919050565b600081519050919050565b600081519050919050565b6000602082019050919050565b600073ffffffffffffffffffffffffffffffffffffffff82169050919050565b60008115159050919050565b6000819050919050565b6000819050919050565b600073ffffffffffffffffffffffffffffffffffffffff82169050919050565b6000819050919050565b82818337600083830152505050565b60005b838110156146bf5780820151818401526020810190506146a4565b838111156146ce576000848401525b50505050565b6000601f19601f83011690509190505600a265627a7a72305820e45651a8ba91ea60729bce5c8d45e173618001fd1c30d59eeccecd44c0b9b4b96c6578706572696d656e74616cf50037",
  "source": "pragma solidity ^0.4.23;\r\npragma experimental ABIEncoderV2;\r\n\r\nimport \"./Factory.sol\";\r\nimport \"./SafeMath.sol\";\r\n\r\ncontract Interactions is Factory {\r\n    using SafeMath for uint256;\r\n\r\n    event newDataRequirement(string message, uint labId, uint bountyForEach);\r\n\r\n    function getPatientId(address addr) public view returns(int){\r\n        for (uint i = 0; i < noOfPatients; i++)\r\n            if (addr == patients[i].add)\r\n                return int(i);\r\n        return - 1;\r\n    }\r\n\r\n    function getDoctorId(address addr) public view returns(int){\r\n        for (uint i = 0; i < noOfDoctors; i++)\r\n            if (addr == doctors[i].add)\r\n                return int(i);\r\n        return - 1;\r\n    }\r\n\r\n    function getLabId(address addr) public view returns(int){\r\n        for (uint i = 0; i < noOfLabs; i++)\r\n            if (addr == labs[i].add)\r\n                return int(i);\r\n        return - 1;\r\n    }\r\n\r\n    function getPathologyId(address addr) public view returns(int){\r\n        for (uint i = 0; i < noOfPathologies; i++)\r\n            if (addr == pathologies[i].add)\r\n                return int(i);\r\n        return - 1;\r\n    }\r\n\r\n    function getChemistId(address addr) public view returns(int){\r\n        for (uint i = 0; i < noOfChemists; i++)\r\n            if (addr == chemists[i].add)\r\n                return int(i);\r\n        return - 1;\r\n    }\r\n\r\n    modifier senderIsLab() {\r\n        int id = getLabId(msg.sender);\r\n        require(id >= 0, \"Function can be called by a lab only\");\r\n        _;\r\n    }\r\n    modifier senderIsPatient() {\r\n        int id = getPatientId(msg.sender);\r\n        require(id >= 0, \"Function can be called by a patient only\");\r\n        _;\r\n    }\r\n\r\n    function payToDoctor(uint _patientId, uint _doctorId, uint _fees) public payable\r\n    {\r\n        require(0 <= _doctorId && _doctorId < noOfDoctors, \"Doctor does not exist\");\r\n        require(msg.value == _fees, \"Fees not matching\");\r\n        address docAddress = doctors[_doctorId].add;\r\n        patients[_patientId].presUsed = false;\r\n        docAddress.transfer(_fees);\r\n    }\r\n\r\n    function payToPathology(uint _patientId, uint _pathologyId, uint _fees, string info) public payable\r\n    {\r\n        require(0 <= _pathologyId && _pathologyId < noOfPathologies, \"Pathology does not exist\");\r\n        require(msg.value == _fees, \"Fees not matching\");\r\n        address pathologyAddress = pathologies[_pathologyId].add;\r\n        pathologyAddress.transfer(_fees);\r\n    }\r\n\r\n    function payToChemist(uint _patientId, uint _chemistId, uint _fees) public payable\r\n    {\r\n        require(0 <= _chemistId && _chemistId < noOfChemists, \"Chemist does not exist\");\r\n        require(!patients[_patientId].presUsed, \"Medicines have already been taken!\");\r\n        require(msg.value == _fees, \"Fees not matching\");\r\n        patients[_patientId].presUsed = true;\r\n        address chemistAddress = chemists[_chemistId].add;\r\n        chemistAddress.transfer(_fees);\r\n    }\r\n\r\n    function alertDataRequirement(string _message, uint _number) public payable senderIsLab {\r\n        require(msg.value > _number * 100);\r\n        uint _labId = uint(getLabId(msg.sender));\r\n        dataRequirements.push(DataRequirement(_message, _labId, uint(msg.value.div(_number)), _number, 0)) - 1;\r\n        noOfDataRequirements++;\r\n        emit newDataRequirement(_message, _labId, uint(msg.value.div(_number)));\r\n    }\r\n\r\n    function getBounty(uint _requirementId, string _url) public senderIsPatient {\r\n        uint _patientId = uint(getPatientId(msg.sender));\r\n        require(dataRequirements[_requirementId].gotData < dataRequirements[_requirementId].number, \"Requirement has already been fulfilled\");\r\n        for (uint i = 0; i < noOfData; i++) {\r\n            if (data[i].requirementId == _requirementId) {\r\n                if (data[i].patientId == _patientId) {\r\n                    require(false, \"You have already submitted data for this requirement\");\r\n                }\r\n            }\r\n        }\r\n        data.push(Data(_requirementId, _patientId, _url));\r\n        noOfData += 1;\r\n        msg.sender.transfer(dataRequirements[_requirementId].bountyForEach);\r\n    }\r\n\r\n    function accessData(uint _requirementId) public view senderIsLab returns(Data[] memory ans){\r\n        uint _labId = uint(getLabId(msg.sender));\r\n        require(dataRequirements[_requirementId].labId == _labId, \"You cannot access this data\");\r\n        uint no = dataRequirements[_requirementId].gotData;\r\n        ans = new Data[](no);\r\n        for (uint i = 0; i < noOfData; i++) {\r\n            if (data[i].requirementId == _requirementId) {\r\n                ans[i] = data[i];\r\n            }\r\n        }\r\n        return ans;\r\n    }\r\n//  TODO Supply chain\r\n}\r\n",
  "sourcePath": "D:/WellCareChain/contracts/Interactions.sol",
  "compiler": {
    "name": "solc",
    "version": "0.4.25+commit.59dbf8f1.Emscripten.clang"
  },
  "schemaVersion": "3.0.0",
  "updatedAt": "2019-01-05T15:29:30.024Z",
  "devdoc": {
    "methods": {
      "isOwner()": {
        "return": "true if `msg.sender` is the owner of the contract.\r"
      },
      "owner()": {
        "return": "the address of the owner.\r"
      },
      "renounceOwnership()": {
        "details": "Allows the current owner to relinquish control of the contract.\r"
      },
      "transferOwnership(address)": {
        "details": "Allows the current owner to transfer control of the contract to a newOwner.\r",
        "params": {
          "newOwner": "The address to transfer ownership to.\r"
        }
      }
    }
  },
  "userdoc": {
    "methods": {
      "renounceOwnership()": {
        "notice": "Renouncing to ownership will leave the contract without an owner.\r It will not be possible to call the functions with the `onlyOwner`\r modifier anymore.\r"
      }
    }
  }
}