{
  "contractName": "WellCareChain",
  "abi": [
    {
      "constant": true,
      "inputs": [],
      "name": "noOfDataRequirements",
      "outputs": [
        {
          "name": "",
          "type": "uint256"
        }
      ],
      "payable": false,
      "stateMutability": "view",
      "type": "function"
    },
    {
      "constant": true,
      "inputs": [],
      "name": "noOfDoctors",
      "outputs": [
        {
          "name": "",
          "type": "uint256"
        }
      ],
      "payable": false,
      "stateMutability": "view",
      "type": "function"
    },
    {
      "constant": true,
      "inputs": [],
      "name": "noOfData",
      "outputs": [
        {
          "name": "",
          "type": "uint256"
        }
      ],
      "payable": false,
      "stateMutability": "view",
      "type": "function"
    },
    {
      "constant": true,
      "inputs": [
        {
          "name": "",
          "type": "uint256"
        }
      ],
      "name": "labs",
      "outputs": [
        {
          "name": "name",
          "type": "string"
        },
        {
          "name": "add",
          "type": "address"
        },
        {
          "name": "email",
          "type": "string"
        },
        {
          "name": "license",
          "type": "string"
        },
        {
          "name": "details",
          "type": "string"
        }
      ],
      "payable": false,
      "stateMutability": "view",
      "type": "function"
    },
    {
      "constant": true,
      "inputs": [
        {
          "name": "",
          "type": "uint256"
        }
      ],
      "name": "doctors",
      "outputs": [
        {
          "name": "name",
          "type": "string"
        },
        {
          "name": "add",
          "type": "address"
        },
        {
          "name": "email",
          "type": "string"
        },
        {
          "name": "license",
          "type": "string"
        },
        {
          "name": "physicalAdd",
          "type": "string"
        },
        {
          "name": "specialization",
          "type": "string"
        }
      ],
      "payable": false,
      "stateMutability": "view",
      "type": "function"
    },
    {
      "constant": true,
      "inputs": [],
      "name": "noOfPatients",
      "outputs": [
        {
          "name": "",
          "type": "uint256"
        }
      ],
      "payable": false,
      "stateMutability": "view",
      "type": "function"
    },
    {
      "constant": true,
      "inputs": [
        {
          "name": "",
          "type": "uint256"
        }
      ],
      "name": "patients",
      "outputs": [
        {
          "name": "name",
          "type": "string"
        },
        {
          "name": "add",
          "type": "address"
        },
        {
          "name": "email",
          "type": "string"
        },
        {
          "name": "driveURL",
          "type": "string"
        },
        {
          "name": "presURL",
          "type": "string"
        },
        {
          "name": "infoURL",
          "type": "string"
        },
        {
          "name": "reportsURL",
          "type": "string"
        },
        {
          "name": "presUsed",
          "type": "bool"
        }
      ],
      "payable": false,
      "stateMutability": "view",
      "type": "function"
    },
    {
      "constant": true,
      "inputs": [],
      "name": "noOfLabs",
      "outputs": [
        {
          "name": "",
          "type": "uint256"
        }
      ],
      "payable": false,
      "stateMutability": "view",
      "type": "function"
    },
    {
      "constant": true,
      "inputs": [],
      "name": "noOfPathologies",
      "outputs": [
        {
          "name": "",
          "type": "uint256"
        }
      ],
      "payable": false,
      "stateMutability": "view",
      "type": "function"
    },
    {
      "constant": true,
      "inputs": [
        {
          "name": "",
          "type": "uint256"
        }
      ],
      "name": "dataRequirements",
      "outputs": [
        {
          "name": "message",
          "type": "string"
        },
        {
          "name": "labId",
          "type": "uint256"
        },
        {
          "name": "bountyForEach",
          "type": "uint256"
        },
        {
          "name": "number",
          "type": "uint256"
        },
        {
          "name": "gotData",
          "type": "uint256"
        }
      ],
      "payable": false,
      "stateMutability": "view",
      "type": "function"
    },
    {
      "constant": true,
      "inputs": [],
      "name": "noOfChemists",
      "outputs": [
        {
          "name": "",
          "type": "uint256"
        }
      ],
      "payable": false,
      "stateMutability": "view",
      "type": "function"
    },
    {
      "constant": true,
      "inputs": [
        {
          "name": "",
          "type": "uint256"
        }
      ],
      "name": "chemists",
      "outputs": [
        {
          "name": "name",
          "type": "string"
        },
        {
          "name": "add",
          "type": "address"
        },
        {
          "name": "email",
          "type": "string"
        },
        {
          "name": "license",
          "type": "string"
        },
        {
          "name": "physicalAdd",
          "type": "string"
        }
      ],
      "payable": false,
      "stateMutability": "view",
      "type": "function"
    },
    {
      "constant": true,
      "inputs": [
        {
          "name": "",
          "type": "uint256"
        }
      ],
      "name": "data",
      "outputs": [
        {
          "name": "requirementId",
          "type": "uint256"
        },
        {
          "name": "patientId",
          "type": "uint256"
        },
        {
          "name": "url",
          "type": "string"
        }
      ],
      "payable": false,
      "stateMutability": "view",
      "type": "function"
    },
    {
      "constant": true,
      "inputs": [
        {
          "name": "",
          "type": "uint256"
        }
      ],
      "name": "pathologies",
      "outputs": [
        {
          "name": "name",
          "type": "string"
        },
        {
          "name": "add",
          "type": "address"
        },
        {
          "name": "email",
          "type": "string"
        },
        {
          "name": "license",
          "type": "string"
        },
        {
          "name": "physicalAdd",
          "type": "string"
        }
      ],
      "payable": false,
      "stateMutability": "view",
      "type": "function"
    },
    {
      "anonymous": false,
      "inputs": [],
      "name": "NewDoctor",
      "type": "event"
    },
    {
      "anonymous": false,
      "inputs": [],
      "name": "NewChemist",
      "type": "event"
    },
    {
      "anonymous": false,
      "inputs": [],
      "name": "NewLab",
      "type": "event"
    },
    {
      "anonymous": false,
      "inputs": [],
      "name": "NewPathology",
      "type": "event"
    },
    {
      "anonymous": false,
      "inputs": [
        {
          "indexed": false,
          "name": "message",
          "type": "string"
        },
        {
          "indexed": false,
          "name": "labId",
          "type": "uint256"
        },
        {
          "indexed": false,
          "name": "bountyForEach",
          "type": "uint256"
        }
      ],
      "name": "newDataRequirement",
      "type": "event"
    },
    {
      "constant": false,
      "inputs": [
        {
          "name": "_name",
          "type": "string"
        },
        {
          "name": "_email",
          "type": "string"
        },
        {
          "name": "_driveURL",
          "type": "string"
        },
        {
          "name": "_presURL",
          "type": "string"
        },
        {
          "name": "_infoURL",
          "type": "string"
        },
        {
          "name": "_reportsURL",
          "type": "string"
        }
      ],
      "name": "newPatient",
      "outputs": [
        {
          "name": "",
          "type": "uint256"
        }
      ],
      "payable": false,
      "stateMutability": "nonpayable",
      "type": "function"
    },
    {
      "constant": false,
      "inputs": [
        {
          "name": "_name",
          "type": "string"
        },
        {
          "name": "_email",
          "type": "string"
        },
        {
          "name": "_license",
          "type": "string"
        },
        {
          "name": "_physicalAdd",
          "type": "string"
        },
        {
          "name": "_specialization",
          "type": "string"
        }
      ],
      "name": "newDoctor",
      "outputs": [],
      "payable": false,
      "stateMutability": "nonpayable",
      "type": "function"
    },
    {
      "constant": false,
      "inputs": [
        {
          "name": "_name",
          "type": "string"
        },
        {
          "name": "_email",
          "type": "string"
        },
        {
          "name": "_license",
          "type": "string"
        },
        {
          "name": "_physicalAdd",
          "type": "string"
        }
      ],
      "name": "newChemist",
      "outputs": [],
      "payable": false,
      "stateMutability": "nonpayable",
      "type": "function"
    },
    {
      "constant": false,
      "inputs": [
        {
          "name": "_name",
          "type": "string"
        },
        {
          "name": "_email",
          "type": "string"
        },
        {
          "name": "_license",
          "type": "string"
        },
        {
          "name": "_details",
          "type": "string"
        }
      ],
      "name": "newLab",
      "outputs": [],
      "payable": false,
      "stateMutability": "nonpayable",
      "type": "function"
    },
    {
      "constant": false,
      "inputs": [
        {
          "name": "_name",
          "type": "string"
        },
        {
          "name": "_email",
          "type": "string"
        },
        {
          "name": "_license",
          "type": "string"
        },
        {
          "name": "_physicalAdd",
          "type": "string"
        }
      ],
      "name": "newPathology",
      "outputs": [],
      "payable": false,
      "stateMutability": "nonpayable",
      "type": "function"
    },
    {
      "constant": true,
      "inputs": [
        {
          "name": "chemistId",
          "type": "uint256"
        }
      ],
      "name": "getChemistEmail",
      "outputs": [
        {
          "name": "",
          "type": "string"
        }
      ],
      "payable": false,
      "stateMutability": "view",
      "type": "function"
    },
    {
      "constant": true,
      "inputs": [
        {
          "name": "doctorId",
          "type": "uint256"
        }
      ],
      "name": "getDoctorEmail",
      "outputs": [
        {
          "name": "",
          "type": "string"
        }
      ],
      "payable": false,
      "stateMutability": "view",
      "type": "function"
    },
    {
      "constant": true,
      "inputs": [
        {
          "name": "pathologyId",
          "type": "uint256"
        }
      ],
      "name": "getPathologyEmail",
      "outputs": [
        {
          "name": "",
          "type": "string"
        }
      ],
      "payable": false,
      "stateMutability": "view",
      "type": "function"
    },
    {
      "constant": true,
      "inputs": [
        {
          "name": "labId",
          "type": "uint256"
        }
      ],
      "name": "getLabEmail",
      "outputs": [
        {
          "name": "",
          "type": "string"
        }
      ],
      "payable": false,
      "stateMutability": "view",
      "type": "function"
    },
    {
      "constant": true,
      "inputs": [
        {
          "name": "addr",
          "type": "address"
        }
      ],
      "name": "getPatientId",
      "outputs": [
        {
          "name": "",
          "type": "int256"
        }
      ],
      "payable": false,
      "stateMutability": "view",
      "type": "function"
    },
    {
      "constant": true,
      "inputs": [
        {
          "name": "addr",
          "type": "address"
        }
      ],
      "name": "getDoctorId",
      "outputs": [
        {
          "name": "",
          "type": "int256"
        }
      ],
      "payable": false,
      "stateMutability": "view",
      "type": "function"
    },
    {
      "constant": true,
      "inputs": [
        {
          "name": "addr",
          "type": "address"
        }
      ],
      "name": "getLabId",
      "outputs": [
        {
          "name": "",
          "type": "int256"
        }
      ],
      "payable": false,
      "stateMutability": "view",
      "type": "function"
    },
    {
      "constant": true,
      "inputs": [
        {
          "name": "addr",
          "type": "address"
        }
      ],
      "name": "getPathologyId",
      "outputs": [
        {
          "name": "",
          "type": "int256"
        }
      ],
      "payable": false,
      "stateMutability": "view",
      "type": "function"
    },
    {
      "constant": true,
      "inputs": [
        {
          "name": "addr",
          "type": "address"
        }
      ],
      "name": "getChemistId",
      "outputs": [
        {
          "name": "",
          "type": "int256"
        }
      ],
      "payable": false,
      "stateMutability": "view",
      "type": "function"
    },
    {
      "constant": false,
      "inputs": [
        {
          "name": "_patientId",
          "type": "uint256"
        },
        {
          "name": "_doctorId",
          "type": "uint256"
        },
        {
          "name": "_fees",
          "type": "uint256"
        }
      ],
      "name": "payToDoctor",
      "outputs": [],
      "payable": true,
      "stateMutability": "payable",
      "type": "function"
    },
    {
      "constant": false,
      "inputs": [
        {
          "name": "_patientId",
          "type": "uint256"
        },
        {
          "name": "_pathologyId",
          "type": "uint256"
        },
        {
          "name": "_fees",
          "type": "uint256"
        },
        {
          "name": "info",
          "type": "string"
        }
      ],
      "name": "payToPathology",
      "outputs": [],
      "payable": true,
      "stateMutability": "payable",
      "type": "function"
    },
    {
      "constant": false,
      "inputs": [
        {
          "name": "_patientId",
          "type": "uint256"
        },
        {
          "name": "_chemistId",
          "type": "uint256"
        },
        {
          "name": "_fees",
          "type": "uint256"
        }
      ],
      "name": "payToChemist",
      "outputs": [],
      "payable": true,
      "stateMutability": "payable",
      "type": "function"
    },
    {
      "constant": false,
      "inputs": [
        {
          "name": "_message",
          "type": "string"
        },
        {
          "name": "_number",
          "type": "uint256"
        }
      ],
      "name": "alertDataRequirement",
      "outputs": [],
      "payable": true,
      "stateMutability": "payable",
      "type": "function"
    },
    {
      "constant": false,
      "inputs": [
        {
          "name": "_requirementId",
          "type": "uint256"
        },
        {
          "name": "_url",
          "type": "string"
        }
      ],
      "name": "getBounty",
      "outputs": [],
      "payable": false,
      "stateMutability": "nonpayable",
      "type": "function"
    }
  ],
  "bytecode": "0x60806040526000805560006001556000600255600060035560006004556000600555600060065534801561003257600080fd5b506149a6806100426000396000f3006080604052600436106101a1576000357c0100000000000000000000000000000000000000000000000000000000900463ffffffff168063025cccea146101a65780630ba513eb146102e15780632604fa7b1461030c5780632650afc0146103635780632839abdd1461038e57806337dbc670146103e5578063488a216f1461041057806349e97e6b146104b65780634bb7c6441461051c5780636208b8f6146107395780636efb1b84146107ac5780637a0a595014610a3557806384b828ba14610a695780638771883e14610a9457806393119a8314610b3a5780639be23de614610e3a5780639d761aa014610f75578063a1816cc51461101b578063abc21a0114611046578063b0a7a3b614611181578063b9ee6920146111ac578063bca71f4614611203578063c48189dd1461125a578063cf4368471461128e578063d5c5e92714611350578063dc30b570146113a7578063dfbce01414611528578063e00fb05814611553578063e81dbf93146115cd578063f0ba8440146117ea578063f2907a881461189e578063f7b8be9614611944578063fa4afb3914611b61575b600080fd5b3480156101b257600080fd5b506102df600480360381019080803590602001908201803590602001908080601f0160208091040260200160405190810160405280939291908181526020018383808284378201915050505050509192919290803590602001908201803590602001908080601f0160208091040260200160405190810160405280939291908181526020018383808284378201915050505050509192919290803590602001908201803590602001908080601f0160208091040260200160405190810160405280939291908181526020018383808284378201915050505050509192919290803590602001908201803590602001908080601f0160208091040260200160405190810160405280939291908181526020018383808284378201915050505050509192919290505050611d3c565b005b3480156102ed57600080fd5b506102f6611e7d565b6040518082815260200191505060405180910390f35b34801561031857600080fd5b5061034d600480360381019080803573ffffffffffffffffffffffffffffffffffffffff169060200190929190505050611e83565b6040518082815260200191505060405180910390f35b34801561036f57600080fd5b50610378611f48565b6040518082815260200191505060405180910390f35b34801561039a57600080fd5b506103cf600480360381019080803573ffffffffffffffffffffffffffffffffffffffff169060200190929190505050611f4e565b6040518082815260200191505060405180910390f35b3480156103f157600080fd5b506103fa612013565b6040518082815260200191505060405180910390f35b34801561041c57600080fd5b5061043b60048036038101908080359060200190929190505050612019565b6040518080602001828103825283818151815260200191508051906020019080838360005b8381101561047b578082015181840152602081019050610460565b50505050905090810190601f1680156104a85780820380516001836020036101000a031916815260200191505b509250505060405180910390f35b61051a600480360381019080803590602001908201803590602001908080601f0160208091040260200160405190810160405280939291908181526020018383808284378201915050505050509192919290803590602001909291905050506120db565b005b34801561052857600080fd5b5061054760048036038101908080359060200190929190505050612388565b60405180806020018673ffffffffffffffffffffffffffffffffffffffff1673ffffffffffffffffffffffffffffffffffffffff16815260200180602001806020018060200185810385528a818151815260200191508051906020019080838360005b838110156105c55780820151818401526020810190506105aa565b50505050905090810190601f1680156105f25780820380516001836020036101000a031916815260200191505b50858103845288818151815260200191508051906020019080838360005b8381101561062b578082015181840152602081019050610610565b50505050905090810190601f1680156106585780820380516001836020036101000a031916815260200191505b50858103835287818151815260200191508051906020019080838360005b83811015610691578082015181840152602081019050610676565b50505050905090810190601f1680156106be5780820380516001836020036101000a031916815260200191505b50858103825286818151815260200191508051906020019080838360005b838110156106f75780820151818401526020810190506106dc565b50505050905090810190601f1680156107245780820380516001836020036101000a031916815260200191505b50995050505050505050505060405180910390f35b34801561074557600080fd5b506107aa60048036038101908080359060200190929190803590602001908201803590602001908080601f016020809104026020016040519081016040528093929190818152602001838380828437820191505050505050919291929050505061264d565b005b3480156107b857600080fd5b506107d7600480360381019080803590602001909291905050506129ea565b60405180806020018773ffffffffffffffffffffffffffffffffffffffff1673ffffffffffffffffffffffffffffffffffffffff1681526020018060200180602001806020018060200186810386528c818151815260200191508051906020019080838360005b8381101561085957808201518184015260208101905061083e565b50505050905090810190601f1680156108865780820380516001836020036101000a031916815260200191505b5086810385528a818151815260200191508051906020019080838360005b838110156108bf5780820151818401526020810190506108a4565b50505050905090810190601f1680156108ec5780820380516001836020036101000a031916815260200191505b50868103845289818151815260200191508051906020019080838360005b8381101561092557808201518184015260208101905061090a565b50505050905090810190601f1680156109525780820380516001836020036101000a031916815260200191505b50868103835288818151815260200191508051906020019080838360005b8381101561098b578082015181840152602081019050610970565b50505050905090810190601f1680156109b85780820380516001836020036101000a031916815260200191505b50868103825287818151815260200191508051906020019080838360005b838110156109f15780820151818401526020810190506109d6565b50505050905090810190601f168015610a1e5780820380516001836020036101000a031916815260200191505b509b50505050505050505050505060405180910390f35b610a67600480360381019080803590602001909291908035906020019092919080359060200190929190505050612d4d565b005b348015610a7557600080fd5b50610a7e612fde565b6040518082815260200191505060405180910390f35b348015610aa057600080fd5b50610abf60048036038101908080359060200190929190505050612fe4565b6040518080602001828103825283818151815260200191508051906020019080838360005b83811015610aff578082015181840152602081019050610ae4565b50505050905090810190601f168015610b2c5780820380516001836020036101000a031916815260200191505b509250505060405180910390f35b348015610b4657600080fd5b50610b65600480360381019080803590602001909291905050506130a6565b60405180806020018973ffffffffffffffffffffffffffffffffffffffff1673ffffffffffffffffffffffffffffffffffffffff16815260200180602001806020018060200180602001806020018815151515815260200187810387528f818151815260200191508051906020019080838360005b83811015610bf5578082015181840152602081019050610bda565b50505050905090810190601f168015610c225780820380516001836020036101000a031916815260200191505b5087810386528d818151815260200191508051906020019080838360005b83811015610c5b578082015181840152602081019050610c40565b50505050905090810190601f168015610c885780820380516001836020036101000a031916815260200191505b5087810385528c818151815260200191508051906020019080838360005b83811015610cc1578082015181840152602081019050610ca6565b50505050905090810190601f168015610cee5780820380516001836020036101000a031916815260200191505b5087810384528b818151815260200191508051906020019080838360005b83811015610d27578082015181840152602081019050610d0c565b50505050905090810190601f168015610d545780820380516001836020036101000a031916815260200191505b5087810383528a818151815260200191508051906020019080838360005b83811015610d8d578082015181840152602081019050610d72565b50505050905090810190601f168015610dba5780820380516001836020036101000a031916815260200191505b50878103825289818151815260200191508051906020019080838360005b83811015610df3578082015181840152602081019050610dd8565b50505050905090810190601f168015610e205780820380516001836020036101000a031916815260200191505b509e50505050505050505050505050505060405180910390f35b348015610e4657600080fd5b50610f73600480360381019080803590602001908201803590602001908080601f0160208091040260200160405190810160405280939291908181526020018383808284378201915050505050509192919290803590602001908201803590602001908080601f0160208091040260200160405190810160405280939291908181526020018383808284378201915050505050509192919290803590602001908201803590602001908080601f0160208091040260200160405190810160405280939291908181526020018383808284378201915050505050509192919290803590602001908201803590602001908080601f01602080910402602001604051908101604052809392919081815260200183838082843782019150505050505091929192905050506134ba565b005b348015610f8157600080fd5b50610fa0600480360381019080803590602001909291905050506135fb565b6040518080602001828103825283818151815260200191508051906020019080838360005b83811015610fe0578082015181840152602081019050610fc5565b50505050905090810190601f16801561100d5780820380516001836020036101000a031916815260200191505b509250505060405180910390f35b34801561102757600080fd5b506110306136bd565b6040518082815260200191505060405180910390f35b34801561105257600080fd5b5061117f600480360381019080803590602001908201803590602001908080601f0160208091040260200160405190810160405280939291908181526020018383808284378201915050505050509192919290803590602001908201803590602001908080601f0160208091040260200160405190810160405280939291908181526020018383808284378201915050505050509192919290803590602001908201803590602001908080601f0160208091040260200160405190810160405280939291908181526020018383808284378201915050505050509192919290803590602001908201803590602001908080601f01602080910402602001604051908101604052809392919081815260200183838082843782019150505050505091929192905050506136c3565b005b34801561118d57600080fd5b50611196613804565b6040518082815260200191505060405180910390f35b3480156111b857600080fd5b506111ed600480360381019080803573ffffffffffffffffffffffffffffffffffffffff16906020019092919050505061380a565b6040518082815260200191505060405180910390f35b34801561120f57600080fd5b50611244600480360381019080803573ffffffffffffffffffffffffffffffffffffffff1690602001909291905050506138cf565b6040518082815260200191505060405180910390f35b61128c600480360381019080803590602001909291908035906020019092919080359060200190929190505050613994565b005b34801561129a57600080fd5b506112b960048036038101908080359060200190929190505050613b5c565b6040518080602001868152602001858152602001848152602001838152602001828103825287818151815260200191508051906020019080838360005b838110156113115780820151818401526020810190506112f6565b50505050905090810190601f16801561133e5780820380516001836020036101000a031916815260200191505b50965050505050505060405180910390f35b34801561135c57600080fd5b50611391600480360381019080803573ffffffffffffffffffffffffffffffffffffffff169060200190929190505050613c39565b6040518082815260200191505060405180910390f35b3480156113b357600080fd5b50611526600480360381019080803590602001908201803590602001908080601f0160208091040260200160405190810160405280939291908181526020018383808284378201915050505050509192919290803590602001908201803590602001908080601f0160208091040260200160405190810160405280939291908181526020018383808284378201915050505050509192919290803590602001908201803590602001908080601f0160208091040260200160405190810160405280939291908181526020018383808284378201915050505050509192919290803590602001908201803590602001908080601f0160208091040260200160405190810160405280939291908181526020018383808284378201915050505050509192919290803590602001908201803590602001908080601f0160208091040260200160405190810160405280939291908181526020018383808284378201915050505050509192919290505050613cfe565b005b34801561153457600080fd5b5061153d613e63565b6040518082815260200191505060405180910390f35b6115cb600480360381019080803590602001909291908035906020019092919080359060200190929190803590602001908201803590602001908080601f0160208091040260200160405190810160405280939291908181526020018383808284378201915050505050509192919290505050613e69565b005b3480156115d957600080fd5b506115f860048036038101908080359060200190929190505050613ff9565b60405180806020018673ffffffffffffffffffffffffffffffffffffffff1673ffffffffffffffffffffffffffffffffffffffff16815260200180602001806020018060200185810385528a818151815260200191508051906020019080838360005b8381101561167657808201518184015260208101905061165b565b50505050905090810190601f1680156116a35780820380516001836020036101000a031916815260200191505b50858103845288818151815260200191508051906020019080838360005b838110156116dc5780820151818401526020810190506116c1565b50505050905090810190601f1680156117095780820380516001836020036101000a031916815260200191505b50858103835287818151815260200191508051906020019080838360005b83811015611742578082015181840152602081019050611727565b50505050905090810190601f16801561176f5780820380516001836020036101000a031916815260200191505b50858103825286818151815260200191508051906020019080838360005b838110156117a857808201518184015260208101905061178d565b50505050905090810190601f1680156117d55780820380516001836020036101000a031916815260200191505b50995050505050505050505060405180910390f35b3480156117f657600080fd5b50611815600480360381019080803590602001909291905050506142be565b6040518084815260200183815260200180602001828103825283818151815260200191508051906020019080838360005b83811015611861578082015181840152602081019050611846565b50505050905090810190601f16801561188e5780820380516001836020036101000a031916815260200191505b5094505050505060405180910390f35b3480156118aa57600080fd5b506118c96004803603810190808035906020019092919050505061438f565b6040518080602001828103825283818151815260200191508051906020019080838360005b838110156119095780820151818401526020810190506118ee565b50505050905090810190601f1680156119365780820380516001836020036101000a031916815260200191505b509250505060405180910390f35b34801561195057600080fd5b5061196f60048036038101908080359060200190929190505050614451565b60405180806020018673ffffffffffffffffffffffffffffffffffffffff1673ffffffffffffffffffffffffffffffffffffffff16815260200180602001806020018060200185810385528a818151815260200191508051906020019080838360005b838110156119ed5780820151818401526020810190506119d2565b50505050905090810190601f168015611a1a5780820380516001836020036101000a031916815260200191505b50858103845288818151815260200191508051906020019080838360005b83811015611a53578082015181840152602081019050611a38565b50505050905090810190601f168015611a805780820380516001836020036101000a031916815260200191505b50858103835287818151815260200191508051906020019080838360005b83811015611ab9578082015181840152602081019050611a9e565b50505050905090810190601f168015611ae65780820380516001836020036101000a031916815260200191505b50858103825286818151815260200191508051906020019080838360005b83811015611b1f578082015181840152602081019050611b04565b50505050905090810190601f168015611b4c5780820380516001836020036101000a031916815260200191505b50995050505050505050505060405180910390f35b348015611b6d57600080fd5b50611d26600480360381019080803590602001908201803590602001908080601f0160208091040260200160405190810160405280939291908181526020018383808284378201915050505050509192919290803590602001908201803590602001908080601f0160208091040260200160405190810160405280939291908181526020018383808284378201915050505050509192919290803590602001908201803590602001908080601f0160208091040260200160405190810160405280939291908181526020018383808284378201915050505050509192919290803590602001908201803590602001908080601f0160208091040260200160405190810160405280939291908181526020018383808284378201915050505050509192919290803590602001908201803590602001908080601f0160208091040260200160405190810160405280939291908181526020018383808284378201915050505050509192919290803590602001908201803590602001908080601f0160208091040260200160405190810160405280939291908181526020018383808284378201915050505050509192919290505050614716565b6040518082815260200191505060405180910390f35b600a60a0604051908101604052808681526020013373ffffffffffffffffffffffffffffffffffffffff16815260200185815260200184815260200183815250908060018154018082558091505090600182039060005260206000209060050201600090919290919091506000820151816000019080519060200190611dc39291906148d5565b5060208201518160010160006101000a81548173ffffffffffffffffffffffffffffffffffffffff021916908373ffffffffffffffffffffffffffffffffffffffff1602179055506040820151816002019080519060200190611e279291906148d5565b506060820151816003019080519060200190611e449291906148d5565b506080820151816004019080519060200190611e619291906148d5565b5050505060036000815480929190600101919050555050505050565b60065481565b600080600090505b600054811015611f1e57600781815481101515611ea457fe5b906000526020600020906008020160010160009054906101000a900473ffffffffffffffffffffffffffffffffffffffff1673ffffffffffffffffffffffffffffffffffffffff168373ffffffffffffffffffffffffffffffffffffffff161415611f1157809150611f42565b8080600101915050611e8b565b7fffffffffffffffffffffffffffffffffffffffffffffffffffffffffffffffff91505b50919050565b60015481565b600080600090505b600454811015611fe957600b81815481101515611f6f57fe5b906000526020600020906005020160010160009054906101000a900473ffffffffffffffffffffffffffffffffffffffff1673ffffffffffffffffffffffffffffffffffffffff168373ffffffffffffffffffffffffffffffffffffffff161415611fdc5780915061200d565b8080600101915050611f56565b7fffffffffffffffffffffffffffffffffffffffffffffffffffffffffffffffff91505b50919050565b60055481565b6060600b8281548110151561202a57fe5b90600052602060002090600502016002018054600181600116156101000203166002900480601f0160208091040260200160405190810160405280929190818152602001828054600181600116156101000203166002900480156120cf5780601f106120a4576101008083540402835291602001916120cf565b820191906000526020600020905b8154815290600101906020018083116120b257829003601f168201915b50505050509050919050565b6000806120e7336138cf565b905060008112151515612188576040517f08c379a00000000000000000000000000000000000000000000000000000000081526004018080602001828103825260248152602001807f46756e6374696f6e2063616e2062652063616c6c65642062792061206c61622081526020017f6f6e6c790000000000000000000000000000000000000000000000000000000081525060400191505060405180910390fd5b6064830234111515612202576040517f08c379a00000000000000000000000000000000000000000000000000000000081526004018080602001828103825260158152602001807f546f6f206c657373207765692070726f7669646564000000000000000000000081525060200191505060405180910390fd5b61220b336138cf565b91506001600c60a060405190810160405280878152602001858152602001863481151561223457fe5b048152602001868152602001600081525090806001815401808255809150509060018203906000526020600020906005020160009091929091909150600082015181600001908051906020019061228c9291906148d5565b5060208201518160010155604082015181600201556060820151816003015560808201518160040155505050506006600081548092919060010191905055507f25b369cbb30c42eaf0e0d5bbcf823a21a3aa3fb3398e53a04dd832a875325975848385348115156122f957fe5b046040518080602001848152602001838152602001828103825285818151815260200191508051906020019080838360005b8381101561234657808201518184015260208101905061232b565b50505050905090810190601f1680156123735780820380516001836020036101000a031916815260200191505b5094505050505060405180910390a150505050565b600a8181548110151561239757fe5b9060005260206000209060050201600091509050806000018054600181600116156101000203166002900480601f0160208091040260200160405190810160405280929190818152602001828054600181600116156101000203166002900480156124435780601f1061241857610100808354040283529160200191612443565b820191906000526020600020905b81548152906001019060200180831161242657829003601f168201915b5050505050908060010160009054906101000a900473ffffffffffffffffffffffffffffffffffffffff1690806002018054600181600116156101000203166002900480601f0160208091040260200160405190810160405280929190818152602001828054600181600116156101000203166002900480156125075780601f106124dc57610100808354040283529160200191612507565b820191906000526020600020905b8154815290600101906020018083116124ea57829003601f168201915b505050505090806003018054600181600116156101000203166002900480601f0160208091040260200160405190810160405280929190818152602001828054600181600116156101000203166002900480156125a55780601f1061257a576101008083540402835291602001916125a5565b820191906000526020600020905b81548152906001019060200180831161258857829003601f168201915b505050505090806004018054600181600116156101000203166002900480601f0160208091040260200160405190810160405280929190818152602001828054600181600116156101000203166002900480156126435780601f1061261857610100808354040283529160200191612643565b820191906000526020600020905b81548152906001019060200180831161262657829003601f168201915b5050505050905085565b600080600061265b33611e83565b9050600081121515156126fc576040517f08c379a00000000000000000000000000000000000000000000000000000000081526004018080602001828103825260288152602001807f46756e6374696f6e2063616e2062652063616c6c65642062792061207061746981526020017f656e74206f6e6c7900000000000000000000000000000000000000000000000081525060400191505060405180910390fd5b61270533611e83565b9250600c8581548110151561271657fe5b906000526020600020906005020160030154600c8681548110151561273757fe5b9060005260206000209060050201600401541015156127e4576040517f08c379a00000000000000000000000000000000000000000000000000000000081526004018080602001828103825260268152602001807f526571756972656d656e742068617320616c7265616479206265656e2066756c81526020017f66696c6c6564000000000000000000000000000000000000000000000000000081525060400191505060405180910390fd5b600091505b6005548210156128ee5784600d8381548110151561280357fe5b90600052602060002090600302016000015414156128e15782600d8381548110151561282b57fe5b90600052602060002090600302016001015414156128e057600015156128df576040517f08c379a00000000000000000000000000000000000000000000000000000000081526004018080602001828103825260348152602001807f596f75206861766520616c7265616479207375626d697474656420646174612081526020017f666f72207468697320726571756972656d656e7400000000000000000000000081525060400191505060405180910390fd5b5b5b81806001019250506127e9565b600d6060604051908101604052808781526020018581526020018681525090806001815401808255809150509060018203906000526020600020906003020160009091929091909150600082015181600001556020820151816001015560408201518160020190805190602001906129679291906148d5565b5050505060016005600082825401925050819055503373ffffffffffffffffffffffffffffffffffffffff166108fc600c878154811015156129a557fe5b9060005260206000209060050201600201549081150290604051600060405180830381858888f193505050501580156129e2573d6000803e3d6000fd5b505050505050565b6008818154811015156129f957fe5b9060005260206000209060060201600091509050806000018054600181600116156101000203166002900480601f016020809104026020016040519081016040528092919081815260200182805460018160011615610100020316600290048015612aa55780601f10612a7a57610100808354040283529160200191612aa5565b820191906000526020600020905b815481529060010190602001808311612a8857829003601f168201915b5050505050908060010160009054906101000a900473ffffffffffffffffffffffffffffffffffffffff1690806002018054600181600116156101000203166002900480601f016020809104026020016040519081016040528092919081815260200182805460018160011615610100020316600290048015612b695780601f10612b3e57610100808354040283529160200191612b69565b820191906000526020600020905b815481529060010190602001808311612b4c57829003601f168201915b505050505090806003018054600181600116156101000203166002900480601f016020809104026020016040519081016040528092919081815260200182805460018160011615610100020316600290048015612c075780601f10612bdc57610100808354040283529160200191612c07565b820191906000526020600020905b815481529060010190602001808311612bea57829003601f168201915b505050505090806004018054600181600116156101000203166002900480601f016020809104026020016040519081016040528092919081815260200182805460018160011615610100020316600290048015612ca55780601f10612c7a57610100808354040283529160200191612ca5565b820191906000526020600020905b815481529060010190602001808311612c8857829003601f168201915b505050505090806005018054600181600116156101000203166002900480601f016020809104026020016040519081016040528092919081815260200182805460018160011615610100020316600290048015612d435780601f10612d1857610100808354040283529160200191612d43565b820191906000526020600020905b815481529060010190602001808311612d2657829003601f168201915b5050505050905086565b600082600011158015612d61575060025483105b1515612dd5576040517f08c379a00000000000000000000000000000000000000000000000000000000081526004018080602001828103825260168152602001807f4368656d69737420646f6573206e6f742065786973740000000000000000000081525060200191505060405180910390fd5b600784815481101515612de457fe5b906000526020600020906008020160070160009054906101000a900460ff16151515612e9e576040517f08c379a00000000000000000000000000000000000000000000000000000000081526004018080602001828103825260228152602001807f4d65646963696e6573206861766520616c7265616479206265656e2074616b6581526020017f6e2100000000000000000000000000000000000000000000000000000000000081525060400191505060405180910390fd5b8134141515612f15576040517f08c379a00000000000000000000000000000000000000000000000000000000081526004018080602001828103825260118152602001807f46656573206e6f74206d61746368696e6700000000000000000000000000000081525060200191505060405180910390fd5b6001600785815481101515612f2657fe5b906000526020600020906008020160070160006101000a81548160ff021916908315150217905550600983815481101515612f5d57fe5b906000526020600020906005020160010160009054906101000a900473ffffffffffffffffffffffffffffffffffffffff1690508073ffffffffffffffffffffffffffffffffffffffff166108fc839081150290604051600060405180830381858888f19350505050158015612fd7573d6000803e3d6000fd5b5050505050565b60005481565b6060600882815481101515612ff557fe5b90600052602060002090600602016002018054600181600116156101000203166002900480601f01602080910402602001604051908101604052809291908181526020018280546001816001161561010002031660029004801561309a5780601f1061306f5761010080835404028352916020019161309a565b820191906000526020600020905b81548152906001019060200180831161307d57829003601f168201915b50505050509050919050565b6007818154811015156130b557fe5b9060005260206000209060080201600091509050806000018054600181600116156101000203166002900480601f0160208091040260200160405190810160405280929190818152602001828054600181600116156101000203166002900480156131615780601f1061313657610100808354040283529160200191613161565b820191906000526020600020905b81548152906001019060200180831161314457829003601f168201915b5050505050908060010160009054906101000a900473ffffffffffffffffffffffffffffffffffffffff1690806002018054600181600116156101000203166002900480601f0160208091040260200160405190810160405280929190818152602001828054600181600116156101000203166002900480156132255780601f106131fa57610100808354040283529160200191613225565b820191906000526020600020905b81548152906001019060200180831161320857829003601f168201915b505050505090806003018054600181600116156101000203166002900480601f0160208091040260200160405190810160405280929190818152602001828054600181600116156101000203166002900480156132c35780601f10613298576101008083540402835291602001916132c3565b820191906000526020600020905b8154815290600101906020018083116132a657829003601f168201915b505050505090806004018054600181600116156101000203166002900480601f0160208091040260200160405190810160405280929190818152602001828054600181600116156101000203166002900480156133615780601f1061333657610100808354040283529160200191613361565b820191906000526020600020905b81548152906001019060200180831161334457829003601f168201915b505050505090806005018054600181600116156101000203166002900480601f0160208091040260200160405190810160405280929190818152602001828054600181600116156101000203166002900480156133ff5780601f106133d4576101008083540402835291602001916133ff565b820191906000526020600020905b8154815290600101906020018083116133e257829003601f168201915b505050505090806006018054600181600116156101000203166002900480601f01602080910402602001604051908101604052809291908181526020018280546001816001161561010002031660029004801561349d5780601f106134725761010080835404028352916020019161349d565b820191906000526020600020905b81548152906001019060200180831161348057829003601f168201915b5050505050908060070160009054906101000a900460ff16905088565b600960a0604051908101604052808681526020013373ffffffffffffffffffffffffffffffffffffffff168152602001858152602001848152602001838152509080600181540180825580915050906001820390600052602060002090600502016000909192909190915060008201518160000190805190602001906135419291906148d5565b5060208201518160010160006101000a81548173ffffffffffffffffffffffffffffffffffffffff021916908373ffffffffffffffffffffffffffffffffffffffff16021790555060408201518160020190805190602001906135a59291906148d5565b5060608201518160030190805190602001906135c29291906148d5565b5060808201518160040190805190602001906135df9291906148d5565b5050505060026000815480929190600101919050555050505050565b6060600a8281548110151561360c57fe5b90600052602060002090600502016002018054600181600116156101000203166002900480601f0160208091040260200160405190810160405280929190818152602001828054600181600116156101000203166002900480156136b15780601f10613686576101008083540402835291602001916136b1565b820191906000526020600020905b81548152906001019060200180831161369457829003601f168201915b50505050509050919050565b60035481565b600b60a0604051908101604052808681526020013373ffffffffffffffffffffffffffffffffffffffff1681526020018581526020018481526020018381525090806001815401808255809150509060018203906000526020600020906005020160009091929091909150600082015181600001908051906020019061374a9291906148d5565b5060208201518160010160006101000a81548173ffffffffffffffffffffffffffffffffffffffff021916908373ffffffffffffffffffffffffffffffffffffffff16021790555060408201518160020190805190602001906137ae9291906148d5565b5060608201518160030190805190602001906137cb9291906148d5565b5060808201518160040190805190602001906137e89291906148d5565b5050505060046000815480929190600101919050555050505050565b60045481565b600080600090505b6001548110156138a55760088181548110151561382b57fe5b906000526020600020906006020160010160009054906101000a900473ffffffffffffffffffffffffffffffffffffffff1673ffffffffffffffffffffffffffffffffffffffff168373ffffffffffffffffffffffffffffffffffffffff161415613898578091506138c9565b8080600101915050613812565b7fffffffffffffffffffffffffffffffffffffffffffffffffffffffffffffffff91505b50919050565b600080600090505b60035481101561396a57600a818154811015156138f057fe5b906000526020600020906005020160010160009054906101000a900473ffffffffffffffffffffffffffffffffffffffff1673ffffffffffffffffffffffffffffffffffffffff168373ffffffffffffffffffffffffffffffffffffffff16141561395d5780915061398e565b80806001019150506138d7565b7fffffffffffffffffffffffffffffffffffffffffffffffffffffffffffffffff91505b50919050565b6000826000111580156139a8575060015483105b1515613a1c576040517f08c379a00000000000000000000000000000000000000000000000000000000081526004018080602001828103825260158152602001807f446f63746f7220646f6573206e6f74206578697374000000000000000000000081525060200191505060405180910390fd5b8134141515613a93576040517f08c379a00000000000000000000000000000000000000000000000000000000081526004018080602001828103825260118152602001807f46656573206e6f74206d61746368696e6700000000000000000000000000000081525060200191505060405180910390fd5b600883815481101515613aa257fe5b906000526020600020906006020160010160009054906101000a900473ffffffffffffffffffffffffffffffffffffffff1690506000600785815481101515613ae757fe5b906000526020600020906008020160070160006101000a81548160ff0219169083151502179055508073ffffffffffffffffffffffffffffffffffffffff166108fc839081150290604051600060405180830381858888f19350505050158015613b55573d6000803e3d6000fd5b5050505050565b600c81815481101515613b6b57fe5b9060005260206000209060050201600091509050806000018054600181600116156101000203166002900480601f016020809104026020016040519081016040528092919081815260200182805460018160011615610100020316600290048015613c175780601f10613bec57610100808354040283529160200191613c17565b820191906000526020600020905b815481529060010190602001808311613bfa57829003601f168201915b5050505050908060010154908060020154908060030154908060040154905085565b600080600090505b600254811015613cd457600981815481101515613c5a57fe5b906000526020600020906005020160010160009054906101000a900473ffffffffffffffffffffffffffffffffffffffff1673ffffffffffffffffffffffffffffffffffffffff168373ffffffffffffffffffffffffffffffffffffffff161415613cc757809150613cf8565b8080600101915050613c41565b7fffffffffffffffffffffffffffffffffffffffffffffffffffffffffffffffff91505b50919050565b600860c0604051908101604052808781526020013373ffffffffffffffffffffffffffffffffffffffff16815260200186815260200185815260200184815260200183815250908060018154018082558091505090600182039060005260206000209060060201600090919290919091506000820151816000019080519060200190613d8b9291906148d5565b5060208201518160010160006101000a81548173ffffffffffffffffffffffffffffffffffffffff021916908373ffffffffffffffffffffffffffffffffffffffff1602179055506040820151816002019080519060200190613def9291906148d5565b506060820151816003019080519060200190613e0c9291906148d5565b506080820151816004019080519060200190613e299291906148d5565b5060a0820151816005019080519060200190613e469291906148d5565b505050506001600081548092919060010191905055505050505050565b60025481565b600083600011158015613e7d575060045484105b1515613ef1576040517f08c379a00000000000000000000000000000000000000000000000000000000081526004018080602001828103825260188152602001807f506174686f6c6f677920646f6573206e6f74206578697374000000000000000081525060200191505060405180910390fd5b8234141515613f68576040517f08c379a00000000000000000000000000000000000000000000000000000000081526004018080602001828103825260118152602001807f46656573206e6f74206d61746368696e6700000000000000000000000000000081525060200191505060405180910390fd5b600b84815481101515613f7757fe5b906000526020600020906005020160010160009054906101000a900473ffffffffffffffffffffffffffffffffffffffff1690508073ffffffffffffffffffffffffffffffffffffffff166108fc849081150290604051600060405180830381858888f19350505050158015613ff1573d6000803e3d6000fd5b505050505050565b60098181548110151561400857fe5b9060005260206000209060050201600091509050806000018054600181600116156101000203166002900480601f0160208091040260200160405190810160405280929190818152602001828054600181600116156101000203166002900480156140b45780601f10614089576101008083540402835291602001916140b4565b820191906000526020600020905b81548152906001019060200180831161409757829003601f168201915b5050505050908060010160009054906101000a900473ffffffffffffffffffffffffffffffffffffffff1690806002018054600181600116156101000203166002900480601f0160208091040260200160405190810160405280929190818152602001828054600181600116156101000203166002900480156141785780601f1061414d57610100808354040283529160200191614178565b820191906000526020600020905b81548152906001019060200180831161415b57829003601f168201915b505050505090806003018054600181600116156101000203166002900480601f0160208091040260200160405190810160405280929190818152602001828054600181600116156101000203166002900480156142165780601f106141eb57610100808354040283529160200191614216565b820191906000526020600020905b8154815290600101906020018083116141f957829003601f168201915b505050505090806004018054600181600116156101000203166002900480601f0160208091040260200160405190810160405280929190818152602001828054600181600116156101000203166002900480156142b45780601f10614289576101008083540402835291602001916142b4565b820191906000526020600020905b81548152906001019060200180831161429757829003601f168201915b5050505050905085565b600d818154811015156142cd57fe5b9060005260206000209060030201600091509050806000015490806001015490806002018054600181600116156101000203166002900480601f0160208091040260200160405190810160405280929190818152602001828054600181600116156101000203166002900480156143855780601f1061435a57610100808354040283529160200191614385565b820191906000526020600020905b81548152906001019060200180831161436857829003601f168201915b5050505050905083565b60606009828154811015156143a057fe5b90600052602060002090600502016002018054600181600116156101000203166002900480601f0160208091040260200160405190810160405280929190818152602001828054600181600116156101000203166002900480156144455780601f1061441a57610100808354040283529160200191614445565b820191906000526020600020905b81548152906001019060200180831161442857829003601f168201915b50505050509050919050565b600b8181548110151561446057fe5b9060005260206000209060050201600091509050806000018054600181600116156101000203166002900480601f01602080910402602001604051908101604052809291908181526020018280546001816001161561010002031660029004801561450c5780601f106144e15761010080835404028352916020019161450c565b820191906000526020600020905b8154815290600101906020018083116144ef57829003601f168201915b5050505050908060010160009054906101000a900473ffffffffffffffffffffffffffffffffffffffff1690806002018054600181600116156101000203166002900480601f0160208091040260200160405190810160405280929190818152602001828054600181600116156101000203166002900480156145d05780601f106145a5576101008083540402835291602001916145d0565b820191906000526020600020905b8154815290600101906020018083116145b357829003601f168201915b505050505090806003018054600181600116156101000203166002900480601f01602080910402602001604051908101604052809291908181526020018280546001816001161561010002031660029004801561466e5780601f106146435761010080835404028352916020019161466e565b820191906000526020600020905b81548152906001019060200180831161465157829003601f168201915b505050505090806004018054600181600116156101000203166002900480601f01602080910402602001604051908101604052809291908181526020018280546001816001161561010002031660029004801561470c5780601f106146e15761010080835404028352916020019161470c565b820191906000526020600020905b8154815290600101906020018083116146ef57829003601f168201915b5050505050905085565b60008060016007610100604051908101604052808b81526020013373ffffffffffffffffffffffffffffffffffffffff1681526020018a8152602001898152602001888152602001878152602001868152602001600115158152509080600181540180825580915050906001820390600052602060002090600802016000909192909190915060008201518160000190805190602001906147b89291906148d5565b5060208201518160010160006101000a81548173ffffffffffffffffffffffffffffffffffffffff021916908373ffffffffffffffffffffffffffffffffffffffff160217905550604082015181600201908051906020019061481c9291906148d5565b5060608201518160030190805190602001906148399291906148d5565b5060808201518160040190805190602001906148569291906148d5565b5060a08201518160050190805190602001906148739291906148d5565b5060c08201518160060190805190602001906148909291906148d5565b5060e08201518160070160006101000a81548160ff02191690831515021790555050500390506000808154809291906001019190505550809150509695505050505050565b828054600181600116156101000203166002900490600052602060002090601f016020900481019282601f1061491657805160ff1916838001178555614944565b82800160010185558215614944579182015b82811115614943578251825591602001919060010190614928565b5b5090506149519190614955565b5090565b61497791905b8082111561497357600081600090555060010161495b565b5090565b905600a165627a7a72305820b7884e7bd91a52778883104327b6955b6e7d044f58bc57e1ac3aef3110865b130029",
  "source": "pragma solidity ^0.4.23;\r\n//pragma experimental ABIEncoderV2;\r\n\r\n// import \"./SafeMath.sol\";\r\n\r\ncontract WellCareChain{\r\n    // using SafeMath for uint256;\r\n    // using SafeMath for uint16;\r\n    // using SafeMath for uint8;\r\n\r\n    //    TODO\r\n    event NewDoctor();\r\n    event NewChemist();\r\n    event NewLab();\r\n    event NewPathology();\r\n\r\n    struct Patient {\r\n        string name;\r\n        address add;\r\n        string email;\r\n        string driveURL;\r\n        string presURL;\r\n        string infoURL;\r\n        string reportsURL;\r\n        bool presUsed;\r\n    }\r\n\r\n    struct Doctor {\r\n        string name;\r\n        address add;\r\n        string email;\r\n        string license;\r\n        string physicalAdd;\r\n        string specialization;\r\n    }\r\n\r\n    struct Chemist {\r\n        string name;\r\n        address add;\r\n        string email;\r\n        string license;\r\n        string physicalAdd;\r\n    }\r\n\r\n    struct Lab {\r\n        string name;\r\n        address add;\r\n        string email;\r\n        string license;\r\n        string details;\r\n    }\r\n\r\n    struct Pathology {\r\n        string name;\r\n        address add;\r\n        string email;\r\n        string license;\r\n        string physicalAdd;\r\n    }\r\n\r\n    struct DataRequirement {\r\n        string message;\r\n        uint labId;\r\n        uint bountyForEach;\r\n        uint number;\r\n        uint gotData;\r\n    }\r\n\r\n    struct Data {\r\n        uint requirementId;\r\n        uint patientId;\r\n        string url;\r\n    }\r\n\r\n    uint public noOfPatients = 0;\r\n    uint public noOfDoctors = 0;\r\n    uint public noOfChemists = 0;\r\n    uint public noOfLabs = 0;\r\n    uint public noOfPathologies = 0;\r\n    uint public noOfData = 0;\r\n    uint public noOfDataRequirements = 0;\r\n\r\n    Patient[] public patients;\r\n    Doctor[] public doctors;\r\n    Chemist[] public chemists;\r\n    Lab[] public labs;\r\n    Pathology[] public pathologies;\r\n    DataRequirement[] public dataRequirements;\r\n    Data[] public data;\r\n\r\n    function newPatient(string _name, string _email, string _driveURL, string _presURL, string _infoURL, string _reportsURL) public returns(uint)\r\n    {\r\n        //        TODO FW: msg.sender must not already registered\r\n\t\tuint patientId = patients.push(Patient(_name, msg.sender, _email, _driveURL, _presURL, _infoURL, _reportsURL, true)) - 1;\r\n        noOfPatients++;\r\n\t\treturn patientId;\r\n    }\r\n\r\n    function newDoctor(string _name, string _email, string _license, string _physicalAdd, string _specialization) public\r\n    {\r\n        //        TODO FW: msg.sender must not already registered\r\n        doctors.push(Doctor(_name, msg.sender, _email, _license, _physicalAdd, _specialization));\r\n        noOfDoctors++;\r\n    }\r\n\r\n    function newChemist(string _name, string _email, string _license, string _physicalAdd) public\r\n    {\r\n        //        TODO FW: msg.sender must not already registered\r\n        chemists.push(Chemist(_name, msg.sender, _email, _license, _physicalAdd));\r\n        noOfChemists++;\r\n    }\r\n\r\n    function newLab(string _name, string _email, string _license, string _details) public\r\n    {\r\n        //        TODO FW: msg.sender must not already registered\r\n        labs.push(Lab(_name, msg.sender, _email, _license, _details));\r\n        noOfLabs++;\r\n    }\r\n\r\n    function newPathology(string _name, string _email, string _license, string _physicalAdd) public\r\n    {\r\n        //        TODO FW: msg.sender must not already registered\r\n        pathologies.push(Pathology(_name, msg.sender, _email, _license, _physicalAdd));\r\n        noOfPathologies++;\r\n    }\r\n\tfunction getChemistEmail(uint chemistId) public view returns(string)\r\n\t{\r\n\t\treturn chemists[chemistId].email;\r\n\t}\r\n\tfunction getDoctorEmail(uint doctorId) public view returns(string)\r\n\t{\r\n\t\treturn doctors[doctorId].email;\r\n\t}\r\n\tfunction getPathologyEmail(uint pathologyId) public view returns(string)\r\n\t{\r\n\t\treturn pathologies[pathologyId].email;\r\n\t}\r\n\tfunction getLabEmail(uint labId) public view returns(string)\r\n\t{\r\n\t\treturn labs[labId].email;\r\n\t}\r\n\r\n    event newDataRequirement(string message, uint labId, uint bountyForEach);\r\n\r\n    function getPatientId(address addr) public view returns(int){\r\n        for (uint i = 0; i < noOfPatients; i++)\r\n            if (addr == patients[i].add)\r\n                return int(i);\r\n        return - 1;\r\n    }\r\n\r\n    function getDoctorId(address addr) public view returns(int){\r\n        for (uint i = 0; i < noOfDoctors; i++)\r\n            if (addr == doctors[i].add)\r\n                return int(i);\r\n        return - 1;\r\n    }\r\n\r\n    function getLabId(address addr) public view returns(int){\r\n        for (uint i = 0; i < noOfLabs; i++)\r\n            if (addr == labs[i].add)\r\n                return int(i);\r\n        return - 1;\r\n    }\r\n\r\n    function getPathologyId(address addr) public view returns(int){\r\n        for (uint i = 0; i < noOfPathologies; i++)\r\n            if (addr == pathologies[i].add)\r\n                return int(i);\r\n        return - 1;\r\n    }\r\n\r\n    function getChemistId(address addr) public view returns(int){\r\n        for (uint i = 0; i < noOfChemists; i++)\r\n            if (addr == chemists[i].add)\r\n                return int(i);\r\n        return - 1;\r\n    }\r\n\r\n    modifier senderIsLab() {\r\n        int id = getLabId(msg.sender);\r\n        require(id >= 0, \"Function can be called by a lab only\");\r\n        _;\r\n    }\r\n    modifier senderIsPatient() {\r\n        int id = getPatientId(msg.sender);\r\n        require(id >= 0, \"Function can be called by a patient only\");\r\n        _;\r\n    }\r\n\r\n    function payToDoctor(uint _patientId, uint _doctorId, uint _fees) public payable\r\n    {\r\n        require(0 <= _doctorId && _doctorId < noOfDoctors, \"Doctor does not exist\");\r\n        require(msg.value == _fees, \"Fees not matching\");\r\n        address docAddress = doctors[_doctorId].add;\r\n        patients[_patientId].presUsed = false;\r\n        docAddress.transfer(_fees);\r\n    }\r\n\r\n    function payToPathology(uint _patientId, uint _pathologyId, uint _fees, string info) public payable\r\n    {\r\n        require(0 <= _pathologyId && _pathologyId < noOfPathologies, \"Pathology does not exist\");\r\n        require(msg.value == _fees, \"Fees not matching\");\r\n        address pathologyAddress = pathologies[_pathologyId].add;\r\n        pathologyAddress.transfer(_fees);\r\n    }\r\n\r\n    function payToChemist(uint _patientId, uint _chemistId, uint _fees) public payable\r\n    {\r\n        require(0 <= _chemistId && _chemistId < noOfChemists, \"Chemist does not exist\");\r\n        require(!patients[_patientId].presUsed, \"Medicines have already been taken!\");\r\n        require(msg.value == _fees, \"Fees not matching\");\r\n        patients[_patientId].presUsed = true;\r\n        address chemistAddress = chemists[_chemistId].add;\r\n        chemistAddress.transfer(_fees);\r\n    }\r\n\r\n    function alertDataRequirement(string _message, uint _number) public payable senderIsLab {\r\n        require(msg.value > _number * 100, \"Too less wei provided\");\r\n        uint _labId = uint(getLabId(msg.sender));\r\n        // dataRequirements.push(DataRequirement(_message, _labId, uint(msg.value.div(_number)), _number, 0)) - 1;\r\n        dataRequirements.push(DataRequirement(_message, _labId, uint(msg.value/_number), _number, 0)) - 1;\r\n        noOfDataRequirements++;\r\n        // emit newDataRequirement(_message, _labId, uint(msg.value.div(_number)));\r\n        emit newDataRequirement(_message, _labId, uint(msg.value/_number));\r\n    }\r\n\r\n    function getBounty(uint _requirementId, string _url) public senderIsPatient {\r\n        uint _patientId = uint(getPatientId(msg.sender));\r\n        require(dataRequirements[_requirementId].gotData < dataRequirements[_requirementId].number, \"Requirement has already been fulfilled\");\r\n        for (uint i = 0; i < noOfData; i++) {\r\n            if (data[i].requirementId == _requirementId) {\r\n                if (data[i].patientId == _patientId) {\r\n                    require(false, \"You have already submitted data for this requirement\");\r\n                }\r\n            }\r\n        }\r\n        data.push(Data(_requirementId, _patientId, _url));\r\n        noOfData += 1;\r\n        msg.sender.transfer(dataRequirements[_requirementId].bountyForEach);\r\n    }\r\n\r\n//    function accessData(uint _requirementId) public view senderIsLab returns(Data[] memory ans){\r\n//        uint _labId = uint(getLabId(msg.sender));\r\n//        require(dataRequirements[_requirementId].labId == _labId, \"You cannot access this data\");\r\n//        uint no = dataRequirements[_requirementId].gotData;\r\n//        ans = new Data[](no);\r\n//        for (uint i = 0; i < noOfData; i++) {\r\n//            if (data[i].requirementId == _requirementId) {\r\n//                ans[i] = data[i];\r\n//            }\r\n//        }\r\n//        return ans;\r\n//    }\r\n//  TODO Supply chain\r\n}\r\n",
  "sourcePath": "E:\\projects_workspaces\\competitions\\SPITHackathon\\WellCareChain\\contracts\\WellCareChain.sol",
  "compiler": {
    "name": "solc",
    "version": "0.4.23+commit.124ca40d.Emscripten.clang"
  },
  "schemaVersion": "2.0.0",
  "updatedAt": "2019-01-05T17:49:10.550Z"
}